{
  "_format": "hh-sol-artifact-1",
  "contractName": "FractionPurchase",
  "sourceName": "contracts/FractionPurchase.sol",
  "abi": [
    {
      "inputs": [
        {
          "internalType": "address payable",
          "name": "_songFractionalized",
          "type": "address"
        },
        {
          "internalType": "address payable",
          "name": "_songEscrow",
          "type": "address"
        }
      ],
      "stateMutability": "nonpayable",
      "type": "constructor"
    },
    {
      "inputs": [
        {
          "internalType": "uint256",
          "name": "songId",
          "type": "uint256"
        },
        {
          "internalType": "uint256",
          "name": "amount",
          "type": "uint256"
        }
      ],
      "name": "buyFraction",
      "outputs": [],
      "stateMutability": "payable",
      "type": "function"
    },
    {
      "inputs": [],
      "name": "songEscrow",
      "outputs": [
        {
          "internalType": "contract SongEscrow",
          "name": "",
          "type": "address"
        }
      ],
      "stateMutability": "view",
      "type": "function"
    },
    {
      "inputs": [],
      "name": "songFractionalized",
      "outputs": [
        {
          "internalType": "contract SongFractionalized",
          "name": "",
          "type": "address"
        }
      ],
      "stateMutability": "view",
      "type": "function"
    }
  ],
  "bytecode": "0x608060405234801561001057600080fd5b50604051610c09380380610c098339818101604052810190610032919061011d565b816000806101000a81548173ffffffffffffffffffffffffffffffffffffffff021916908373ffffffffffffffffffffffffffffffffffffffff16021790555080600160006101000a81548173ffffffffffffffffffffffffffffffffffffffff021916908373ffffffffffffffffffffffffffffffffffffffff160217905550505061015d565b600080fd5b600073ffffffffffffffffffffffffffffffffffffffff82169050919050565b60006100ea826100bf565b9050919050565b6100fa816100df565b811461010557600080fd5b50565b600081519050610117816100f1565b92915050565b60008060408385031215610134576101336100ba565b5b600061014285828601610108565b925050602061015385828601610108565b9150509250929050565b610a9d8061016c6000396000f3fe6080604052600436106100345760003560e01c80631ce65fcd14610039578063d40b021414610064578063f905179314610080575b600080fd5b34801561004557600080fd5b5061004e6100ab565b60405161005b9190610402565b60405180910390f35b61007e60048036038101906100799190610467565b6100cf565b005b34801561008c57600080fd5b5061009561035d565b6040516100a291906104da565b60405180910390f35b60008054906101000a900473ffffffffffffffffffffffffffffffffffffffff1681565b60008060009054906101000a900473ffffffffffffffffffffffffffffffffffffffff1673ffffffffffffffffffffffffffffffffffffffff166342acaa66846040518263ffffffff1660e01b815260040161012b9190610504565b600060405180830381865afa158015610148573d6000803e3d6000fd5b505050506040513d6000823e3d601f19601f820116820180604052508101906101719190610817565b90508060e001516101b7576040517f08c379a00000000000000000000000000000000000000000000000000000000081526004016101ae906108bd565b60405180910390fd5b600082116101fa576040517f08c379a00000000000000000000000000000000000000000000000000000000081526004016101f190610929565b60405180910390fd5b60008054906101000a900473ffffffffffffffffffffffffffffffffffffffff1673ffffffffffffffffffffffffffffffffffffffff166306625e8a3385856040518463ffffffff1660e01b815260040161025793929190610958565b600060405180830381600087803b15801561027157600080fd5b505af1158015610285573d6000803e3d6000fd5b505050506000600160009054906101000a900473ffffffffffffffffffffffffffffffffffffffff1673ffffffffffffffffffffffffffffffffffffffff16346040516102d1906109c0565b60006040518083038185875af1925050503d806000811461030e576040519150601f19603f3d011682016040523d82523d6000602084013e610313565b606091505b5050905080610357576040517f08c379a000000000000000000000000000000000000000000000000000000000815260040161034e90610a47565b60405180910390fd5b50505050565b600160009054906101000a900473ffffffffffffffffffffffffffffffffffffffff1681565b600073ffffffffffffffffffffffffffffffffffffffff82169050919050565b6000819050919050565b60006103c86103c36103be84610383565b6103a3565b610383565b9050919050565b60006103da826103ad565b9050919050565b60006103ec826103cf565b9050919050565b6103fc816103e1565b82525050565b600060208201905061041760008301846103f3565b92915050565b6000604051905090565b600080fd5b600080fd5b6000819050919050565b61044481610431565b811461044f57600080fd5b50565b6000813590506104618161043b565b92915050565b6000806040838503121561047e5761047d610427565b5b600061048c85828601610452565b925050602061049d85828601610452565b9150509250929050565b60006104b2826103ad565b9050919050565b60006104c4826104a7565b9050919050565b6104d4816104b9565b82525050565b60006020820190506104ef60008301846104cb565b92915050565b6104fe81610431565b82525050565b600060208201905061051960008301846104f5565b92915050565b600080fd5b6000601f19601f8301169050919050565b7f4e487b7100000000000000000000000000000000000000000000000000000000600052604160045260246000fd5b61056d82610524565b810181811067ffffffffffffffff8211171561058c5761058b610535565b5b80604052505050565b600061059f61041d565b90506105ab8282610564565b919050565b600080fd5b600080fd5b600080fd5b600067ffffffffffffffff8211156105da576105d9610535565b5b6105e382610524565b9050602081019050919050565b60005b8381101561060e5780820151818401526020810190506105f3565b60008484015250505050565b600061062d610628846105bf565b610595565b905082815260208101848484011115610649576106486105ba565b5b6106548482856105f0565b509392505050565b600082601f830112610671576106706105b5565b5b815161068184826020860161061a565b91505092915050565b600061069582610383565b9050919050565b6106a58161068a565b81146106b057600080fd5b50565b6000815190506106c28161069c565b92915050565b6000815190506106d78161043b565b92915050565b60008115159050919050565b6106f2816106dd565b81146106fd57600080fd5b50565b60008151905061070f816106e9565b92915050565b6000610100828403121561072c5761072b61051f565b5b610737610100610595565b9050600082015167ffffffffffffffff811115610757576107566105b0565b5b6107638482850161065c565b600083015250602082015167ffffffffffffffff811115610787576107866105b0565b5b6107938482850161065c565b60208301525060406107a7848285016106b3565b60408301525060606107bb848285016106c8565b60608301525060806107cf848285016106c8565b60808301525060a06107e3848285016106c8565b60a08301525060c06107f784828501610700565b60c08301525060e061080b84828501610700565b60e08301525092915050565b60006020828403121561082d5761082c610427565b5b600082015167ffffffffffffffff81111561084b5761084a61042c565b5b61085784828501610715565b91505092915050565b600082825260208201905092915050565b7f536f6e6720686173206e6f74206265656e206c69737465642079657400000000600082015250565b60006108a7601c83610860565b91506108b282610871565b602082019050919050565b600060208201905081810360008301526108d68161089a565b9050919050565b7f4d75737420627579206174206c65617374206f6e65206672616374696f6e0000600082015250565b6000610913601e83610860565b915061091e826108dd565b602082019050919050565b6000602082019050818103600083015261094281610906565b9050919050565b6109528161068a565b82525050565b600060608201905061096d6000830186610949565b61097a60208301856104f5565b61098760408301846104f5565b949350505050565b600081905092915050565b50565b60006109aa60008361098f565b91506109b58261099a565b600082019050919050565b60006109cb8261099d565b9150819050919050565b7f4661696c656420746f207472616e7366657220457468657220746f206573637260008201527f6f77000000000000000000000000000000000000000000000000000000000000602082015250565b6000610a31602283610860565b9150610a3c826109d5565b604082019050919050565b60006020820190508181036000830152610a6081610a24565b905091905056fea264697066735822122021450929f3341caf32023f1c2cf7998930e39416210d933a433decda0a39ce5a64736f6c63430008140033",
  "linkReferences": {},
  "deployedLinkReferences": {}
}