{
  "_format": "hh-sol-artifact-1",
  "contractName": "Fein",
  "sourceName": "contracts/Fein.sol",
  "abi": [
    {
      "inputs": [],
      "stateMutability": "nonpayable",
      "type": "constructor"
    },
    {
      "inputs": [
        {
          "internalType": "address",
          "name": "sender",
          "type": "address"
        },
        {
          "internalType": "uint256",
          "name": "balance",
          "type": "uint256"
        },
        {
          "internalType": "uint256",
          "name": "needed",
          "type": "uint256"
        },
        {
          "internalType": "uint256",
          "name": "tokenId",
          "type": "uint256"
        }
      ],
      "name": "ERC1155InsufficientBalance",
      "type": "error"
    },
    {
      "inputs": [
        {
          "internalType": "address",
          "name": "approver",
          "type": "address"
        }
      ],
      "name": "ERC1155InvalidApprover",
      "type": "error"
    },
    {
      "inputs": [
        {
          "internalType": "uint256",
          "name": "idsLength",
          "type": "uint256"
        },
        {
          "internalType": "uint256",
          "name": "valuesLength",
          "type": "uint256"
        }
      ],
      "name": "ERC1155InvalidArrayLength",
      "type": "error"
    },
    {
      "inputs": [
        {
          "internalType": "address",
          "name": "operator",
          "type": "address"
        }
      ],
      "name": "ERC1155InvalidOperator",
      "type": "error"
    },
    {
      "inputs": [
        {
          "internalType": "address",
          "name": "receiver",
          "type": "address"
        }
      ],
      "name": "ERC1155InvalidReceiver",
      "type": "error"
    },
    {
      "inputs": [
        {
          "internalType": "address",
          "name": "sender",
          "type": "address"
        }
      ],
      "name": "ERC1155InvalidSender",
      "type": "error"
    },
    {
      "inputs": [
        {
          "internalType": "address",
          "name": "operator",
          "type": "address"
        },
        {
          "internalType": "address",
          "name": "owner",
          "type": "address"
        }
      ],
      "name": "ERC1155MissingApprovalForAll",
      "type": "error"
    },
    {
      "anonymous": false,
      "inputs": [
        {
          "indexed": true,
          "internalType": "address",
          "name": "account",
          "type": "address"
        },
        {
          "indexed": true,
          "internalType": "address",
          "name": "operator",
          "type": "address"
        },
        {
          "indexed": false,
          "internalType": "bool",
          "name": "approved",
          "type": "bool"
        }
      ],
      "name": "ApprovalForAll",
      "type": "event"
    },
    {
      "anonymous": false,
      "inputs": [
        {
          "indexed": true,
          "internalType": "uint256",
          "name": "tokenId",
          "type": "uint256"
        },
        {
          "indexed": false,
          "internalType": "uint256",
          "name": "amount",
          "type": "uint256"
        }
      ],
      "name": "FundsAdded",
      "type": "event"
    },
    {
      "anonymous": false,
      "inputs": [
        {
          "indexed": true,
          "internalType": "uint256",
          "name": "tokenId",
          "type": "uint256"
        },
        {
          "indexed": true,
          "internalType": "address",
          "name": "creator",
          "type": "address"
        },
        {
          "indexed": false,
          "internalType": "uint256",
          "name": "totalSupply",
          "type": "uint256"
        },
        {
          "indexed": false,
          "internalType": "uint256",
          "name": "totalFractionalAmount",
          "type": "uint256"
        }
      ],
      "name": "NFTMinted",
      "type": "event"
    },
    {
      "anonymous": false,
      "inputs": [
        {
          "indexed": true,
          "internalType": "uint256",
          "name": "tokenId",
          "type": "uint256"
        },
        {
          "indexed": false,
          "internalType": "uint256",
          "name": "amount",
          "type": "uint256"
        }
      ],
      "name": "RevenueDistributed",
      "type": "event"
    },
    {
      "anonymous": false,
      "inputs": [
        {
          "indexed": true,
          "internalType": "uint256",
          "name": "tokenId",
          "type": "uint256"
        },
        {
          "indexed": true,
          "internalType": "address",
          "name": "buyer",
          "type": "address"
        },
        {
          "indexed": false,
          "internalType": "uint256",
          "name": "tokensPurchased",
          "type": "uint256"
        },
        {
          "indexed": false,
          "internalType": "uint256",
          "name": "amountPaid",
          "type": "uint256"
        }
      ],
      "name": "StakePurchased",
      "type": "event"
    },
    {
      "anonymous": false,
      "inputs": [
        {
          "indexed": true,
          "internalType": "address",
          "name": "operator",
          "type": "address"
        },
        {
          "indexed": true,
          "internalType": "address",
          "name": "from",
          "type": "address"
        },
        {
          "indexed": true,
          "internalType": "address",
          "name": "to",
          "type": "address"
        },
        {
          "indexed": false,
          "internalType": "uint256[]",
          "name": "ids",
          "type": "uint256[]"
        },
        {
          "indexed": false,
          "internalType": "uint256[]",
          "name": "values",
          "type": "uint256[]"
        }
      ],
      "name": "TransferBatch",
      "type": "event"
    },
    {
      "anonymous": false,
      "inputs": [
        {
          "indexed": true,
          "internalType": "address",
          "name": "operator",
          "type": "address"
        },
        {
          "indexed": true,
          "internalType": "address",
          "name": "from",
          "type": "address"
        },
        {
          "indexed": true,
          "internalType": "address",
          "name": "to",
          "type": "address"
        },
        {
          "indexed": false,
          "internalType": "uint256",
          "name": "id",
          "type": "uint256"
        },
        {
          "indexed": false,
          "internalType": "uint256",
          "name": "value",
          "type": "uint256"
        }
      ],
      "name": "TransferSingle",
      "type": "event"
    },
    {
      "anonymous": false,
      "inputs": [
        {
          "indexed": false,
          "internalType": "string",
          "name": "value",
          "type": "string"
        },
        {
          "indexed": true,
          "internalType": "uint256",
          "name": "id",
          "type": "uint256"
        }
      ],
      "name": "URI",
      "type": "event"
    },
    {
      "stateMutability": "payable",
      "type": "fallback"
    },
    {
      "inputs": [
        {
          "internalType": "uint256",
          "name": "tokenId",
          "type": "uint256"
        }
      ],
      "name": "addRevenueGen",
      "outputs": [],
      "stateMutability": "payable",
      "type": "function"
    },
    {
      "inputs": [
        {
          "internalType": "uint256",
          "name": "tokenId",
          "type": "uint256"
        }
      ],
      "name": "artistTokenSales",
      "outputs": [],
      "stateMutability": "payable",
      "type": "function"
    },
    {
      "inputs": [
        {
          "internalType": "address",
          "name": "account",
          "type": "address"
        },
        {
          "internalType": "uint256",
          "name": "id",
          "type": "uint256"
        }
      ],
      "name": "balanceOf",
      "outputs": [
        {
          "internalType": "uint256",
          "name": "",
          "type": "uint256"
        }
      ],
      "stateMutability": "view",
      "type": "function"
    },
    {
      "inputs": [
        {
          "internalType": "address[]",
          "name": "accounts",
          "type": "address[]"
        },
        {
          "internalType": "uint256[]",
          "name": "ids",
          "type": "uint256[]"
        }
      ],
      "name": "balanceOfBatch",
      "outputs": [
        {
          "internalType": "uint256[]",
          "name": "",
          "type": "uint256[]"
        }
      ],
      "stateMutability": "view",
      "type": "function"
    },
    {
      "inputs": [
        {
          "internalType": "uint256",
          "name": "tokenId",
          "type": "uint256"
        },
        {
          "internalType": "uint256",
          "name": "number",
          "type": "uint256"
        }
      ],
      "name": "buyStake",
      "outputs": [],
      "stateMutability": "payable",
      "type": "function"
    },
    {
      "inputs": [],
      "name": "contractOwner",
      "outputs": [
        {
          "internalType": "address",
          "name": "",
          "type": "address"
        }
      ],
      "stateMutability": "view",
      "type": "function"
    },
    {
      "inputs": [],
      "name": "currentTokenID",
      "outputs": [
        {
          "internalType": "uint256",
          "name": "",
          "type": "uint256"
        }
      ],
      "stateMutability": "view",
      "type": "function"
    },
    {
      "inputs": [
        {
          "internalType": "uint256",
          "name": "tokenId",
          "type": "uint256"
        }
      ],
      "name": "distributeRevenue",
      "outputs": [],
      "stateMutability": "payable",
      "type": "function"
    },
    {
      "inputs": [
        {
          "internalType": "uint256",
          "name": "",
          "type": "uint256"
        },
        {
          "internalType": "address",
          "name": "",
          "type": "address"
        }
      ],
      "name": "fractionalOwnership",
      "outputs": [
        {
          "internalType": "uint256",
          "name": "",
          "type": "uint256"
        }
      ],
      "stateMutability": "view",
      "type": "function"
    },
    {
      "inputs": [],
      "name": "getContractOwner",
      "outputs": [
        {
          "internalType": "address",
          "name": "",
          "type": "address"
        }
      ],
      "stateMutability": "view",
      "type": "function"
    },
    {
      "inputs": [
        {
          "internalType": "uint256",
          "name": "_tokenId",
          "type": "uint256"
        }
      ],
      "name": "getparticipants",
      "outputs": [
        {
          "internalType": "address[]",
          "name": "",
          "type": "address[]"
        }
      ],
      "stateMutability": "view",
      "type": "function"
    },
    {
      "inputs": [
        {
          "internalType": "uint256",
          "name": "_tokenid",
          "type": "uint256"
        }
      ],
      "name": "geturi",
      "outputs": [
        {
          "internalType": "string",
          "name": "",
          "type": "string"
        }
      ],
      "stateMutability": "view",
      "type": "function"
    },
    {
      "inputs": [
        {
          "internalType": "address",
          "name": "account",
          "type": "address"
        },
        {
          "internalType": "address",
          "name": "operator",
          "type": "address"
        }
      ],
      "name": "isApprovedForAll",
      "outputs": [
        {
          "internalType": "bool",
          "name": "",
          "type": "bool"
        }
      ],
      "stateMutability": "view",
      "type": "function"
    },
    {
      "inputs": [
        {
          "internalType": "uint256",
          "name": "_totalSupply",
          "type": "uint256"
        },
        {
          "internalType": "uint256",
          "name": "_totalFractionalAmount",
          "type": "uint256"
        },
        {
          "internalType": "uint256",
          "name": "_percentageShare",
          "type": "uint256"
        }
      ],
      "name": "mintNFT",
      "outputs": [
        {
          "internalType": "uint256",
          "name": "",
          "type": "uint256"
        }
      ],
      "stateMutability": "nonpayable",
      "type": "function"
    },
    {
      "inputs": [
        {
          "internalType": "uint256",
          "name": "",
          "type": "uint256"
        },
        {
          "internalType": "uint256",
          "name": "",
          "type": "uint256"
        }
      ],
      "name": "participants",
      "outputs": [
        {
          "internalType": "address",
          "name": "",
          "type": "address"
        }
      ],
      "stateMutability": "view",
      "type": "function"
    },
    {
      "inputs": [
        {
          "internalType": "uint256",
          "name": "tokenId",
          "type": "uint256"
        }
      ],
      "name": "releaseSong",
      "outputs": [],
      "stateMutability": "nonpayable",
      "type": "function"
    },
    {
      "inputs": [
        {
          "internalType": "address",
          "name": "from",
          "type": "address"
        },
        {
          "internalType": "address",
          "name": "to",
          "type": "address"
        },
        {
          "internalType": "uint256[]",
          "name": "ids",
          "type": "uint256[]"
        },
        {
          "internalType": "uint256[]",
          "name": "values",
          "type": "uint256[]"
        },
        {
          "internalType": "bytes",
          "name": "data",
          "type": "bytes"
        }
      ],
      "name": "safeBatchTransferFrom",
      "outputs": [],
      "stateMutability": "nonpayable",
      "type": "function"
    },
    {
      "inputs": [
        {
          "internalType": "address",
          "name": "from",
          "type": "address"
        },
        {
          "internalType": "address",
          "name": "to",
          "type": "address"
        },
        {
          "internalType": "uint256",
          "name": "id",
          "type": "uint256"
        },
        {
          "internalType": "uint256",
          "name": "value",
          "type": "uint256"
        },
        {
          "internalType": "bytes",
          "name": "data",
          "type": "bytes"
        }
      ],
      "name": "safeTransferFrom",
      "outputs": [],
      "stateMutability": "nonpayable",
      "type": "function"
    },
    {
      "inputs": [
        {
          "internalType": "address",
          "name": "operator",
          "type": "address"
        },
        {
          "internalType": "bool",
          "name": "approved",
          "type": "bool"
        }
      ],
      "name": "setApprovalForAll",
      "outputs": [],
      "stateMutability": "nonpayable",
      "type": "function"
    },
    {
      "inputs": [
        {
          "internalType": "bytes4",
          "name": "interfaceId",
          "type": "bytes4"
        }
      ],
      "name": "supportsInterface",
      "outputs": [
        {
          "internalType": "bool",
          "name": "",
          "type": "bool"
        }
      ],
      "stateMutability": "view",
      "type": "function"
    },
    {
      "inputs": [
        {
          "internalType": "uint256",
          "name": "",
          "type": "uint256"
        }
      ],
      "name": "tokenData",
      "outputs": [
        {
          "internalType": "uint256",
          "name": "tokenSupply",
          "type": "uint256"
        },
        {
          "internalType": "string",
          "name": "uri",
          "type": "string"
        },
        {
          "internalType": "address",
          "name": "creator",
          "type": "address"
        },
        {
          "internalType": "uint256",
          "name": "countoftotalsupply",
          "type": "uint256"
        },
        {
          "internalType": "uint256",
          "name": "fundsCollected",
          "type": "uint256"
        },
        {
          "internalType": "uint256",
          "name": "revenue",
          "type": "uint256"
        },
        {
          "internalType": "uint256",
          "name": "totalFractionalAmount",
          "type": "uint256"
        },
        {
          "internalType": "bool",
          "name": "soldOut",
          "type": "bool"
        },
        {
          "internalType": "bool",
          "name": "isReleased",
          "type": "bool"
        },
        {
          "internalType": "uint256",
          "name": "percentageShare",
          "type": "uint256"
        },
        {
          "internalType": "uint256",
          "name": "pricePerToken",
          "type": "uint256"
        }
      ],
      "stateMutability": "view",
      "type": "function"
    },
    {
      "inputs": [
        {
          "internalType": "uint256",
          "name": "",
          "type": "uint256"
        }
      ],
      "name": "uri",
      "outputs": [
        {
          "internalType": "string",
          "name": "",
          "type": "string"
        }
      ],
      "stateMutability": "view",
      "type": "function"
    },
    {
      "inputs": [
        {
          "internalType": "uint256",
          "name": "tokenId",
          "type": "uint256"
        }
      ],
      "name": "withdrawFunds",
      "outputs": [],
      "stateMutability": "nonpayable",
      "type": "function"
    },
    {
      "inputs": [],
      "name": "withdrawToOwner",
      "outputs": [],
      "stateMutability": "payable",
      "type": "function"
    },
    {
      "stateMutability": "payable",
      "type": "receive"
    }
  ],
  "bytecode": "0x608060405260006003553480156200001657600080fd5b506040518060a001604052806068815260200162004ac36068913962000042816200008a60201b60201c565b5033600460006101000a81548173ffffffffffffffffffffffffffffffffffffffff021916908373ffffffffffffffffffffffffffffffffffffffff16021790555062000400565b80600290816200009b919062000319565b5050565b600081519050919050565b7f4e487b7100000000000000000000000000000000000000000000000000000000600052604160045260246000fd5b7f4e487b7100000000000000000000000000000000000000000000000000000000600052602260045260246000fd5b600060028204905060018216806200012157607f821691505b602082108103620001375762000136620000d9565b5b50919050565b60008190508160005260206000209050919050565b60006020601f8301049050919050565b600082821b905092915050565b600060088302620001a17fffffffffffffffffffffffffffffffffffffffffffffffffffffffffffffffff8262000162565b620001ad868362000162565b95508019841693508086168417925050509392505050565b6000819050919050565b6000819050919050565b6000620001fa620001f4620001ee84620001c5565b620001cf565b620001c5565b9050919050565b6000819050919050565b6200021683620001d9565b6200022e620002258262000201565b8484546200016f565b825550505050565b600090565b6200024562000236565b620002528184846200020b565b505050565b5b818110156200027a576200026e6000826200023b565b60018101905062000258565b5050565b601f821115620002c95762000293816200013d565b6200029e8462000152565b81016020851015620002ae578190505b620002c6620002bd8562000152565b83018262000257565b50505b505050565b600082821c905092915050565b6000620002ee60001984600802620002ce565b1980831691505092915050565b6000620003098383620002db565b9150826002028217905092915050565b62000324826200009f565b67ffffffffffffffff81111562000340576200033f620000aa565b5b6200034c825462000108565b620003598282856200027e565b600060209050601f8311600181146200039157600084156200037c578287015190505b620003888582620002fb565b865550620003f8565b601f198416620003a1866200013d565b60005b82811015620003cb57848901518255600182019150602085019450602081019050620003a4565b86831015620003eb5784890151620003e7601f891682620002db565b8355505b6001600288020188555050505b505050505050565b6146b380620004106000396000f3fe60806040526004361061014e5760003560e01c80634dc70474116100b6578063bb62115e1161006f578063bb62115e146104b3578063c6938462146104de578063ce606ee01461051b578063d2facde114610546578063e985e9c514610562578063f242432a1461059f57610155565b80634dc70474146103915780634e1273f4146103ad57806359fde1e0146103ea57806381fb1fb414610406578063a22cb46514610443578063b4b5b48f1461046c57610155565b806317c6ab401161010857806317c6ab401461027c5780631d50869d146102b95780632eb2c2d6146102f65780633cb40e161461031f578063442890d514610329578063449094851461035457610155565b8062fdd58e1461015757806301ffc9a71461019457806303c67a45146101d15780630524d050146101fa5780630e89341c14610216578063155dd5ee1461025357610155565b3661015557005b005b34801561016357600080fd5b5061017e60048036038101906101799190612d20565b6105c8565b60405161018b9190612d6f565b60405180910390f35b3480156101a057600080fd5b506101bb60048036038101906101b69190612de2565b610622565b6040516101c89190612e2a565b60405180910390f35b3480156101dd57600080fd5b506101f860048036038101906101f39190612e45565b610704565b005b610214600480360381019061020f9190612e72565b6107a0565b005b34801561022257600080fd5b5061023d60048036038101906102389190612e45565b610b47565b60405161024a9190612f42565b60405180910390f35b34801561025f57600080fd5b5061027a60048036038101906102759190612e45565b610bdb565b005b34801561028857600080fd5b506102a3600480360381019061029e9190612f64565b610d36565b6040516102b09190612d6f565b60405180910390f35b3480156102c557600080fd5b506102e060048036038101906102db9190612fa4565b610d5b565b6040516102ed9190612d6f565b60405180910390f35b34801561030257600080fd5b5061031d600480360381019061031891906131f4565b610fca565b005b610327611072565b005b34801561033557600080fd5b5061033e611104565b60405161034b91906132d2565b60405180910390f35b34801561036057600080fd5b5061037b60048036038101906103769190612e45565b61112e565b60405161038891906133ab565b60405180910390f35b6103ab60048036038101906103a69190612e45565b6111cf565b005b3480156103b957600080fd5b506103d460048036038101906103cf9190613490565b61135f565b6040516103e191906135c6565b60405180910390f35b61040460048036038101906103ff9190612e45565b61146e565b005b34801561041257600080fd5b5061042d60048036038101906104289190612e72565b611895565b60405161043a91906132d2565b60405180910390f35b34801561044f57600080fd5b5061046a60048036038101906104659190613614565b6118e3565b005b34801561047857600080fd5b50610493600480360381019061048e9190612e45565b6118f9565b6040516104aa9b9a99989796959493929190613654565b60405180910390f35b3480156104bf57600080fd5b506104c8611a15565b6040516104d59190612d6f565b60405180910390f35b3480156104ea57600080fd5b5061050560048036038101906105009190612e45565b611a1b565b6040516105129190612f42565b60405180910390f35b34801561052757600080fd5b50610530611ac3565b60405161053d91906132d2565b60405180910390f35b610560600480360381019061055b9190612e45565b611ae9565b005b34801561056e57600080fd5b5061058960048036038101906105849190613706565b611c7d565b6040516105969190612e2a565b60405180910390f35b3480156105ab57600080fd5b506105c660048036038101906105c19190613746565b611d11565b005b600080600083815260200190815260200160002060008473ffffffffffffffffffffffffffffffffffffffff1673ffffffffffffffffffffffffffffffffffffffff16815260200190815260200160002054905092915050565b60007fd9b67a26000000000000000000000000000000000000000000000000000000007bffffffffffffffffffffffffffffffffffffffffffffffffffffffff1916827bffffffffffffffffffffffffffffffffffffffffffffffffffffffff191614806106ed57507f0e89341c000000000000000000000000000000000000000000000000000000007bffffffffffffffffffffffffffffffffffffffffffffffffffffffff1916827bffffffffffffffffffffffffffffffffffffffffffffffffffffffff1916145b806106fd57506106fc82611db9565b5b9050919050565b600015156005600083815260200190815260200160002060070160019054906101000a900460ff1615151461076e576040517f08c379a000000000000000000000000000000000000000000000000000000000815260040161076590613829565b60405180910390fd5b60016005600083815260200190815260200160002060070160016101000a81548160ff02191690831515021790555050565b600060056000848152602001908152602001600020600001549050600015156005600085815260200190815260200160002060070160009054906101000a900460ff16151514610825576040517f08c379a000000000000000000000000000000000000000000000000000000000815260040161081c90613895565b60405180910390fd5b60008111610868576040517f08c379a000000000000000000000000000000000000000000000000000000000815260040161085f90613927565b60405180910390fd5b818110156108ab576040517f08c379a00000000000000000000000000000000000000000000000000000000081526004016108a2906139b9565b60405180910390fd5b60008260056000868152602001908152602001600020600901546108cf9190613a08565b905080341015610914576040517f08c379a000000000000000000000000000000000000000000000000000000000815260040161090b90613a96565b60405180910390fd5b60006007600086815260200190815260200160002060003373ffffffffffffffffffffffffffffffffffffffff1673ffffffffffffffffffffffffffffffffffffffff16815260200190815260200160002054036109e15760066000858152602001908152602001600020339080600181540180825580915050600190039060005260206000200160009091909190916101000a81548173ffffffffffffffffffffffffffffffffffffffff021916908373ffffffffffffffffffffffffffffffffffffffff1602179055505b6007600085815260200190815260200160002060003373ffffffffffffffffffffffffffffffffffffffff1673ffffffffffffffffffffffffffffffffffffffff1681526020019081526020016000206000815480929190610a4290613ab6565b919050555034600560008681526020019081526020016000206004016000828254610a6d9190613afe565b9250508190555082600560008681526020019081526020016000206000016000828254610a9a9190613b32565b925050819055503373ffffffffffffffffffffffffffffffffffffffff16847f24b22275ff9f36a2d0d5a5564c044f4618382392dab42d26cdfa0ff9cd9850d8600184604051610aeb929190613bab565b60405180910390a36000600560008681526020019081526020016000206000015403610b415760016005600086815260200190815260200160002060070160006101000a81548160ff0219169083151502179055505b50505050565b606060028054610b5690613c03565b80601f0160208091040260200160405190810160405280929190818152602001828054610b8290613c03565b8015610bcf5780601f10610ba457610100808354040283529160200191610bcf565b820191906000526020600020905b815481529060010190602001808311610bb257829003601f168201915b50505050509050919050565b600460009054906101000a900473ffffffffffffffffffffffffffffffffffffffff1673ffffffffffffffffffffffffffffffffffffffff163373ffffffffffffffffffffffffffffffffffffffff1614610c6b576040517f08c379a0000000000000000000000000000000000000000000000000000000008152600401610c6290613c80565b60405180910390fd5b60006005600083815260200190815260200160002060050154905060008111610cc9576040517f08c379a0000000000000000000000000000000000000000000000000000000008152600401610cc090613cec565b60405180910390fd5b600460009054906101000a900473ffffffffffffffffffffffffffffffffffffffff1673ffffffffffffffffffffffffffffffffffffffff166108fc829081150290604051600060405180830381858888f19350505050158015610d31573d6000803e3d6000fd5b505050565b6007602052816000526040600020602052806000526040600020600091509150505481565b6000806003549050610d7e33828760405180602001604052806000815250611e23565b610d8781611ebc565b604051602001610d979190613e52565b604051602081830303815290604052600560008381526020019081526020016000206001019081610dc89190614021565b50846005600083815260200190815260200160002060000181905550846005600083815260200190815260200160002060030181905550336005600083815260200190815260200160002060020160006101000a81548173ffffffffffffffffffffffffffffffffffffffff021916908373ffffffffffffffffffffffffffffffffffffffff1602179055508360056000838152602001908152602001600020600601819055506000600560008381526020019081526020016000206004018190555060036000815480929190610e9e90613ab6565b919050555060006005600083815260200190815260200160002060070160006101000a81548160ff02191690831515021790555060006005600083815260200190815260200160002060070160016101000a81548160ff02191690831515021790555082600560008381526020019081526020016000206008018190555060056000828152602001908152602001600020600301546005600083815260200190815260200160002060060154610f549190614122565b60056000838152602001908152602001600020600901819055503373ffffffffffffffffffffffffffffffffffffffff16817f0713ae16a171f65c6877fd4bff12d9157605b607ef798a53c771cbadd0892ff48787604051610fb7929190614153565b60405180910390a3809150509392505050565b6000610fd4611f8a565b90508073ffffffffffffffffffffffffffffffffffffffff168673ffffffffffffffffffffffffffffffffffffffff161415801561101957506110178682611c7d565b155b1561105d5780866040517fe237d92200000000000000000000000000000000000000000000000000000000815260040161105492919061417c565b60405180910390fd5b61106a8686868686611f92565b505050505050565b600460009054906101000a900473ffffffffffffffffffffffffffffffffffffffff1673ffffffffffffffffffffffffffffffffffffffff163373ffffffffffffffffffffffffffffffffffffffff1614611102576040517f08c379a00000000000000000000000000000000000000000000000000000000081526004016110f990613c80565b60405180910390fd5b565b6000600460009054906101000a900473ffffffffffffffffffffffffffffffffffffffff16905090565b6060600660008381526020019081526020016000208054806020026020016040519081016040528092919081815260200182805480156111c357602002820191906000526020600020905b8160009054906101000a900473ffffffffffffffffffffffffffffffffffffffff1673ffffffffffffffffffffffffffffffffffffffff1681526020019060010190808311611179575b50505050509050919050565b600460009054906101000a900473ffffffffffffffffffffffffffffffffffffffff1673ffffffffffffffffffffffffffffffffffffffff163373ffffffffffffffffffffffffffffffffffffffff161461125f576040517f08c379a000000000000000000000000000000000000000000000000000000000815260040161125690613c80565b60405180910390fd5b600115156005600083815260200190815260200160002060070160019054906101000a900460ff161515146112c9576040517f08c379a00000000000000000000000000000000000000000000000000000000081526004016112c0906141f1565b60405180910390fd5b6005600082815260200190815260200160002060020160009054906101000a900473ffffffffffffffffffffffffffffffffffffffff1673ffffffffffffffffffffffffffffffffffffffff166108fc60056000848152602001908152602001600020600401549081150290604051600060405180830381858888f1935050505015801561135b573d6000803e3d6000fd5b5050565b606081518351146113ab57815183516040517f5b0599910000000000000000000000000000000000000000000000000000000081526004016113a2929190614153565b60405180910390fd5b6000835167ffffffffffffffff8111156113c8576113c7612ffc565b5b6040519080825280602002602001820160405280156113f65781602001602082028036833780820191505090505b50905060005b84518110156114635761143361141b828761208a90919063ffffffff16565b61142e838761209e90919063ffffffff16565b6105c8565b82828151811061144657611445614211565b5b6020026020010181815250508061145c90613ab6565b90506113fc565b508091505092915050565b600460009054906101000a900473ffffffffffffffffffffffffffffffffffffffff1673ffffffffffffffffffffffffffffffffffffffff163373ffffffffffffffffffffffffffffffffffffffff16146114fe576040517f08c379a00000000000000000000000000000000000000000000000000000000081526004016114f590613c80565b60405180910390fd5b600060646005600084815260200190815260200160002060080154600560008581526020019081526020016000206005015461153a9190613a08565b6115449190614122565b9050600115156005600084815260200190815260200160002060070160019054906101000a900460ff161515146115b0576040517f08c379a00000000000000000000000000000000000000000000000000000000081526004016115a7906142b2565b60405180910390fd5b600081116115f3576040517f08c379a00000000000000000000000000000000000000000000000000000000081526004016115ea90614344565b60405180910390fd5b60006005600084815260200190815260200160002060060154905060008111611651576040517f08c379a0000000000000000000000000000000000000000000000000000000008152600401611648906143b0565b60405180910390fd5b60005b60066000858152602001908152602001600020805490508110156117b357600060066000868152602001908152602001600020828154811061169957611698614211565b5b9060005260206000200160009054906101000a900473ffffffffffffffffffffffffffffffffffffffff16905060006007600087815260200190815260200160002060008373ffffffffffffffffffffffffffffffffffffffff1673ffffffffffffffffffffffffffffffffffffffff168152602001908152602001600020549050600081111561179e576000600560008881526020019081526020016000206003015482876117499190613a08565b6117539190614122565b90508273ffffffffffffffffffffffffffffffffffffffff166108fc829081150290604051600060405180830381858888f1935050505015801561179b573d6000803e3d6000fd5b50505b505080806117ab90613ab6565b915050611654565b5060008260056000868152602001908152602001600020600501546117d89190613b32565b90506005600085815260200190815260200160002060020160009054906101000a900473ffffffffffffffffffffffffffffffffffffffff1673ffffffffffffffffffffffffffffffffffffffff166108fc829081150290604051600060405180830381858888f19350505050158015611856573d6000803e3d6000fd5b50837ff2838e4b541f90d41a1076a560d75e948f7d1008e72118a655568626a30b451f846040516118879190612d6f565b60405180910390a250505050565b600660205281600052604060002081815481106118b157600080fd5b906000526020600020016000915091509054906101000a900473ffffffffffffffffffffffffffffffffffffffff1681565b6118f56118ee611f8a565b83836120b2565b5050565b600560205280600052604060002060009150905080600001549080600101805461192290613c03565b80601f016020809104026020016040519081016040528092919081815260200182805461194e90613c03565b801561199b5780601f106119705761010080835404028352916020019161199b565b820191906000526020600020905b81548152906001019060200180831161197e57829003601f168201915b5050505050908060020160009054906101000a900473ffffffffffffffffffffffffffffffffffffffff16908060030154908060040154908060050154908060060154908060070160009054906101000a900460ff16908060070160019054906101000a900460ff1690806008015490806009015490508b565b60035481565b6060600560008381526020019081526020016000206001018054611a3e90613c03565b80601f0160208091040260200160405190810160405280929190818152602001828054611a6a90613c03565b8015611ab75780601f10611a8c57610100808354040283529160200191611ab7565b820191906000526020600020905b815481529060010190602001808311611a9a57829003601f168201915b50505050509050919050565b600460009054906101000a900473ffffffffffffffffffffffffffffffffffffffff1681565b600460009054906101000a900473ffffffffffffffffffffffffffffffffffffffff1673ffffffffffffffffffffffffffffffffffffffff163373ffffffffffffffffffffffffffffffffffffffff1614611b79576040517f08c379a0000000000000000000000000000000000000000000000000000000008152600401611b7090613c80565b60405180910390fd5b6000600560008381526020019081526020016000206006015411611bd2576040517f08c379a0000000000000000000000000000000000000000000000000000000008152600401611bc99061441c565b60405180910390fd5b60003411611c15576040517f08c379a0000000000000000000000000000000000000000000000000000000008152600401611c0c90614488565b60405180910390fd5b34600560008381526020019081526020016000206005016000828254611c3b9190613afe565b92505081905550807ff5e4934928a1e45d88c7a5aa2661fe0a801ca5017922e15122d74f1880155e1a34604051611c729190612d6f565b60405180910390a250565b6000600160008473ffffffffffffffffffffffffffffffffffffffff1673ffffffffffffffffffffffffffffffffffffffff16815260200190815260200160002060008373ffffffffffffffffffffffffffffffffffffffff1673ffffffffffffffffffffffffffffffffffffffff16815260200190815260200160002060009054906101000a900460ff16905092915050565b6000611d1b611f8a565b90508073ffffffffffffffffffffffffffffffffffffffff168673ffffffffffffffffffffffffffffffffffffffff1614158015611d605750611d5e8682611c7d565b155b15611da45780866040517fe237d922000000000000000000000000000000000000000000000000000000008152600401611d9b92919061417c565b60405180910390fd5b611db18686868686612222565b505050505050565b60007f01ffc9a7000000000000000000000000000000000000000000000000000000007bffffffffffffffffffffffffffffffffffffffffffffffffffffffff1916827bffffffffffffffffffffffffffffffffffffffffffffffffffffffff1916149050919050565b600073ffffffffffffffffffffffffffffffffffffffff168473ffffffffffffffffffffffffffffffffffffffff1603611e955760006040517f57f447ce000000000000000000000000000000000000000000000000000000008152600401611e8c91906132d2565b60405180910390fd5b600080611ea2858561232d565b91509150611eb460008784848761235d565b505050505050565b606060006001611ecb8461240f565b01905060008167ffffffffffffffff811115611eea57611ee9612ffc565b5b6040519080825280601f01601f191660200182016040528015611f1c5781602001600182028036833780820191505090505b509050600082602001820190505b600115611f7f578080600190039150507f3031323334353637383961626364656600000000000000000000000000000000600a86061a8153600a8581611f7357611f726140f3565b5b04945060008503611f2a575b819350505050919050565b600033905090565b600073ffffffffffffffffffffffffffffffffffffffff168473ffffffffffffffffffffffffffffffffffffffff16036120045760006040517f57f447ce000000000000000000000000000000000000000000000000000000008152600401611ffb91906132d2565b60405180910390fd5b600073ffffffffffffffffffffffffffffffffffffffff168573ffffffffffffffffffffffffffffffffffffffff16036120765760006040517f01a8351400000000000000000000000000000000000000000000000000000000815260040161206d91906132d2565b60405180910390fd5b612083858585858561235d565b5050505050565b600060208202602084010151905092915050565b600060208202602084010151905092915050565b600073ffffffffffffffffffffffffffffffffffffffff168273ffffffffffffffffffffffffffffffffffffffff16036121245760006040517fced3e10000000000000000000000000000000000000000000000000000000000815260040161211b91906132d2565b60405180910390fd5b80600160008573ffffffffffffffffffffffffffffffffffffffff1673ffffffffffffffffffffffffffffffffffffffff16815260200190815260200160002060008473ffffffffffffffffffffffffffffffffffffffff1673ffffffffffffffffffffffffffffffffffffffff16815260200190815260200160002060006101000a81548160ff0219169083151502179055508173ffffffffffffffffffffffffffffffffffffffff168373ffffffffffffffffffffffffffffffffffffffff167f17307eab39ab6107e8899845ad3d59bd9653f200f220920489ca2b5937696c31836040516122159190612e2a565b60405180910390a3505050565b600073ffffffffffffffffffffffffffffffffffffffff168473ffffffffffffffffffffffffffffffffffffffff16036122945760006040517f57f447ce00000000000000000000000000000000000000000000000000000000815260040161228b91906132d2565b60405180910390fd5b600073ffffffffffffffffffffffffffffffffffffffff168573ffffffffffffffffffffffffffffffffffffffff16036123065760006040517f01a835140000000000000000000000000000000000000000000000000000000081526004016122fd91906132d2565b60405180910390fd5b600080612313858561232d565b91509150612324878784848761235d565b50505050505050565b60608060405191506001825283602083015260408201905060018152826020820152604081016040529250929050565b61236985858585612562565b600073ffffffffffffffffffffffffffffffffffffffff168473ffffffffffffffffffffffffffffffffffffffff16146124085760006123a7611f8a565b905060018451036123f75760006123c860008661209e90919063ffffffff16565b905060006123e060008661209e90919063ffffffff16565b90506123f0838989858589612910565b5050612406565b612405818787878787612ac4565b5b505b5050505050565b600080600090507a184f03e93ff9f4daa797ed6e38ed64bf6a1f010000000000000000831061246d577a184f03e93ff9f4daa797ed6e38ed64bf6a1f0100000000000000008381612463576124626140f3565b5b0492506040810190505b6d04ee2d6d415b85acef810000000083106124aa576d04ee2d6d415b85acef810000000083816124a05761249f6140f3565b5b0492506020810190505b662386f26fc1000083106124d957662386f26fc1000083816124cf576124ce6140f3565b5b0492506010810190505b6305f5e1008310612502576305f5e10083816124f8576124f76140f3565b5b0492506008810190505b612710831061252757612710838161251d5761251c6140f3565b5b0492506004810190505b6064831061254a57606483816125405761253f6140f3565b5b0492506002810190505b600a8310612559576001810190505b80915050919050565b80518251146125ac57815181516040517f5b0599910000000000000000000000000000000000000000000000000000000081526004016125a3929190614153565b60405180910390fd5b60006125b6611f8a565b905060005b83518110156127cb5760006125d9828661209e90919063ffffffff16565b905060006125f0838661209e90919063ffffffff16565b9050600073ffffffffffffffffffffffffffffffffffffffff168873ffffffffffffffffffffffffffffffffffffffff161461271d57600080600084815260200190815260200160002060008a73ffffffffffffffffffffffffffffffffffffffff1673ffffffffffffffffffffffffffffffffffffffff168152602001908152602001600020549050818110156126c557888183856040517f03dee4c50000000000000000000000000000000000000000000000000000000081526004016126bc94939291906144a8565b60405180910390fd5b81810360008085815260200190815260200160002060008b73ffffffffffffffffffffffffffffffffffffffff1673ffffffffffffffffffffffffffffffffffffffff16815260200190815260200160002081905550505b600073ffffffffffffffffffffffffffffffffffffffff168773ffffffffffffffffffffffffffffffffffffffff16146127b8578060008084815260200190815260200160002060008973ffffffffffffffffffffffffffffffffffffffff1673ffffffffffffffffffffffffffffffffffffffff16815260200190815260200160002060008282546127b09190613afe565b925050819055505b5050806127c490613ab6565b90506125bb565b50600183510361288a5760006127eb60008561209e90919063ffffffff16565b9050600061280360008561209e90919063ffffffff16565b90508573ffffffffffffffffffffffffffffffffffffffff168773ffffffffffffffffffffffffffffffffffffffff168473ffffffffffffffffffffffffffffffffffffffff167fc3d58168c5ae7397731d063d5bbf3d657854427343f4c083240f7aacaa2d0f62858560405161287b929190614153565b60405180910390a45050612909565b8373ffffffffffffffffffffffffffffffffffffffff168573ffffffffffffffffffffffffffffffffffffffff168273ffffffffffffffffffffffffffffffffffffffff167f4a39dc06d4c0dbc64b70af90fd698a233a518aa5d07e595d983b8c0526c8f7fb86866040516129009291906144ed565b60405180910390a45b5050505050565b60008473ffffffffffffffffffffffffffffffffffffffff163b1115612abc578373ffffffffffffffffffffffffffffffffffffffff1663f23a6e6187878686866040518663ffffffff1660e01b8152600401612971959493929190614579565b6020604051808303816000875af19250505080156129ad57506040513d601f19601f820116820180604052508101906129aa91906145e8565b60015b612a31573d80600081146129dd576040519150601f19603f3d011682016040523d82523d6000602084013e6129e2565b606091505b506000815103612a2957846040517f57f447ce000000000000000000000000000000000000000000000000000000008152600401612a2091906132d2565b60405180910390fd5b805181602001fd5b63f23a6e6160e01b7bffffffffffffffffffffffffffffffffffffffffffffffffffffffff1916817bffffffffffffffffffffffffffffffffffffffffffffffffffffffff191614612aba57846040517f57f447ce000000000000000000000000000000000000000000000000000000008152600401612ab191906132d2565b60405180910390fd5b505b505050505050565b60008473ffffffffffffffffffffffffffffffffffffffff163b1115612c70578373ffffffffffffffffffffffffffffffffffffffff1663bc197c8187878686866040518663ffffffff1660e01b8152600401612b25959493929190614615565b6020604051808303816000875af1925050508015612b6157506040513d601f19601f82011682018060405250810190612b5e91906145e8565b60015b612be5573d8060008114612b91576040519150601f19603f3d011682016040523d82523d6000602084013e612b96565b606091505b506000815103612bdd57846040517f57f447ce000000000000000000000000000000000000000000000000000000008152600401612bd491906132d2565b60405180910390fd5b805181602001fd5b63bc197c8160e01b7bffffffffffffffffffffffffffffffffffffffffffffffffffffffff1916817bffffffffffffffffffffffffffffffffffffffffffffffffffffffff191614612c6e57846040517f57f447ce000000000000000000000000000000000000000000000000000000008152600401612c6591906132d2565b60405180910390fd5b505b505050505050565b6000604051905090565b600080fd5b600080fd5b600073ffffffffffffffffffffffffffffffffffffffff82169050919050565b6000612cb782612c8c565b9050919050565b612cc781612cac565b8114612cd257600080fd5b50565b600081359050612ce481612cbe565b92915050565b6000819050919050565b612cfd81612cea565b8114612d0857600080fd5b50565b600081359050612d1a81612cf4565b92915050565b60008060408385031215612d3757612d36612c82565b5b6000612d4585828601612cd5565b9250506020612d5685828601612d0b565b9150509250929050565b612d6981612cea565b82525050565b6000602082019050612d846000830184612d60565b92915050565b60007fffffffff0000000000000000000000000000000000000000000000000000000082169050919050565b612dbf81612d8a565b8114612dca57600080fd5b50565b600081359050612ddc81612db6565b92915050565b600060208284031215612df857612df7612c82565b5b6000612e0684828501612dcd565b91505092915050565b60008115159050919050565b612e2481612e0f565b82525050565b6000602082019050612e3f6000830184612e1b565b92915050565b600060208284031215612e5b57612e5a612c82565b5b6000612e6984828501612d0b565b91505092915050565b60008060408385031215612e8957612e88612c82565b5b6000612e9785828601612d0b565b9250506020612ea885828601612d0b565b9150509250929050565b600081519050919050565b600082825260208201905092915050565b60005b83811015612eec578082015181840152602081019050612ed1565b60008484015250505050565b6000601f19601f8301169050919050565b6000612f1482612eb2565b612f1e8185612ebd565b9350612f2e818560208601612ece565b612f3781612ef8565b840191505092915050565b60006020820190508181036000830152612f5c8184612f09565b905092915050565b60008060408385031215612f7b57612f7a612c82565b5b6000612f8985828601612d0b565b9250506020612f9a85828601612cd5565b9150509250929050565b600080600060608486031215612fbd57612fbc612c82565b5b6000612fcb86828701612d0b565b9350506020612fdc86828701612d0b565b9250506040612fed86828701612d0b565b9150509250925092565b600080fd5b7f4e487b7100000000000000000000000000000000000000000000000000000000600052604160045260246000fd5b61303482612ef8565b810181811067ffffffffffffffff8211171561305357613052612ffc565b5b80604052505050565b6000613066612c78565b9050613072828261302b565b919050565b600067ffffffffffffffff82111561309257613091612ffc565b5b602082029050602081019050919050565b600080fd5b60006130bb6130b684613077565b61305c565b905080838252602082019050602084028301858111156130de576130dd6130a3565b5b835b8181101561310757806130f38882612d0b565b8452602084019350506020810190506130e0565b5050509392505050565b600082601f83011261312657613125612ff7565b5b81356131368482602086016130a8565b91505092915050565b600080fd5b600067ffffffffffffffff82111561315f5761315e612ffc565b5b61316882612ef8565b9050602081019050919050565b82818337600083830152505050565b600061319761319284613144565b61305c565b9050828152602081018484840111156131b3576131b261313f565b5b6131be848285613175565b509392505050565b600082601f8301126131db576131da612ff7565b5b81356131eb848260208601613184565b91505092915050565b600080600080600060a086880312156132105761320f612c82565b5b600061321e88828901612cd5565b955050602061322f88828901612cd5565b945050604086013567ffffffffffffffff8111156132505761324f612c87565b5b61325c88828901613111565b935050606086013567ffffffffffffffff81111561327d5761327c612c87565b5b61328988828901613111565b925050608086013567ffffffffffffffff8111156132aa576132a9612c87565b5b6132b6888289016131c6565b9150509295509295909350565b6132cc81612cac565b82525050565b60006020820190506132e760008301846132c3565b92915050565b600081519050919050565b600082825260208201905092915050565b6000819050602082019050919050565b61332281612cac565b82525050565b60006133348383613319565b60208301905092915050565b6000602082019050919050565b6000613358826132ed565b61336281856132f8565b935061336d83613309565b8060005b8381101561339e5781516133858882613328565b975061339083613340565b925050600181019050613371565b5085935050505092915050565b600060208201905081810360008301526133c5818461334d565b905092915050565b600067ffffffffffffffff8211156133e8576133e7612ffc565b5b602082029050602081019050919050565b600061340c613407846133cd565b61305c565b9050808382526020820190506020840283018581111561342f5761342e6130a3565b5b835b8181101561345857806134448882612cd5565b845260208401935050602081019050613431565b5050509392505050565b600082601f83011261347757613476612ff7565b5b81356134878482602086016133f9565b91505092915050565b600080604083850312156134a7576134a6612c82565b5b600083013567ffffffffffffffff8111156134c5576134c4612c87565b5b6134d185828601613462565b925050602083013567ffffffffffffffff8111156134f2576134f1612c87565b5b6134fe85828601613111565b9150509250929050565b600081519050919050565b600082825260208201905092915050565b6000819050602082019050919050565b61353d81612cea565b82525050565b600061354f8383613534565b60208301905092915050565b6000602082019050919050565b600061357382613508565b61357d8185613513565b935061358883613524565b8060005b838110156135b95781516135a08882613543565b97506135ab8361355b565b92505060018101905061358c565b5085935050505092915050565b600060208201905081810360008301526135e08184613568565b905092915050565b6135f181612e0f565b81146135fc57600080fd5b50565b60008135905061360e816135e8565b92915050565b6000806040838503121561362b5761362a612c82565b5b600061363985828601612cd5565b925050602061364a858286016135ff565b9150509250929050565b60006101608201905061366a600083018e612d60565b818103602083015261367c818d612f09565b905061368b604083018c6132c3565b613698606083018b612d60565b6136a5608083018a612d60565b6136b260a0830189612d60565b6136bf60c0830188612d60565b6136cc60e0830187612e1b565b6136da610100830186612e1b565b6136e8610120830185612d60565b6136f6610140830184612d60565b9c9b505050505050505050505050565b6000806040838503121561371d5761371c612c82565b5b600061372b85828601612cd5565b925050602061373c85828601612cd5565b9150509250929050565b600080600080600060a0868803121561376257613761612c82565b5b600061377088828901612cd5565b955050602061378188828901612cd5565b945050604061379288828901612d0b565b93505060606137a388828901612d0b565b925050608086013567ffffffffffffffff8111156137c4576137c3612c87565b5b6137d0888289016131c6565b9150509295509295909350565b7f536f6e6720697320616c72656164792072656c65617365640000000000000000600082015250565b6000613813601883612ebd565b915061381e826137dd565b602082019050919050565b6000602082019050818103600083015261384281613806565b9050919050565b7f546f6b656e20697320736f6c64206f7574000000000000000000000000000000600082015250565b600061387f601183612ebd565b915061388a82613849565b602082019050919050565b600060208201905081810360008301526138ae81613872565b9050919050565b7f4e6f206672616374696f6e616c206f776e65727368697020617661696c61626c60008201527f6500000000000000000000000000000000000000000000000000000000000000602082015250565b6000613911602183612ebd565b915061391c826138b5565b604082019050919050565b6000602082019050818103600083015261394081613904565b9050919050565b7f4e6f7420656e6f756768206672616374696f6e616c206f776e6572736869702060008201527f617661696c61626c650000000000000000000000000000000000000000000000602082015250565b60006139a3602983612ebd565b91506139ae82613947565b604082019050919050565b600060208201905081810360008301526139d281613996565b9050919050565b7f4e487b7100000000000000000000000000000000000000000000000000000000600052601160045260246000fd5b6000613a1382612cea565b9150613a1e83612cea565b9250828202613a2c81612cea565b91508282048414831517613a4357613a426139d9565b5b5092915050565b7f496e636f727265637420616d6f756e74206f66204554482073656e7400000000600082015250565b6000613a80601c83612ebd565b9150613a8b82613a4a565b602082019050919050565b60006020820190508181036000830152613aaf81613a73565b9050919050565b6000613ac182612cea565b91507fffffffffffffffffffffffffffffffffffffffffffffffffffffffffffffffff8203613af357613af26139d9565b5b600182019050919050565b6000613b0982612cea565b9150613b1483612cea565b9250828201905080821115613b2c57613b2b6139d9565b5b92915050565b6000613b3d82612cea565b9150613b4883612cea565b9250828203905081811115613b6057613b5f6139d9565b5b92915050565b6000819050919050565b6000819050919050565b6000613b95613b90613b8b84613b66565b613b70565b612cea565b9050919050565b613ba581613b7a565b82525050565b6000604082019050613bc06000830185613b9c565b613bcd6020830184612d60565b9392505050565b7f4e487b7100000000000000000000000000000000000000000000000000000000600052602260045260246000fd5b60006002820490506001821680613c1b57607f821691505b602082108103613c2e57613c2d613bd4565b5b50919050565b7f4e6f7420746865206f776e657200000000000000000000000000000000000000600082015250565b6000613c6a600d83612ebd565b9150613c7582613c34565b602082019050919050565b60006020820190508181036000830152613c9981613c5d565b9050919050565b7f4e6f2066756e647320746f207769746864726177000000000000000000000000600082015250565b6000613cd6601483612ebd565b9150613ce182613ca0565b602082019050919050565b60006020820190508181036000830152613d0581613cc9565b9050919050565b600081905092915050565b7f68747470733a2f2f61707269636f742d61646f7261626c652d62757a7a61726460008201527f2d3638352e6d7970696e6174612e636c6f75642f697066732f516d616659565260208201527f4d613961576a32515a414359655566624458747472795335537964617a64696a60408201527f58634e56666d732f000000000000000000000000000000000000000000000000606082015250565b6000613dbf606883613d0c565b9150613dca82613d17565b606882019050919050565b6000613de082612eb2565b613dea8185613d0c565b9350613dfa818560208601612ece565b80840191505092915050565b7f2e6a736f6e000000000000000000000000000000000000000000000000000000600082015250565b6000613e3c600583613d0c565b9150613e4782613e06565b600582019050919050565b6000613e5d82613db2565b9150613e698284613dd5565b9150613e7482613e2f565b915081905092915050565b60008190508160005260206000209050919050565b60006020601f8301049050919050565b600082821b905092915050565b600060088302613ee17fffffffffffffffffffffffffffffffffffffffffffffffffffffffffffffffff82613ea4565b613eeb8683613ea4565b95508019841693508086168417925050509392505050565b6000613f1e613f19613f1484612cea565b613b70565b612cea565b9050919050565b6000819050919050565b613f3883613f03565b613f4c613f4482613f25565b848454613eb1565b825550505050565b600090565b613f61613f54565b613f6c818484613f2f565b505050565b5b81811015613f9057613f85600082613f59565b600181019050613f72565b5050565b601f821115613fd557613fa681613e7f565b613faf84613e94565b81016020851015613fbe578190505b613fd2613fca85613e94565b830182613f71565b50505b505050565b600082821c905092915050565b6000613ff860001984600802613fda565b1980831691505092915050565b60006140118383613fe7565b9150826002028217905092915050565b61402a82612eb2565b67ffffffffffffffff81111561404357614042612ffc565b5b61404d8254613c03565b614058828285613f94565b600060209050601f83116001811461408b5760008415614079578287015190505b6140838582614005565b8655506140eb565b601f19841661409986613e7f565b60005b828110156140c15784890151825560018201915060208501945060208101905061409c565b868310156140de57848901516140da601f891682613fe7565b8355505b6001600288020188555050505b505050505050565b7f4e487b7100000000000000000000000000000000000000000000000000000000600052601260045260246000fd5b600061412d82612cea565b915061413883612cea565b925082614148576141476140f3565b5b828204905092915050565b60006040820190506141686000830185612d60565b6141756020830184612d60565b9392505050565b600060408201905061419160008301856132c3565b61419e60208301846132c3565b9392505050565b7f536f6e67206e6f742072656c6561736564207965740000000000000000000000600082015250565b60006141db601583612ebd565b91506141e6826141a5565b602082019050919050565b6000602082019050818103600083015261420a816141ce565b9050919050565b7f4e487b7100000000000000000000000000000000000000000000000000000000600052603260045260246000fd5b7f536f6e67206d7573742062652072656c656173656420746f206469737472696260008201527f75746520726576656e7565000000000000000000000000000000000000000000602082015250565b600061429c602b83612ebd565b91506142a782614240565b604082019050919050565b600060208201905081810360008301526142cb8161428f565b9050919050565b7f4e6f2066756e647320617661696c61626c6520666f722064697374726962757460008201527f696f6e0000000000000000000000000000000000000000000000000000000000602082015250565b600061432e602383612ebd565b9150614339826142d2565b604082019050919050565b6000602082019050818103600083015261435d81614321565b9050919050565b7f4e6f206672616374696f6e7320736f6c64000000000000000000000000000000600082015250565b600061439a601183612ebd565b91506143a582614364565b602082019050919050565b600060208201905081810360008301526143c98161438d565b9050919050565b7f4e465420646f6573206e6f742065786973740000000000000000000000000000600082015250565b6000614406601283612ebd565b9150614411826143d0565b602082019050919050565b60006020820190508181036000830152614435816143f9565b9050919050565b7f4e6f2066756e64732070726f7669646564000000000000000000000000000000600082015250565b6000614472601183612ebd565b915061447d8261443c565b602082019050919050565b600060208201905081810360008301526144a181614465565b9050919050565b60006080820190506144bd60008301876132c3565b6144ca6020830186612d60565b6144d76040830185612d60565b6144e46060830184612d60565b95945050505050565b600060408201905081810360008301526145078185613568565b9050818103602083015261451b8184613568565b90509392505050565b600081519050919050565b600082825260208201905092915050565b600061454b82614524565b614555818561452f565b9350614565818560208601612ece565b61456e81612ef8565b840191505092915050565b600060a08201905061458e60008301886132c3565b61459b60208301876132c3565b6145a86040830186612d60565b6145b56060830185612d60565b81810360808301526145c78184614540565b90509695505050505050565b6000815190506145e281612db6565b92915050565b6000602082840312156145fe576145fd612c82565b5b600061460c848285016145d3565b91505092915050565b600060a08201905061462a60008301886132c3565b61463760208301876132c3565b81810360408301526146498186613568565b9050818103606083015261465d8185613568565b905081810360808301526146718184614540565b9050969550505050505056fea2646970667358221220ecd6ae16ab5f8ddb7c9680a01a46fec2aae9e64fe4b9d3c2db82703862ac288b64736f6c6343000814003368747470733a2f2f61707269636f742d61646f7261626c652d62757a7a6172642d3638352e6d7970696e6174612e636c6f75642f697066732f516d61665956524d613961576a32515a414359655566624458747472795335537964617a64696a58634e56666d732f",
  "linkReferences": {},
  "deployedLinkReferences": {}
}