{
  "_format": "hh-sol-artifact-1",
  "contractName": "FractionPurchase",
  "sourceName": "contracts/FractionPurchase.sol",
  "abi": [
    {
      "inputs": [
        {
          "internalType": "address payable",
          "name": "_songFractionalized",
          "type": "address"
        },
        {
          "internalType": "address payable",
          "name": "_songEscrow",
          "type": "address"
        }
      ],
      "stateMutability": "nonpayable",
      "type": "constructor"
    },
    {
      "inputs": [
        {
          "internalType": "uint256",
          "name": "songId",
          "type": "uint256"
        },
        {
          "internalType": "uint256",
          "name": "amount",
          "type": "uint256"
        }
      ],
      "name": "buyFraction",
      "outputs": [],
      "stateMutability": "payable",
      "type": "function"
    },
    {
      "inputs": [],
      "name": "songEscrow",
      "outputs": [
        {
          "internalType": "contract SongEscrow",
          "name": "",
          "type": "address"
        }
      ],
      "stateMutability": "view",
      "type": "function"
    },
    {
      "inputs": [],
      "name": "songFractionalized",
      "outputs": [
        {
          "internalType": "contract SongFractionalized",
          "name": "",
          "type": "address"
        }
      ],
      "stateMutability": "view",
      "type": "function"
    }
  ],
  "bytecode": "0x608060405234801561001057600080fd5b50604051610d37380380610d378339818101604052810190610032919061011d565b816000806101000a81548173ffffffffffffffffffffffffffffffffffffffff021916908373ffffffffffffffffffffffffffffffffffffffff16021790555080600160006101000a81548173ffffffffffffffffffffffffffffffffffffffff021916908373ffffffffffffffffffffffffffffffffffffffff160217905550505061015d565b600080fd5b600073ffffffffffffffffffffffffffffffffffffffff82169050919050565b60006100ea826100bf565b9050919050565b6100fa816100df565b811461010557600080fd5b50565b600081519050610117816100f1565b92915050565b60008060408385031215610134576101336100ba565b5b600061014285828601610108565b925050602061015385828601610108565b9150509250929050565b610bcb8061016c6000396000f3fe6080604052600436106100345760003560e01c80631ce65fcd14610039578063d40b021414610064578063f905179314610080575b600080fd5b34801561004557600080fd5b5061004e6100ab565b60405161005b9190610453565b60405180910390f35b61007e600480360381019061007991906104b8565b6100cf565b005b34801561008c57600080fd5b506100956103ae565b6040516100a2919061052b565b60405180910390f35b60008054906101000a900473ffffffffffffffffffffffffffffffffffffffff1681565b60008060009054906101000a900473ffffffffffffffffffffffffffffffffffffffff1673ffffffffffffffffffffffffffffffffffffffff166342acaa66846040518263ffffffff1660e01b815260040161012b9190610555565b600060405180830381865afa158015610148573d6000803e3d6000fd5b505050506040513d6000823e3d601f19601f820116820180604052508101906101719190610868565b90508060e001516101b7576040517f08c379a00000000000000000000000000000000000000000000000000000000081526004016101ae9061090e565b60405180910390fd5b600082116101fa576040517f08c379a00000000000000000000000000000000000000000000000000000000081526004016101f19061097a565b60405180910390fd5b81816080015161020a91906109c9565b341461024b576040517f08c379a000000000000000000000000000000000000000000000000000000000815260040161024290610a57565b60405180910390fd5b60008054906101000a900473ffffffffffffffffffffffffffffffffffffffff1673ffffffffffffffffffffffffffffffffffffffff166306625e8a3385856040518463ffffffff1660e01b81526004016102a893929190610a86565b600060405180830381600087803b1580156102c257600080fd5b505af11580156102d6573d6000803e3d6000fd5b505050506000600160009054906101000a900473ffffffffffffffffffffffffffffffffffffffff1673ffffffffffffffffffffffffffffffffffffffff163460405161032290610aee565b60006040518083038185875af1925050503d806000811461035f576040519150601f19603f3d011682016040523d82523d6000602084013e610364565b606091505b50509050806103a8576040517f08c379a000000000000000000000000000000000000000000000000000000000815260040161039f90610b75565b60405180910390fd5b50505050565b600160009054906101000a900473ffffffffffffffffffffffffffffffffffffffff1681565b600073ffffffffffffffffffffffffffffffffffffffff82169050919050565b6000819050919050565b600061041961041461040f846103d4565b6103f4565b6103d4565b9050919050565b600061042b826103fe565b9050919050565b600061043d82610420565b9050919050565b61044d81610432565b82525050565b60006020820190506104686000830184610444565b92915050565b6000604051905090565b600080fd5b600080fd5b6000819050919050565b61049581610482565b81146104a057600080fd5b50565b6000813590506104b28161048c565b92915050565b600080604083850312156104cf576104ce610478565b5b60006104dd858286016104a3565b92505060206104ee858286016104a3565b9150509250929050565b6000610503826103fe565b9050919050565b6000610515826104f8565b9050919050565b6105258161050a565b82525050565b6000602082019050610540600083018461051c565b92915050565b61054f81610482565b82525050565b600060208201905061056a6000830184610546565b92915050565b600080fd5b6000601f19601f8301169050919050565b7f4e487b7100000000000000000000000000000000000000000000000000000000600052604160045260246000fd5b6105be82610575565b810181811067ffffffffffffffff821117156105dd576105dc610586565b5b80604052505050565b60006105f061046e565b90506105fc82826105b5565b919050565b600080fd5b600080fd5b600080fd5b600067ffffffffffffffff82111561062b5761062a610586565b5b61063482610575565b9050602081019050919050565b60005b8381101561065f578082015181840152602081019050610644565b60008484015250505050565b600061067e61067984610610565b6105e6565b90508281526020810184848401111561069a5761069961060b565b5b6106a5848285610641565b509392505050565b600082601f8301126106c2576106c1610606565b5b81516106d284826020860161066b565b91505092915050565b60006106e6826103d4565b9050919050565b6106f6816106db565b811461070157600080fd5b50565b600081519050610713816106ed565b92915050565b6000815190506107288161048c565b92915050565b60008115159050919050565b6107438161072e565b811461074e57600080fd5b50565b6000815190506107608161073a565b92915050565b6000610100828403121561077d5761077c610570565b5b6107886101006105e6565b9050600082015167ffffffffffffffff8111156107a8576107a7610601565b5b6107b4848285016106ad565b600083015250602082015167ffffffffffffffff8111156107d8576107d7610601565b5b6107e4848285016106ad565b60208301525060406107f884828501610704565b604083015250606061080c84828501610719565b606083015250608061082084828501610719565b60808301525060a061083484828501610719565b60a08301525060c061084884828501610751565b60c08301525060e061085c84828501610751565b60e08301525092915050565b60006020828403121561087e5761087d610478565b5b600082015167ffffffffffffffff81111561089c5761089b61047d565b5b6108a884828501610766565b91505092915050565b600082825260208201905092915050565b7f536f6e6720686173206e6f74206265656e206c69737465642079657400000000600082015250565b60006108f8601c836108b1565b9150610903826108c2565b602082019050919050565b60006020820190508181036000830152610927816108eb565b9050919050565b7f4d75737420627579206174206c65617374206f6e65206672616374696f6e0000600082015250565b6000610964601e836108b1565b915061096f8261092e565b602082019050919050565b6000602082019050818103600083015261099381610957565b9050919050565b7f4e487b7100000000000000000000000000000000000000000000000000000000600052601160045260246000fd5b60006109d482610482565b91506109df83610482565b92508282026109ed81610482565b91508282048414831517610a0457610a0361099a565b5b5092915050565b7f496e636f72726563742045746865722073656e74000000000000000000000000600082015250565b6000610a416014836108b1565b9150610a4c82610a0b565b602082019050919050565b60006020820190508181036000830152610a7081610a34565b9050919050565b610a80816106db565b82525050565b6000606082019050610a9b6000830186610a77565b610aa86020830185610546565b610ab56040830184610546565b949350505050565b600081905092915050565b50565b6000610ad8600083610abd565b9150610ae382610ac8565b600082019050919050565b6000610af982610acb565b9150819050919050565b7f4661696c656420746f207472616e7366657220457468657220746f206573637260008201527f6f77000000000000000000000000000000000000000000000000000000000000602082015250565b6000610b5f6022836108b1565b9150610b6a82610b03565b604082019050919050565b60006020820190508181036000830152610b8e81610b52565b905091905056fea2646970667358221220adb4d334a3c2b866ad197a7ade72615f137427b1ff6a9a1f912a4c003735943064736f6c63430008140033",
  "linkReferences": {},
  "deployedLinkReferences": {}
}