{
  "_format": "hh-sol-artifact-1",
  "contractName": "SongFractionalized",
  "sourceName": "contracts/SongFractionalized.sol",
  "abi": [
    {
      "inputs": [],
      "stateMutability": "nonpayable",
      "type": "constructor"
    },
    {
      "inputs": [
        {
          "internalType": "address",
          "name": "sender",
          "type": "address"
        },
        {
          "internalType": "uint256",
          "name": "balance",
          "type": "uint256"
        },
        {
          "internalType": "uint256",
          "name": "needed",
          "type": "uint256"
        },
        {
          "internalType": "uint256",
          "name": "tokenId",
          "type": "uint256"
        }
      ],
      "name": "ERC1155InsufficientBalance",
      "type": "error"
    },
    {
      "inputs": [
        {
          "internalType": "address",
          "name": "approver",
          "type": "address"
        }
      ],
      "name": "ERC1155InvalidApprover",
      "type": "error"
    },
    {
      "inputs": [
        {
          "internalType": "uint256",
          "name": "idsLength",
          "type": "uint256"
        },
        {
          "internalType": "uint256",
          "name": "valuesLength",
          "type": "uint256"
        }
      ],
      "name": "ERC1155InvalidArrayLength",
      "type": "error"
    },
    {
      "inputs": [
        {
          "internalType": "address",
          "name": "operator",
          "type": "address"
        }
      ],
      "name": "ERC1155InvalidOperator",
      "type": "error"
    },
    {
      "inputs": [
        {
          "internalType": "address",
          "name": "receiver",
          "type": "address"
        }
      ],
      "name": "ERC1155InvalidReceiver",
      "type": "error"
    },
    {
      "inputs": [
        {
          "internalType": "address",
          "name": "sender",
          "type": "address"
        }
      ],
      "name": "ERC1155InvalidSender",
      "type": "error"
    },
    {
      "inputs": [
        {
          "internalType": "address",
          "name": "operator",
          "type": "address"
        },
        {
          "internalType": "address",
          "name": "owner",
          "type": "address"
        }
      ],
      "name": "ERC1155MissingApprovalForAll",
      "type": "error"
    },
    {
      "inputs": [
        {
          "internalType": "address",
          "name": "owner",
          "type": "address"
        }
      ],
      "name": "OwnableInvalidOwner",
      "type": "error"
    },
    {
      "inputs": [
        {
          "internalType": "address",
          "name": "account",
          "type": "address"
        }
      ],
      "name": "OwnableUnauthorizedAccount",
      "type": "error"
    },
    {
      "anonymous": false,
      "inputs": [
        {
          "indexed": true,
          "internalType": "address",
          "name": "account",
          "type": "address"
        },
        {
          "indexed": true,
          "internalType": "address",
          "name": "operator",
          "type": "address"
        },
        {
          "indexed": false,
          "internalType": "bool",
          "name": "approved",
          "type": "bool"
        }
      ],
      "name": "ApprovalForAll",
      "type": "event"
    },
    {
      "anonymous": false,
      "inputs": [
        {
          "indexed": true,
          "internalType": "address",
          "name": "previousOwner",
          "type": "address"
        },
        {
          "indexed": true,
          "internalType": "address",
          "name": "newOwner",
          "type": "address"
        }
      ],
      "name": "OwnershipTransferred",
      "type": "event"
    },
    {
      "anonymous": false,
      "inputs": [
        {
          "indexed": true,
          "internalType": "address",
          "name": "operator",
          "type": "address"
        },
        {
          "indexed": true,
          "internalType": "address",
          "name": "from",
          "type": "address"
        },
        {
          "indexed": true,
          "internalType": "address",
          "name": "to",
          "type": "address"
        },
        {
          "indexed": false,
          "internalType": "uint256[]",
          "name": "ids",
          "type": "uint256[]"
        },
        {
          "indexed": false,
          "internalType": "uint256[]",
          "name": "values",
          "type": "uint256[]"
        }
      ],
      "name": "TransferBatch",
      "type": "event"
    },
    {
      "anonymous": false,
      "inputs": [
        {
          "indexed": true,
          "internalType": "address",
          "name": "operator",
          "type": "address"
        },
        {
          "indexed": true,
          "internalType": "address",
          "name": "from",
          "type": "address"
        },
        {
          "indexed": true,
          "internalType": "address",
          "name": "to",
          "type": "address"
        },
        {
          "indexed": false,
          "internalType": "uint256",
          "name": "id",
          "type": "uint256"
        },
        {
          "indexed": false,
          "internalType": "uint256",
          "name": "value",
          "type": "uint256"
        }
      ],
      "name": "TransferSingle",
      "type": "event"
    },
    {
      "anonymous": false,
      "inputs": [
        {
          "indexed": false,
          "internalType": "string",
          "name": "value",
          "type": "string"
        },
        {
          "indexed": true,
          "internalType": "uint256",
          "name": "id",
          "type": "uint256"
        }
      ],
      "name": "URI",
      "type": "event"
    },
    {
      "inputs": [
        {
          "internalType": "address",
          "name": "Fract",
          "type": "address"
        }
      ],
      "name": "approve",
      "outputs": [],
      "stateMutability": "nonpayable",
      "type": "function"
    },
    {
      "inputs": [
        {
          "internalType": "address",
          "name": "account",
          "type": "address"
        },
        {
          "internalType": "uint256",
          "name": "id",
          "type": "uint256"
        }
      ],
      "name": "balanceOf",
      "outputs": [
        {
          "internalType": "uint256",
          "name": "",
          "type": "uint256"
        }
      ],
      "stateMutability": "view",
      "type": "function"
    },
    {
      "inputs": [
        {
          "internalType": "address[]",
          "name": "accounts",
          "type": "address[]"
        },
        {
          "internalType": "uint256[]",
          "name": "ids",
          "type": "uint256[]"
        }
      ],
      "name": "balanceOfBatch",
      "outputs": [
        {
          "internalType": "uint256[]",
          "name": "",
          "type": "uint256[]"
        }
      ],
      "stateMutability": "view",
      "type": "function"
    },
    {
      "inputs": [
        {
          "internalType": "uint256",
          "name": "songId",
          "type": "uint256"
        }
      ],
      "name": "balanceOfSender",
      "outputs": [
        {
          "internalType": "uint256",
          "name": "",
          "type": "uint256"
        }
      ],
      "stateMutability": "view",
      "type": "function"
    },
    {
      "inputs": [
        {
          "internalType": "uint256",
          "name": "songId",
          "type": "uint256"
        }
      ],
      "name": "checkAndUnlist",
      "outputs": [],
      "stateMutability": "nonpayable",
      "type": "function"
    },
    {
      "inputs": [
        {
          "internalType": "uint256",
          "name": "",
          "type": "uint256"
        },
        {
          "internalType": "uint256",
          "name": "",
          "type": "uint256"
        }
      ],
      "name": "fractionHolders",
      "outputs": [
        {
          "internalType": "address",
          "name": "",
          "type": "address"
        }
      ],
      "stateMutability": "view",
      "type": "function"
    },
    {
      "inputs": [
        {
          "internalType": "uint256",
          "name": "",
          "type": "uint256"
        }
      ],
      "name": "fractionsSold",
      "outputs": [
        {
          "internalType": "uint256",
          "name": "",
          "type": "uint256"
        }
      ],
      "stateMutability": "view",
      "type": "function"
    },
    {
      "inputs": [],
      "name": "getCurrentBlockTimestamp",
      "outputs": [
        {
          "internalType": "uint256",
          "name": "",
          "type": "uint256"
        }
      ],
      "stateMutability": "view",
      "type": "function"
    },
    {
      "inputs": [
        {
          "internalType": "uint256",
          "name": "songId",
          "type": "uint256"
        }
      ],
      "name": "getFractionHolders",
      "outputs": [
        {
          "internalType": "address[]",
          "name": "",
          "type": "address[]"
        }
      ],
      "stateMutability": "view",
      "type": "function"
    },
    {
      "inputs": [
        {
          "internalType": "uint256",
          "name": "songId",
          "type": "uint256"
        }
      ],
      "name": "getSong",
      "outputs": [
        {
          "components": [
            {
              "internalType": "string",
              "name": "title",
              "type": "string"
            },
            {
              "internalType": "string",
              "name": "artistName",
              "type": "string"
            },
            {
              "internalType": "address",
              "name": "artistAddress",
              "type": "address"
            },
            {
              "internalType": "uint256",
              "name": "releaseTime",
              "type": "uint256"
            },
            {
              "internalType": "uint256",
              "name": "fractionPrice",
              "type": "uint256"
            },
            {
              "internalType": "uint256",
              "name": "totalFractions",
              "type": "uint256"
            },
            {
              "internalType": "bool",
              "name": "isReleased",
              "type": "bool"
            },
            {
              "internalType": "bool",
              "name": "isListed",
              "type": "bool"
            }
          ],
          "internalType": "struct SongFractionalized.Song",
          "name": "",
          "type": "tuple"
        }
      ],
      "stateMutability": "view",
      "type": "function"
    },
    {
      "inputs": [
        {
          "internalType": "address",
          "name": "account",
          "type": "address"
        },
        {
          "internalType": "address",
          "name": "operator",
          "type": "address"
        }
      ],
      "name": "isApprovedForAll",
      "outputs": [
        {
          "internalType": "bool",
          "name": "",
          "type": "bool"
        }
      ],
      "stateMutability": "view",
      "type": "function"
    },
    {
      "inputs": [
        {
          "internalType": "string",
          "name": "title",
          "type": "string"
        },
        {
          "internalType": "string",
          "name": "artistName",
          "type": "string"
        },
        {
          "internalType": "uint256",
          "name": "releaseTime",
          "type": "uint256"
        },
        {
          "internalType": "uint256",
          "name": "fractionPrice",
          "type": "uint256"
        },
        {
          "internalType": "uint256",
          "name": "totalFractions",
          "type": "uint256"
        }
      ],
      "name": "listSong",
      "outputs": [],
      "stateMutability": "nonpayable",
      "type": "function"
    },
    {
      "inputs": [],
      "name": "owner",
      "outputs": [
        {
          "internalType": "address",
          "name": "",
          "type": "address"
        }
      ],
      "stateMutability": "view",
      "type": "function"
    },
    {
      "inputs": [],
      "name": "renounceOwnership",
      "outputs": [],
      "stateMutability": "nonpayable",
      "type": "function"
    },
    {
      "inputs": [
        {
          "internalType": "address",
          "name": "from",
          "type": "address"
        },
        {
          "internalType": "address",
          "name": "to",
          "type": "address"
        },
        {
          "internalType": "uint256[]",
          "name": "ids",
          "type": "uint256[]"
        },
        {
          "internalType": "uint256[]",
          "name": "values",
          "type": "uint256[]"
        },
        {
          "internalType": "bytes",
          "name": "data",
          "type": "bytes"
        }
      ],
      "name": "safeBatchTransferFrom",
      "outputs": [],
      "stateMutability": "nonpayable",
      "type": "function"
    },
    {
      "inputs": [
        {
          "internalType": "address",
          "name": "from",
          "type": "address"
        },
        {
          "internalType": "address",
          "name": "to",
          "type": "address"
        },
        {
          "internalType": "uint256",
          "name": "id",
          "type": "uint256"
        },
        {
          "internalType": "uint256",
          "name": "value",
          "type": "uint256"
        },
        {
          "internalType": "bytes",
          "name": "data",
          "type": "bytes"
        }
      ],
      "name": "safeTransferFrom",
      "outputs": [],
      "stateMutability": "nonpayable",
      "type": "function"
    },
    {
      "inputs": [
        {
          "internalType": "address",
          "name": "operator",
          "type": "address"
        },
        {
          "internalType": "bool",
          "name": "approved",
          "type": "bool"
        }
      ],
      "name": "setApprovalForAll",
      "outputs": [],
      "stateMutability": "nonpayable",
      "type": "function"
    },
    {
      "inputs": [],
      "name": "songCounter",
      "outputs": [
        {
          "internalType": "uint256",
          "name": "",
          "type": "uint256"
        }
      ],
      "stateMutability": "view",
      "type": "function"
    },
    {
      "inputs": [
        {
          "internalType": "uint256",
          "name": "",
          "type": "uint256"
        }
      ],
      "name": "songs",
      "outputs": [
        {
          "internalType": "string",
          "name": "title",
          "type": "string"
        },
        {
          "internalType": "string",
          "name": "artistName",
          "type": "string"
        },
        {
          "internalType": "address",
          "name": "artistAddress",
          "type": "address"
        },
        {
          "internalType": "uint256",
          "name": "releaseTime",
          "type": "uint256"
        },
        {
          "internalType": "uint256",
          "name": "fractionPrice",
          "type": "uint256"
        },
        {
          "internalType": "uint256",
          "name": "totalFractions",
          "type": "uint256"
        },
        {
          "internalType": "bool",
          "name": "isReleased",
          "type": "bool"
        },
        {
          "internalType": "bool",
          "name": "isListed",
          "type": "bool"
        }
      ],
      "stateMutability": "view",
      "type": "function"
    },
    {
      "inputs": [
        {
          "internalType": "bytes4",
          "name": "interfaceId",
          "type": "bytes4"
        }
      ],
      "name": "supportsInterface",
      "outputs": [
        {
          "internalType": "bool",
          "name": "",
          "type": "bool"
        }
      ],
      "stateMutability": "view",
      "type": "function"
    },
    {
      "inputs": [
        {
          "internalType": "address",
          "name": "buyer",
          "type": "address"
        },
        {
          "internalType": "uint256",
          "name": "songId",
          "type": "uint256"
        },
        {
          "internalType": "uint256",
          "name": "amount",
          "type": "uint256"
        }
      ],
      "name": "transferFraction",
      "outputs": [],
      "stateMutability": "nonpayable",
      "type": "function"
    },
    {
      "inputs": [
        {
          "internalType": "address",
          "name": "newOwner",
          "type": "address"
        }
      ],
      "name": "transferOwnership",
      "outputs": [],
      "stateMutability": "nonpayable",
      "type": "function"
    },
    {
      "inputs": [
        {
          "internalType": "uint256",
          "name": "",
          "type": "uint256"
        }
      ],
      "name": "uri",
      "outputs": [
        {
          "internalType": "string",
          "name": "",
          "type": "string"
        }
      ],
      "stateMutability": "view",
      "type": "function"
    }
  ],
  "bytecode": "0x60806040523480156200001157600080fd5b50336040518060600160405280602a815260200162003b7b602a91396200003e81620000cc60201b60201c565b50600073ffffffffffffffffffffffffffffffffffffffff168173ffffffffffffffffffffffffffffffffffffffff1603620000b45760006040517f1e4fbdf7000000000000000000000000000000000000000000000000000000008152600401620000ab9190620001ec565b60405180910390fd5b620000c581620000e160201b60201c565b506200056a565b8060029081620000dd919062000483565b5050565b6000600360009054906101000a900473ffffffffffffffffffffffffffffffffffffffff16905081600360006101000a81548173ffffffffffffffffffffffffffffffffffffffff021916908373ffffffffffffffffffffffffffffffffffffffff1602179055508173ffffffffffffffffffffffffffffffffffffffff168173ffffffffffffffffffffffffffffffffffffffff167f8be0079c531659141344cd1fd0a4f28419497f9722a3daafe3b4186f6b6457e060405160405180910390a35050565b600073ffffffffffffffffffffffffffffffffffffffff82169050919050565b6000620001d482620001a7565b9050919050565b620001e681620001c7565b82525050565b6000602082019050620002036000830184620001db565b92915050565b600081519050919050565b7f4e487b7100000000000000000000000000000000000000000000000000000000600052604160045260246000fd5b7f4e487b7100000000000000000000000000000000000000000000000000000000600052602260045260246000fd5b600060028204905060018216806200028b57607f821691505b602082108103620002a157620002a062000243565b5b50919050565b60008190508160005260206000209050919050565b60006020601f8301049050919050565b600082821b905092915050565b6000600883026200030b7fffffffffffffffffffffffffffffffffffffffffffffffffffffffffffffffff82620002cc565b620003178683620002cc565b95508019841693508086168417925050509392505050565b6000819050919050565b6000819050919050565b6000620003646200035e62000358846200032f565b62000339565b6200032f565b9050919050565b6000819050919050565b620003808362000343565b620003986200038f826200036b565b848454620002d9565b825550505050565b600090565b620003af620003a0565b620003bc81848462000375565b505050565b5b81811015620003e457620003d8600082620003a5565b600181019050620003c2565b5050565b601f8211156200043357620003fd81620002a7565b6200040884620002bc565b8101602085101562000418578190505b620004306200042785620002bc565b830182620003c1565b50505b505050565b600082821c905092915050565b6000620004586000198460080262000438565b1980831691505092915050565b600062000473838362000445565b9150826002028217905092915050565b6200048e8262000209565b67ffffffffffffffff811115620004aa57620004a962000214565b5b620004b6825462000272565b620004c3828285620003e8565b600060209050601f831160018114620004fb5760008415620004e6578287015190505b620004f2858262000465565b86555062000562565b601f1984166200050b86620002a7565b60005b8281101562000535578489015182556001820191506020850194506020810190506200050e565b8683101562000555578489015162000551601f89168262000445565b8355505b6001600288020188555050505b505050505050565b613601806200057a6000396000f3fe608060405234801561001057600080fd5b506004361061014c5760003560e01c80634e1273f4116100c3578063ca6f5ef11161007c578063ca6f5ef1146103f0578063daea85c51461040c578063e985e9c514610428578063f242432a14610458578063f2fde38b14610474578063f7cf520b146104905761014c565b80634e1273f41461031c578063715018a61461034c5780638da5cb5b146103565780639fb2047714610374578063a22cb465146103a4578063c6ef551e146103c05761014c565b80632147598011610115578063214759801461021b5780632eb2c2d61461024b578063304cff3014610267578063370941791461029e57806342acaa66146102ce5780634bd4d59e146102fe5761014c565b8062fdd58e1461015157806301ffc9a71461018157806306625e8a146101b15780630e89341c146101cd5780630f28c97d146101fd575b600080fd5b61016b6004803603810190610166919061220a565b6104ac565b6040516101789190612259565b60405180910390f35b61019b600480360381019061019691906122cc565b610506565b6040516101a89190612314565b60405180910390f35b6101cb60048036038101906101c6919061232f565b6105e8565b005b6101e760048036038101906101e29190612382565b6107cb565b6040516101f4919061243f565b60405180910390f35b61020561085f565b6040516102129190612259565b60405180910390f35b61023560048036038101906102309190612461565b610867565b60405161024291906124b0565b60405180910390f35b610265600480360381019061026091906126c8565b6108b5565b005b610281600480360381019061027c9190612382565b61095d565b604051610295989796959493929190612797565b60405180910390f35b6102b860048036038101906102b39190612382565b610aef565b6040516102c59190612259565b60405180910390f35b6102e860048036038101906102e39190612382565b610b07565b6040516102f59190612951565b60405180910390f35b610306610d03565b6040516103139190612259565b60405180910390f35b61033660048036038101906103319190612a36565b610d09565b6040516103439190612b5d565b60405180910390f35b610354610e18565b005b61035e610e2c565b60405161036b91906124b0565b60405180910390f35b61038e60048036038101906103899190612382565b610e56565b60405161039b9190612259565b60405180910390f35b6103be60048036038101906103b99190612bab565b610e69565b005b6103da60048036038101906103d59190612382565b610e7f565b6040516103e79190612c9a565b60405180910390f35b61040a60048036038101906104059190612d5d565b610f20565b005b61042660048036038101906104219190612e10565b61109b565b005b610442600480360381019061043d9190612e3d565b6110b1565b60405161044f9190612314565b60405180910390f35b610472600480360381019061046d9190612e7d565b611145565b005b61048e60048036038101906104899190612e10565b6111ed565b005b6104aa60048036038101906104a59190612382565b611273565b005b600080600083815260200190815260200160002060008473ffffffffffffffffffffffffffffffffffffffff1673ffffffffffffffffffffffffffffffffffffffff16815260200190815260200160002054905092915050565b60007fd9b67a26000000000000000000000000000000000000000000000000000000007bffffffffffffffffffffffffffffffffffffffffffffffffffffffff1916827bffffffffffffffffffffffffffffffffffffffffffffffffffffffff191614806105d157507f0e89341c000000000000000000000000000000000000000000000000000000007bffffffffffffffffffffffffffffffffffffffffffffffffffffffff1916827bffffffffffffffffffffffffffffffffffffffffffffffffffffffff1916145b806105e157506105e082611318565b5b9050919050565b6105f182611273565b6004600083815260200190815260200160002060060160019054906101000a900460ff16610654576040517f08c379a000000000000000000000000000000000000000000000000000000000815260040161064b90612f60565b60405180910390fd5b806106956004600085815260200190815260200160002060020160009054906101000a900473ffffffffffffffffffffffffffffffffffffffff16846104ac565b10156106d6576040517f08c379a00000000000000000000000000000000000000000000000000000000081526004016106cd90612fcc565b60405180910390fd5b6107286004600084815260200190815260200160002060020160009054906101000a900473ffffffffffffffffffffffffffffffffffffffff1684848460405180602001604052806000815250611145565b8060056000848152602001908152602001600020600082825461074b919061301b565b9250508190555060066000838152602001908152602001600020839080600181540180825580915050600190039060005260206000200160009091909190916101000a81548173ffffffffffffffffffffffffffffffffffffffff021916908373ffffffffffffffffffffffffffffffffffffffff160217905550505050565b6060600280546107da9061307e565b80601f01602080910402602001604051908101604052809291908181526020018280546108069061307e565b80156108535780601f1061082857610100808354040283529160200191610853565b820191906000526020600020905b81548152906001019060200180831161083657829003601f168201915b50505050509050919050565b600042905090565b6006602052816000526040600020818154811061088357600080fd5b906000526020600020016000915091509054906101000a900473ffffffffffffffffffffffffffffffffffffffff1681565b60006108bf611382565b90508073ffffffffffffffffffffffffffffffffffffffff168673ffffffffffffffffffffffffffffffffffffffff1614158015610904575061090286826110b1565b155b156109485780866040517fe237d92200000000000000000000000000000000000000000000000000000000815260040161093f9291906130af565b60405180910390fd5b610955868686868661138a565b505050505050565b60046020528060005260406000206000915090508060000180546109809061307e565b80601f01602080910402602001604051908101604052809291908181526020018280546109ac9061307e565b80156109f95780601f106109ce576101008083540402835291602001916109f9565b820191906000526020600020905b8154815290600101906020018083116109dc57829003601f168201915b505050505090806001018054610a0e9061307e565b80601f0160208091040260200160405190810160405280929190818152602001828054610a3a9061307e565b8015610a875780601f10610a5c57610100808354040283529160200191610a87565b820191906000526020600020905b815481529060010190602001808311610a6a57829003601f168201915b5050505050908060020160009054906101000a900473ffffffffffffffffffffffffffffffffffffffff16908060030154908060040154908060050154908060060160009054906101000a900460ff16908060060160019054906101000a900460ff16905088565b60056020528060005260406000206000915090505481565b610b0f612103565b6004600083815260200190815260200160002060405180610100016040529081600082018054610b3e9061307e565b80601f0160208091040260200160405190810160405280929190818152602001828054610b6a9061307e565b8015610bb75780601f10610b8c57610100808354040283529160200191610bb7565b820191906000526020600020905b815481529060010190602001808311610b9a57829003601f168201915b50505050508152602001600182018054610bd09061307e565b80601f0160208091040260200160405190810160405280929190818152602001828054610bfc9061307e565b8015610c495780601f10610c1e57610100808354040283529160200191610c49565b820191906000526020600020905b815481529060010190602001808311610c2c57829003601f168201915b505050505081526020016002820160009054906101000a900473ffffffffffffffffffffffffffffffffffffffff1673ffffffffffffffffffffffffffffffffffffffff1673ffffffffffffffffffffffffffffffffffffffff1681526020016003820154815260200160048201548152602001600582015481526020016006820160009054906101000a900460ff161515151581526020016006820160019054906101000a900460ff1615151515815250509050919050565b60075481565b60608151835114610d5557815183516040517f5b059991000000000000000000000000000000000000000000000000000000008152600401610d4c9291906130d8565b60405180910390fd5b6000835167ffffffffffffffff811115610d7257610d716124d0565b5b604051908082528060200260200182016040528015610da05781602001602082028036833780820191505090505b50905060005b8451811015610e0d57610ddd610dc5828761148290919063ffffffff16565b610dd8838761149690919063ffffffff16565b6104ac565b828281518110610df057610def613101565b5b60200260200101818152505080610e0690613130565b9050610da6565b508091505092915050565b610e206114aa565b610e2a6000611531565b565b6000600360009054906101000a900473ffffffffffffffffffffffffffffffffffffffff16905090565b6000610e6233836104ac565b9050919050565b610e7b610e74611382565b83836115f7565b5050565b606060066000838152602001908152602001600020805480602002602001604051908101604052809291908181526020018280548015610f1457602002820191906000526020600020905b8160009054906101000a900473ffffffffffffffffffffffffffffffffffffffff1673ffffffffffffffffffffffffffffffffffffffff1681526020019060010190808311610eca575b50505050509050919050565b60076000815480929190610f3390613130565b91905055506040518061010001604052808681526020018581526020013373ffffffffffffffffffffffffffffffffffffffff168152602001848152602001838152602001828152602001600015158152602001600115158152506004600060075481526020019081526020016000206000820151816000019081610fb89190613324565b506020820151816001019081610fce9190613324565b5060408201518160020160006101000a81548173ffffffffffffffffffffffffffffffffffffffff021916908373ffffffffffffffffffffffffffffffffffffffff160217905550606082015181600301556080820151816004015560a0820151816005015560c08201518160060160006101000a81548160ff02191690831515021790555060e08201518160060160016101000a81548160ff021916908315150217905550905050611094336007548360405180602001604052806000815250611767565b5050505050565b6110a36114aa565b6110ae816001610e69565b50565b6000600160008473ffffffffffffffffffffffffffffffffffffffff1673ffffffffffffffffffffffffffffffffffffffff16815260200190815260200160002060008373ffffffffffffffffffffffffffffffffffffffff1673ffffffffffffffffffffffffffffffffffffffff16815260200190815260200160002060009054906101000a900460ff16905092915050565b600061114f611382565b90508073ffffffffffffffffffffffffffffffffffffffff168673ffffffffffffffffffffffffffffffffffffffff1614158015611194575061119286826110b1565b155b156111d85780866040517fe237d9220000000000000000000000000000000000000000000000000000000081526004016111cf9291906130af565b60405180910390fd5b6111e58686868686611800565b505050505050565b6111f56114aa565b600073ffffffffffffffffffffffffffffffffffffffff168173ffffffffffffffffffffffffffffffffffffffff16036112675760006040517f1e4fbdf700000000000000000000000000000000000000000000000000000000815260040161125e91906124b0565b60405180910390fd5b61127081611531565b50565b6000600460008381526020019081526020016000209050806003015442101580156112ad57508060060160009054906101000a900460ff16155b156112d05760018160060160006101000a81548160ff0219169083151502179055505b8060030154421180156112f157508060060160019054906101000a900460ff165b156113145760008160060160016101000a81548160ff0219169083151502179055505b5050565b60007f01ffc9a7000000000000000000000000000000000000000000000000000000007bffffffffffffffffffffffffffffffffffffffffffffffffffffffff1916827bffffffffffffffffffffffffffffffffffffffffffffffffffffffff1916149050919050565b600033905090565b600073ffffffffffffffffffffffffffffffffffffffff168473ffffffffffffffffffffffffffffffffffffffff16036113fc5760006040517f57f447ce0000000000000000000000000000000000000000000000000000000081526004016113f391906124b0565b60405180910390fd5b600073ffffffffffffffffffffffffffffffffffffffff168573ffffffffffffffffffffffffffffffffffffffff160361146e5760006040517f01a8351400000000000000000000000000000000000000000000000000000000815260040161146591906124b0565b60405180910390fd5b61147b858585858561190b565b5050505050565b600060208202602084010151905092915050565b600060208202602084010151905092915050565b6114b2611382565b73ffffffffffffffffffffffffffffffffffffffff166114d0610e2c565b73ffffffffffffffffffffffffffffffffffffffff161461152f576114f3611382565b6040517f118cdaa700000000000000000000000000000000000000000000000000000000815260040161152691906124b0565b60405180910390fd5b565b6000600360009054906101000a900473ffffffffffffffffffffffffffffffffffffffff16905081600360006101000a81548173ffffffffffffffffffffffffffffffffffffffff021916908373ffffffffffffffffffffffffffffffffffffffff1602179055508173ffffffffffffffffffffffffffffffffffffffff168173ffffffffffffffffffffffffffffffffffffffff167f8be0079c531659141344cd1fd0a4f28419497f9722a3daafe3b4186f6b6457e060405160405180910390a35050565b600073ffffffffffffffffffffffffffffffffffffffff168273ffffffffffffffffffffffffffffffffffffffff16036116695760006040517fced3e10000000000000000000000000000000000000000000000000000000000815260040161166091906124b0565b60405180910390fd5b80600160008573ffffffffffffffffffffffffffffffffffffffff1673ffffffffffffffffffffffffffffffffffffffff16815260200190815260200160002060008473ffffffffffffffffffffffffffffffffffffffff1673ffffffffffffffffffffffffffffffffffffffff16815260200190815260200160002060006101000a81548160ff0219169083151502179055508173ffffffffffffffffffffffffffffffffffffffff168373ffffffffffffffffffffffffffffffffffffffff167f17307eab39ab6107e8899845ad3d59bd9653f200f220920489ca2b5937696c318360405161175a9190612314565b60405180910390a3505050565b600073ffffffffffffffffffffffffffffffffffffffff168473ffffffffffffffffffffffffffffffffffffffff16036117d95760006040517f57f447ce0000000000000000000000000000000000000000000000000000000081526004016117d091906124b0565b60405180910390fd5b6000806117e685856119bd565b915091506117f860008784848761190b565b505050505050565b600073ffffffffffffffffffffffffffffffffffffffff168473ffffffffffffffffffffffffffffffffffffffff16036118725760006040517f57f447ce00000000000000000000000000000000000000000000000000000000815260040161186991906124b0565b60405180910390fd5b600073ffffffffffffffffffffffffffffffffffffffff168573ffffffffffffffffffffffffffffffffffffffff16036118e45760006040517f01a835140000000000000000000000000000000000000000000000000000000081526004016118db91906124b0565b60405180910390fd5b6000806118f185856119bd565b91509150611902878784848761190b565b50505050505050565b611917858585856119ed565b600073ffffffffffffffffffffffffffffffffffffffff168473ffffffffffffffffffffffffffffffffffffffff16146119b6576000611955611382565b905060018451036119a557600061197660008661149690919063ffffffff16565b9050600061198e60008661149690919063ffffffff16565b905061199e838989858589611d9b565b50506119b4565b6119b3818787878787611f4f565b5b505b5050505050565b60608060405191506001825283602083015260408201905060018152826020820152604081016040529250929050565b8051825114611a3757815181516040517f5b059991000000000000000000000000000000000000000000000000000000008152600401611a2e9291906130d8565b60405180910390fd5b6000611a41611382565b905060005b8351811015611c56576000611a64828661149690919063ffffffff16565b90506000611a7b838661149690919063ffffffff16565b9050600073ffffffffffffffffffffffffffffffffffffffff168873ffffffffffffffffffffffffffffffffffffffff1614611ba857600080600084815260200190815260200160002060008a73ffffffffffffffffffffffffffffffffffffffff1673ffffffffffffffffffffffffffffffffffffffff16815260200190815260200160002054905081811015611b5057888183856040517f03dee4c5000000000000000000000000000000000000000000000000000000008152600401611b4794939291906133f6565b60405180910390fd5b81810360008085815260200190815260200160002060008b73ffffffffffffffffffffffffffffffffffffffff1673ffffffffffffffffffffffffffffffffffffffff16815260200190815260200160002081905550505b600073ffffffffffffffffffffffffffffffffffffffff168773ffffffffffffffffffffffffffffffffffffffff1614611c43578060008084815260200190815260200160002060008973ffffffffffffffffffffffffffffffffffffffff1673ffffffffffffffffffffffffffffffffffffffff1681526020019081526020016000206000828254611c3b919061301b565b925050819055505b505080611c4f90613130565b9050611a46565b506001835103611d15576000611c7660008561149690919063ffffffff16565b90506000611c8e60008561149690919063ffffffff16565b90508573ffffffffffffffffffffffffffffffffffffffff168773ffffffffffffffffffffffffffffffffffffffff168473ffffffffffffffffffffffffffffffffffffffff167fc3d58168c5ae7397731d063d5bbf3d657854427343f4c083240f7aacaa2d0f628585604051611d069291906130d8565b60405180910390a45050611d94565b8373ffffffffffffffffffffffffffffffffffffffff168573ffffffffffffffffffffffffffffffffffffffff168273ffffffffffffffffffffffffffffffffffffffff167f4a39dc06d4c0dbc64b70af90fd698a233a518aa5d07e595d983b8c0526c8f7fb8686604051611d8b92919061343b565b60405180910390a45b5050505050565b60008473ffffffffffffffffffffffffffffffffffffffff163b1115611f47578373ffffffffffffffffffffffffffffffffffffffff1663f23a6e6187878686866040518663ffffffff1660e01b8152600401611dfc9594939291906134c7565b6020604051808303816000875af1925050508015611e3857506040513d601f19601f82011682018060405250810190611e359190613536565b60015b611ebc573d8060008114611e68576040519150601f19603f3d011682016040523d82523d6000602084013e611e6d565b606091505b506000815103611eb457846040517f57f447ce000000000000000000000000000000000000000000000000000000008152600401611eab91906124b0565b60405180910390fd5b805181602001fd5b63f23a6e6160e01b7bffffffffffffffffffffffffffffffffffffffffffffffffffffffff1916817bffffffffffffffffffffffffffffffffffffffffffffffffffffffff191614611f4557846040517f57f447ce000000000000000000000000000000000000000000000000000000008152600401611f3c91906124b0565b60405180910390fd5b505b505050505050565b60008473ffffffffffffffffffffffffffffffffffffffff163b11156120fb578373ffffffffffffffffffffffffffffffffffffffff1663bc197c8187878686866040518663ffffffff1660e01b8152600401611fb0959493929190613563565b6020604051808303816000875af1925050508015611fec57506040513d601f19601f82011682018060405250810190611fe99190613536565b60015b612070573d806000811461201c576040519150601f19603f3d011682016040523d82523d6000602084013e612021565b606091505b50600081510361206857846040517f57f447ce00000000000000000000000000000000000000000000000000000000815260040161205f91906124b0565b60405180910390fd5b805181602001fd5b63bc197c8160e01b7bffffffffffffffffffffffffffffffffffffffffffffffffffffffff1916817bffffffffffffffffffffffffffffffffffffffffffffffffffffffff1916146120f957846040517f57f447ce0000000000000000000000000000000000000000000000000000000081526004016120f091906124b0565b60405180910390fd5b505b505050505050565b6040518061010001604052806060815260200160608152602001600073ffffffffffffffffffffffffffffffffffffffff1681526020016000815260200160008152602001600081526020016000151581526020016000151581525090565b6000604051905090565b600080fd5b600080fd5b600073ffffffffffffffffffffffffffffffffffffffff82169050919050565b60006121a182612176565b9050919050565b6121b181612196565b81146121bc57600080fd5b50565b6000813590506121ce816121a8565b92915050565b6000819050919050565b6121e7816121d4565b81146121f257600080fd5b50565b600081359050612204816121de565b92915050565b600080604083850312156122215761222061216c565b5b600061222f858286016121bf565b9250506020612240858286016121f5565b9150509250929050565b612253816121d4565b82525050565b600060208201905061226e600083018461224a565b92915050565b60007fffffffff0000000000000000000000000000000000000000000000000000000082169050919050565b6122a981612274565b81146122b457600080fd5b50565b6000813590506122c6816122a0565b92915050565b6000602082840312156122e2576122e161216c565b5b60006122f0848285016122b7565b91505092915050565b60008115159050919050565b61230e816122f9565b82525050565b60006020820190506123296000830184612305565b92915050565b6000806000606084860312156123485761234761216c565b5b6000612356868287016121bf565b9350506020612367868287016121f5565b9250506040612378868287016121f5565b9150509250925092565b6000602082840312156123985761239761216c565b5b60006123a6848285016121f5565b91505092915050565b600081519050919050565b600082825260208201905092915050565b60005b838110156123e95780820151818401526020810190506123ce565b60008484015250505050565b6000601f19601f8301169050919050565b6000612411826123af565b61241b81856123ba565b935061242b8185602086016123cb565b612434816123f5565b840191505092915050565b600060208201905081810360008301526124598184612406565b905092915050565b600080604083850312156124785761247761216c565b5b6000612486858286016121f5565b9250506020612497858286016121f5565b9150509250929050565b6124aa81612196565b82525050565b60006020820190506124c560008301846124a1565b92915050565b600080fd5b7f4e487b7100000000000000000000000000000000000000000000000000000000600052604160045260246000fd5b612508826123f5565b810181811067ffffffffffffffff82111715612527576125266124d0565b5b80604052505050565b600061253a612162565b905061254682826124ff565b919050565b600067ffffffffffffffff821115612566576125656124d0565b5b602082029050602081019050919050565b600080fd5b600061258f61258a8461254b565b612530565b905080838252602082019050602084028301858111156125b2576125b1612577565b5b835b818110156125db57806125c788826121f5565b8452602084019350506020810190506125b4565b5050509392505050565b600082601f8301126125fa576125f96124cb565b5b813561260a84826020860161257c565b91505092915050565b600080fd5b600067ffffffffffffffff821115612633576126326124d0565b5b61263c826123f5565b9050602081019050919050565b82818337600083830152505050565b600061266b61266684612618565b612530565b90508281526020810184848401111561268757612686612613565b5b612692848285612649565b509392505050565b600082601f8301126126af576126ae6124cb565b5b81356126bf848260208601612658565b91505092915050565b600080600080600060a086880312156126e4576126e361216c565b5b60006126f2888289016121bf565b9550506020612703888289016121bf565b945050604086013567ffffffffffffffff81111561272457612723612171565b5b612730888289016125e5565b935050606086013567ffffffffffffffff81111561275157612750612171565b5b61275d888289016125e5565b925050608086013567ffffffffffffffff81111561277e5761277d612171565b5b61278a8882890161269a565b9150509295509295909350565b60006101008201905081810360008301526127b2818b612406565b905081810360208301526127c6818a612406565b90506127d560408301896124a1565b6127e2606083018861224a565b6127ef608083018761224a565b6127fc60a083018661224a565b61280960c0830185612305565b61281660e0830184612305565b9998505050505050505050565b600082825260208201905092915050565b600061283f826123af565b6128498185612823565b93506128598185602086016123cb565b612862816123f5565b840191505092915050565b61287681612196565b82525050565b612885816121d4565b82525050565b612894816122f9565b82525050565b60006101008301600083015184820360008601526128b88282612834565b915050602083015184820360208601526128d28282612834565b91505060408301516128e7604086018261286d565b5060608301516128fa606086018261287c565b50608083015161290d608086018261287c565b5060a083015161292060a086018261287c565b5060c083015161293360c086018261288b565b5060e083015161294660e086018261288b565b508091505092915050565b6000602082019050818103600083015261296b818461289a565b905092915050565b600067ffffffffffffffff82111561298e5761298d6124d0565b5b602082029050602081019050919050565b60006129b26129ad84612973565b612530565b905080838252602082019050602084028301858111156129d5576129d4612577565b5b835b818110156129fe57806129ea88826121bf565b8452602084019350506020810190506129d7565b5050509392505050565b600082601f830112612a1d57612a1c6124cb565b5b8135612a2d84826020860161299f565b91505092915050565b60008060408385031215612a4d57612a4c61216c565b5b600083013567ffffffffffffffff811115612a6b57612a6a612171565b5b612a7785828601612a08565b925050602083013567ffffffffffffffff811115612a9857612a97612171565b5b612aa4858286016125e5565b9150509250929050565b600081519050919050565b600082825260208201905092915050565b6000819050602082019050919050565b6000612ae6838361287c565b60208301905092915050565b6000602082019050919050565b6000612b0a82612aae565b612b148185612ab9565b9350612b1f83612aca565b8060005b83811015612b50578151612b378882612ada565b9750612b4283612af2565b925050600181019050612b23565b5085935050505092915050565b60006020820190508181036000830152612b778184612aff565b905092915050565b612b88816122f9565b8114612b9357600080fd5b50565b600081359050612ba581612b7f565b92915050565b60008060408385031215612bc257612bc161216c565b5b6000612bd0858286016121bf565b9250506020612be185828601612b96565b9150509250929050565b600081519050919050565b600082825260208201905092915050565b6000819050602082019050919050565b6000612c23838361286d565b60208301905092915050565b6000602082019050919050565b6000612c4782612beb565b612c518185612bf6565b9350612c5c83612c07565b8060005b83811015612c8d578151612c748882612c17565b9750612c7f83612c2f565b925050600181019050612c60565b5085935050505092915050565b60006020820190508181036000830152612cb48184612c3c565b905092915050565b600067ffffffffffffffff821115612cd757612cd66124d0565b5b612ce0826123f5565b9050602081019050919050565b6000612d00612cfb84612cbc565b612530565b905082815260208101848484011115612d1c57612d1b612613565b5b612d27848285612649565b509392505050565b600082601f830112612d4457612d436124cb565b5b8135612d54848260208601612ced565b91505092915050565b600080600080600060a08688031215612d7957612d7861216c565b5b600086013567ffffffffffffffff811115612d9757612d96612171565b5b612da388828901612d2f565b955050602086013567ffffffffffffffff811115612dc457612dc3612171565b5b612dd088828901612d2f565b9450506040612de1888289016121f5565b9350506060612df2888289016121f5565b9250506080612e03888289016121f5565b9150509295509295909350565b600060208284031215612e2657612e2561216c565b5b6000612e34848285016121bf565b91505092915050565b60008060408385031215612e5457612e5361216c565b5b6000612e62858286016121bf565b9250506020612e73858286016121bf565b9150509250929050565b600080600080600060a08688031215612e9957612e9861216c565b5b6000612ea7888289016121bf565b9550506020612eb8888289016121bf565b9450506040612ec9888289016121f5565b9350506060612eda888289016121f5565b925050608086013567ffffffffffffffff811115612efb57612efa612171565b5b612f078882890161269a565b9150509295509295909350565b7f536f6e67206973206e6f74206c69737465640000000000000000000000000000600082015250565b6000612f4a6012836123ba565b9150612f5582612f14565b602082019050919050565b60006020820190508181036000830152612f7981612f3d565b9050919050565b7f496e73756666696369656e74206672616374696f6e7300000000000000000000600082015250565b6000612fb66016836123ba565b9150612fc182612f80565b602082019050919050565b60006020820190508181036000830152612fe581612fa9565b9050919050565b7f4e487b7100000000000000000000000000000000000000000000000000000000600052601160045260246000fd5b6000613026826121d4565b9150613031836121d4565b925082820190508082111561304957613048612fec565b5b92915050565b7f4e487b7100000000000000000000000000000000000000000000000000000000600052602260045260246000fd5b6000600282049050600182168061309657607f821691505b6020821081036130a9576130a861304f565b5b50919050565b60006040820190506130c460008301856124a1565b6130d160208301846124a1565b9392505050565b60006040820190506130ed600083018561224a565b6130fa602083018461224a565b9392505050565b7f4e487b7100000000000000000000000000000000000000000000000000000000600052603260045260246000fd5b600061313b826121d4565b91507fffffffffffffffffffffffffffffffffffffffffffffffffffffffffffffffff820361316d5761316c612fec565b5b600182019050919050565b60008190508160005260206000209050919050565b60006020601f8301049050919050565b600082821b905092915050565b6000600883026131da7fffffffffffffffffffffffffffffffffffffffffffffffffffffffffffffffff8261319d565b6131e4868361319d565b95508019841693508086168417925050509392505050565b6000819050919050565b600061322161321c613217846121d4565b6131fc565b6121d4565b9050919050565b6000819050919050565b61323b83613206565b61324f61324782613228565b8484546131aa565b825550505050565b600090565b613264613257565b61326f818484613232565b505050565b5b818110156132935761328860008261325c565b600181019050613275565b5050565b601f8211156132d8576132a981613178565b6132b28461318d565b810160208510156132c1578190505b6132d56132cd8561318d565b830182613274565b50505b505050565b600082821c905092915050565b60006132fb600019846008026132dd565b1980831691505092915050565b600061331483836132ea565b9150826002028217905092915050565b61332d826123af565b67ffffffffffffffff811115613346576133456124d0565b5b613350825461307e565b61335b828285613297565b600060209050601f83116001811461338e576000841561337c578287015190505b6133868582613308565b8655506133ee565b601f19841661339c86613178565b60005b828110156133c45784890151825560018201915060208501945060208101905061339f565b868310156133e157848901516133dd601f8916826132ea565b8355505b6001600288020188555050505b505050505050565b600060808201905061340b60008301876124a1565b613418602083018661224a565b613425604083018561224a565b613432606083018461224a565b95945050505050565b600060408201905081810360008301526134558185612aff565b905081810360208301526134698184612aff565b90509392505050565b600081519050919050565b600082825260208201905092915050565b600061349982613472565b6134a3818561347d565b93506134b38185602086016123cb565b6134bc816123f5565b840191505092915050565b600060a0820190506134dc60008301886124a1565b6134e960208301876124a1565b6134f6604083018661224a565b613503606083018561224a565b8181036080830152613515818461348e565b90509695505050505050565b600081519050613530816122a0565b92915050565b60006020828403121561354c5761354b61216c565b5b600061355a84828501613521565b91505092915050565b600060a08201905061357860008301886124a1565b61358560208301876124a1565b81810360408301526135978186612aff565b905081810360608301526135ab8185612aff565b905081810360808301526135bf818461348e565b9050969550505050505056fea2646970667358221220c932d8b474aad1fb120e47970dbb20b87a3454ad2da466ad0843744b3c19874e64736f6c6343000814003368747470733a2f2f6170692e6578616d706c652e636f6d2f6d657461646174612f7b69647d2e6a736f6e",
  "linkReferences": {},
  "deployedLinkReferences": {}
}