{
  "_format": "hh-sol-artifact-1",
  "contractName": "SongFractionalized",
  "sourceName": "contracts/SongFractionalized.sol",
  "abi": [
    {
      "inputs": [],
      "stateMutability": "nonpayable",
      "type": "constructor"
    },
    {
      "inputs": [
        {
          "internalType": "address",
          "name": "sender",
          "type": "address"
        },
        {
          "internalType": "uint256",
          "name": "balance",
          "type": "uint256"
        },
        {
          "internalType": "uint256",
          "name": "needed",
          "type": "uint256"
        },
        {
          "internalType": "uint256",
          "name": "tokenId",
          "type": "uint256"
        }
      ],
      "name": "ERC1155InsufficientBalance",
      "type": "error"
    },
    {
      "inputs": [
        {
          "internalType": "address",
          "name": "approver",
          "type": "address"
        }
      ],
      "name": "ERC1155InvalidApprover",
      "type": "error"
    },
    {
      "inputs": [
        {
          "internalType": "uint256",
          "name": "idsLength",
          "type": "uint256"
        },
        {
          "internalType": "uint256",
          "name": "valuesLength",
          "type": "uint256"
        }
      ],
      "name": "ERC1155InvalidArrayLength",
      "type": "error"
    },
    {
      "inputs": [
        {
          "internalType": "address",
          "name": "operator",
          "type": "address"
        }
      ],
      "name": "ERC1155InvalidOperator",
      "type": "error"
    },
    {
      "inputs": [
        {
          "internalType": "address",
          "name": "receiver",
          "type": "address"
        }
      ],
      "name": "ERC1155InvalidReceiver",
      "type": "error"
    },
    {
      "inputs": [
        {
          "internalType": "address",
          "name": "sender",
          "type": "address"
        }
      ],
      "name": "ERC1155InvalidSender",
      "type": "error"
    },
    {
      "inputs": [
        {
          "internalType": "address",
          "name": "operator",
          "type": "address"
        },
        {
          "internalType": "address",
          "name": "owner",
          "type": "address"
        }
      ],
      "name": "ERC1155MissingApprovalForAll",
      "type": "error"
    },
    {
      "inputs": [
        {
          "internalType": "address",
          "name": "owner",
          "type": "address"
        }
      ],
      "name": "OwnableInvalidOwner",
      "type": "error"
    },
    {
      "inputs": [
        {
          "internalType": "address",
          "name": "account",
          "type": "address"
        }
      ],
      "name": "OwnableUnauthorizedAccount",
      "type": "error"
    },
    {
      "anonymous": false,
      "inputs": [
        {
          "indexed": true,
          "internalType": "address",
          "name": "account",
          "type": "address"
        },
        {
          "indexed": true,
          "internalType": "address",
          "name": "operator",
          "type": "address"
        },
        {
          "indexed": false,
          "internalType": "bool",
          "name": "approved",
          "type": "bool"
        }
      ],
      "name": "ApprovalForAll",
      "type": "event"
    },
    {
      "anonymous": false,
      "inputs": [
        {
          "indexed": true,
          "internalType": "address",
          "name": "previousOwner",
          "type": "address"
        },
        {
          "indexed": true,
          "internalType": "address",
          "name": "newOwner",
          "type": "address"
        }
      ],
      "name": "OwnershipTransferred",
      "type": "event"
    },
    {
      "anonymous": false,
      "inputs": [
        {
          "indexed": true,
          "internalType": "address",
          "name": "operator",
          "type": "address"
        },
        {
          "indexed": true,
          "internalType": "address",
          "name": "from",
          "type": "address"
        },
        {
          "indexed": true,
          "internalType": "address",
          "name": "to",
          "type": "address"
        },
        {
          "indexed": false,
          "internalType": "uint256[]",
          "name": "ids",
          "type": "uint256[]"
        },
        {
          "indexed": false,
          "internalType": "uint256[]",
          "name": "values",
          "type": "uint256[]"
        }
      ],
      "name": "TransferBatch",
      "type": "event"
    },
    {
      "anonymous": false,
      "inputs": [
        {
          "indexed": true,
          "internalType": "address",
          "name": "operator",
          "type": "address"
        },
        {
          "indexed": true,
          "internalType": "address",
          "name": "from",
          "type": "address"
        },
        {
          "indexed": true,
          "internalType": "address",
          "name": "to",
          "type": "address"
        },
        {
          "indexed": false,
          "internalType": "uint256",
          "name": "id",
          "type": "uint256"
        },
        {
          "indexed": false,
          "internalType": "uint256",
          "name": "value",
          "type": "uint256"
        }
      ],
      "name": "TransferSingle",
      "type": "event"
    },
    {
      "anonymous": false,
      "inputs": [
        {
          "indexed": false,
          "internalType": "string",
          "name": "value",
          "type": "string"
        },
        {
          "indexed": true,
          "internalType": "uint256",
          "name": "id",
          "type": "uint256"
        }
      ],
      "name": "URI",
      "type": "event"
    },
    {
      "inputs": [
        {
          "internalType": "address",
          "name": "Fract",
          "type": "address"
        }
      ],
      "name": "approve",
      "outputs": [],
      "stateMutability": "nonpayable",
      "type": "function"
    },
    {
      "inputs": [
        {
          "internalType": "address",
          "name": "account",
          "type": "address"
        },
        {
          "internalType": "uint256",
          "name": "id",
          "type": "uint256"
        }
      ],
      "name": "balanceOf",
      "outputs": [
        {
          "internalType": "uint256",
          "name": "",
          "type": "uint256"
        }
      ],
      "stateMutability": "view",
      "type": "function"
    },
    {
      "inputs": [
        {
          "internalType": "address[]",
          "name": "accounts",
          "type": "address[]"
        },
        {
          "internalType": "uint256[]",
          "name": "ids",
          "type": "uint256[]"
        }
      ],
      "name": "balanceOfBatch",
      "outputs": [
        {
          "internalType": "uint256[]",
          "name": "",
          "type": "uint256[]"
        }
      ],
      "stateMutability": "view",
      "type": "function"
    },
    {
      "inputs": [
        {
          "internalType": "uint256",
          "name": "songId",
          "type": "uint256"
        }
      ],
      "name": "balanceOfSender",
      "outputs": [
        {
          "internalType": "uint256",
          "name": "",
          "type": "uint256"
        }
      ],
      "stateMutability": "view",
      "type": "function"
    },
    {
      "inputs": [
        {
          "internalType": "uint256",
          "name": "songId",
          "type": "uint256"
        }
      ],
      "name": "checkAndUnlist",
      "outputs": [],
      "stateMutability": "nonpayable",
      "type": "function"
    },
    {
      "inputs": [
        {
          "internalType": "uint256",
          "name": "",
          "type": "uint256"
        },
        {
          "internalType": "uint256",
          "name": "",
          "type": "uint256"
        }
      ],
      "name": "fractionHolders",
      "outputs": [
        {
          "internalType": "address",
          "name": "",
          "type": "address"
        }
      ],
      "stateMutability": "view",
      "type": "function"
    },
    {
      "inputs": [
        {
          "internalType": "uint256",
          "name": "",
          "type": "uint256"
        }
      ],
      "name": "fractionsSold",
      "outputs": [
        {
          "internalType": "uint256",
          "name": "",
          "type": "uint256"
        }
      ],
      "stateMutability": "view",
      "type": "function"
    },
    {
      "inputs": [],
      "name": "getCurrentBlockTimestamp",
      "outputs": [
        {
          "internalType": "uint256",
          "name": "",
          "type": "uint256"
        }
      ],
      "stateMutability": "view",
      "type": "function"
    },
    {
      "inputs": [
        {
          "internalType": "uint256",
          "name": "songId",
          "type": "uint256"
        }
      ],
      "name": "getFractionHolders",
      "outputs": [
        {
          "internalType": "address[]",
          "name": "",
          "type": "address[]"
        }
      ],
      "stateMutability": "view",
      "type": "function"
    },
    {
      "inputs": [
        {
          "internalType": "uint256",
          "name": "songId",
          "type": "uint256"
        }
      ],
      "name": "getSong",
      "outputs": [
        {
          "components": [
            {
              "internalType": "string",
              "name": "title",
              "type": "string"
            },
            {
              "internalType": "string",
              "name": "artistName",
              "type": "string"
            },
            {
              "internalType": "address",
              "name": "artistAddress",
              "type": "address"
            },
            {
              "internalType": "uint256",
              "name": "releaseTime",
              "type": "uint256"
            },
            {
              "internalType": "uint256",
              "name": "fractionPrice",
              "type": "uint256"
            },
            {
              "internalType": "uint256",
              "name": "totalFractions",
              "type": "uint256"
            },
            {
              "internalType": "bool",
              "name": "isReleased",
              "type": "bool"
            },
            {
              "internalType": "bool",
              "name": "isListed",
              "type": "bool"
            }
          ],
          "internalType": "struct SongFractionalized.Song",
          "name": "",
          "type": "tuple"
        }
      ],
      "stateMutability": "view",
      "type": "function"
    },
    {
      "inputs": [
        {
          "internalType": "address",
          "name": "account",
          "type": "address"
        },
        {
          "internalType": "address",
          "name": "operator",
          "type": "address"
        }
      ],
      "name": "isApprovedForAll",
      "outputs": [
        {
          "internalType": "bool",
          "name": "",
          "type": "bool"
        }
      ],
      "stateMutability": "view",
      "type": "function"
    },
    {
      "inputs": [
        {
          "internalType": "string",
          "name": "title",
          "type": "string"
        },
        {
          "internalType": "string",
          "name": "artistName",
          "type": "string"
        },
        {
          "internalType": "uint256",
          "name": "releaseTime",
          "type": "uint256"
        },
        {
          "internalType": "uint256",
          "name": "fractionPrice",
          "type": "uint256"
        },
        {
          "internalType": "uint256",
          "name": "totalFractions",
          "type": "uint256"
        }
      ],
      "name": "listSong",
      "outputs": [],
      "stateMutability": "nonpayable",
      "type": "function"
    },
    {
      "inputs": [],
      "name": "owner",
      "outputs": [
        {
          "internalType": "address",
          "name": "",
          "type": "address"
        }
      ],
      "stateMutability": "view",
      "type": "function"
    },
    {
      "inputs": [],
      "name": "renounceOwnership",
      "outputs": [],
      "stateMutability": "nonpayable",
      "type": "function"
    },
    {
      "inputs": [
        {
          "internalType": "address",
          "name": "from",
          "type": "address"
        },
        {
          "internalType": "address",
          "name": "to",
          "type": "address"
        },
        {
          "internalType": "uint256[]",
          "name": "ids",
          "type": "uint256[]"
        },
        {
          "internalType": "uint256[]",
          "name": "values",
          "type": "uint256[]"
        },
        {
          "internalType": "bytes",
          "name": "data",
          "type": "bytes"
        }
      ],
      "name": "safeBatchTransferFrom",
      "outputs": [],
      "stateMutability": "nonpayable",
      "type": "function"
    },
    {
      "inputs": [
        {
          "internalType": "address",
          "name": "from",
          "type": "address"
        },
        {
          "internalType": "address",
          "name": "to",
          "type": "address"
        },
        {
          "internalType": "uint256",
          "name": "id",
          "type": "uint256"
        },
        {
          "internalType": "uint256",
          "name": "value",
          "type": "uint256"
        },
        {
          "internalType": "bytes",
          "name": "data",
          "type": "bytes"
        }
      ],
      "name": "safeTransferFrom",
      "outputs": [],
      "stateMutability": "nonpayable",
      "type": "function"
    },
    {
      "inputs": [
        {
          "internalType": "address",
          "name": "operator",
          "type": "address"
        },
        {
          "internalType": "bool",
          "name": "approved",
          "type": "bool"
        }
      ],
      "name": "setApprovalForAll",
      "outputs": [],
      "stateMutability": "nonpayable",
      "type": "function"
    },
    {
      "inputs": [],
      "name": "songCounter",
      "outputs": [
        {
          "internalType": "uint256",
          "name": "",
          "type": "uint256"
        }
      ],
      "stateMutability": "view",
      "type": "function"
    },
    {
      "inputs": [
        {
          "internalType": "uint256",
          "name": "",
          "type": "uint256"
        }
      ],
      "name": "songs",
      "outputs": [
        {
          "internalType": "string",
          "name": "title",
          "type": "string"
        },
        {
          "internalType": "string",
          "name": "artistName",
          "type": "string"
        },
        {
          "internalType": "address",
          "name": "artistAddress",
          "type": "address"
        },
        {
          "internalType": "uint256",
          "name": "releaseTime",
          "type": "uint256"
        },
        {
          "internalType": "uint256",
          "name": "fractionPrice",
          "type": "uint256"
        },
        {
          "internalType": "uint256",
          "name": "totalFractions",
          "type": "uint256"
        },
        {
          "internalType": "bool",
          "name": "isReleased",
          "type": "bool"
        },
        {
          "internalType": "bool",
          "name": "isListed",
          "type": "bool"
        }
      ],
      "stateMutability": "view",
      "type": "function"
    },
    {
      "inputs": [
        {
          "internalType": "bytes4",
          "name": "interfaceId",
          "type": "bytes4"
        }
      ],
      "name": "supportsInterface",
      "outputs": [
        {
          "internalType": "bool",
          "name": "",
          "type": "bool"
        }
      ],
      "stateMutability": "view",
      "type": "function"
    },
    {
      "inputs": [
        {
          "internalType": "address",
          "name": "buyer",
          "type": "address"
        },
        {
          "internalType": "uint256",
          "name": "songId",
          "type": "uint256"
        },
        {
          "internalType": "uint256",
          "name": "amount",
          "type": "uint256"
        }
      ],
      "name": "transferFraction",
      "outputs": [],
      "stateMutability": "nonpayable",
      "type": "function"
    },
    {
      "inputs": [
        {
          "internalType": "address",
          "name": "newOwner",
          "type": "address"
        }
      ],
      "name": "transferOwnership",
      "outputs": [],
      "stateMutability": "nonpayable",
      "type": "function"
    },
    {
      "inputs": [
        {
          "internalType": "uint256",
          "name": "",
          "type": "uint256"
        }
      ],
      "name": "uri",
      "outputs": [
        {
          "internalType": "string",
          "name": "",
          "type": "string"
        }
      ],
      "stateMutability": "view",
      "type": "function"
    }
  ],
  "bytecode": "0x60806040523480156200001157600080fd5b50336040518060600160405280602a815260200162003c4f602a91396200003e81620000cc60201b60201c565b50600073ffffffffffffffffffffffffffffffffffffffff168173ffffffffffffffffffffffffffffffffffffffff1603620000b45760006040517f1e4fbdf7000000000000000000000000000000000000000000000000000000008152600401620000ab9190620001ec565b60405180910390fd5b620000c581620000e160201b60201c565b506200056a565b8060029081620000dd919062000483565b5050565b6000600360009054906101000a900473ffffffffffffffffffffffffffffffffffffffff16905081600360006101000a81548173ffffffffffffffffffffffffffffffffffffffff021916908373ffffffffffffffffffffffffffffffffffffffff1602179055508173ffffffffffffffffffffffffffffffffffffffff168173ffffffffffffffffffffffffffffffffffffffff167f8be0079c531659141344cd1fd0a4f28419497f9722a3daafe3b4186f6b6457e060405160405180910390a35050565b600073ffffffffffffffffffffffffffffffffffffffff82169050919050565b6000620001d482620001a7565b9050919050565b620001e681620001c7565b82525050565b6000602082019050620002036000830184620001db565b92915050565b600081519050919050565b7f4e487b7100000000000000000000000000000000000000000000000000000000600052604160045260246000fd5b7f4e487b7100000000000000000000000000000000000000000000000000000000600052602260045260246000fd5b600060028204905060018216806200028b57607f821691505b602082108103620002a157620002a062000243565b5b50919050565b60008190508160005260206000209050919050565b60006020601f8301049050919050565b600082821b905092915050565b6000600883026200030b7fffffffffffffffffffffffffffffffffffffffffffffffffffffffffffffffff82620002cc565b620003178683620002cc565b95508019841693508086168417925050509392505050565b6000819050919050565b6000819050919050565b6000620003646200035e62000358846200032f565b62000339565b6200032f565b9050919050565b6000819050919050565b620003808362000343565b620003986200038f826200036b565b848454620002d9565b825550505050565b600090565b620003af620003a0565b620003bc81848462000375565b505050565b5b81811015620003e457620003d8600082620003a5565b600181019050620003c2565b5050565b601f8211156200043357620003fd81620002a7565b6200040884620002bc565b8101602085101562000418578190505b620004306200042785620002bc565b830182620003c1565b50505b505050565b600082821c905092915050565b6000620004586000198460080262000438565b1980831691505092915050565b600062000473838362000445565b9150826002028217905092915050565b6200048e8262000209565b67ffffffffffffffff811115620004aa57620004a962000214565b5b620004b6825462000272565b620004c3828285620003e8565b600060209050601f831160018114620004fb5760008415620004e6578287015190505b620004f2858262000465565b86555062000562565b601f1984166200050b86620002a7565b60005b8281101562000535578489015182556001820191506020850194506020810190506200050e565b8683101562000555578489015162000551601f89168262000445565b8355505b6001600288020188555050505b505050505050565b6136d5806200057a6000396000f3fe608060405234801561001057600080fd5b506004361061014c5760003560e01c80634e1273f4116100c3578063ca6f5ef11161007c578063ca6f5ef1146103f0578063daea85c51461040c578063e985e9c514610428578063f242432a14610458578063f2fde38b14610474578063f7cf520b146104905761014c565b80634e1273f41461031c578063715018a61461034c5780638da5cb5b146103565780639fb2047714610374578063a22cb465146103a4578063c6ef551e146103c05761014c565b80632147598011610115578063214759801461021b5780632eb2c2d61461024b578063304cff3014610267578063370941791461029e57806342acaa66146102ce5780634bd4d59e146102fe5761014c565b8062fdd58e1461015157806301ffc9a71461018157806306625e8a146101b15780630e89341c146101cd5780630f28c97d146101fd575b600080fd5b61016b6004803603810190610166919061224c565b6104ac565b604051610178919061229b565b60405180910390f35b61019b6004803603810190610196919061230e565b610506565b6040516101a89190612356565b60405180910390f35b6101cb60048036038101906101c69190612371565b6105e8565b005b6101e760048036038101906101e291906123c4565b6107cb565b6040516101f49190612481565b60405180910390f35b61020561085f565b604051610212919061229b565b60405180910390f35b610235600480360381019061023091906124a3565b610867565b60405161024291906124f2565b60405180910390f35b6102656004803603810190610260919061270a565b6108b5565b005b610281600480360381019061027c91906123c4565b61095d565b6040516102959897969594939291906127d9565b60405180910390f35b6102b860048036038101906102b391906123c4565b610aef565b6040516102c5919061229b565b60405180910390f35b6102e860048036038101906102e391906123c4565b610b07565b6040516102f59190612993565b60405180910390f35b610306610d03565b604051610313919061229b565b60405180910390f35b61033660048036038101906103319190612a78565b610d09565b6040516103439190612b9f565b60405180910390f35b610354610e18565b005b61035e610e2c565b60405161036b91906124f2565b60405180910390f35b61038e600480360381019061038991906123c4565b610e56565b60405161039b919061229b565b60405180910390f35b6103be60048036038101906103b99190612bed565b610e69565b005b6103da60048036038101906103d591906123c4565b610e7f565b6040516103e79190612cdc565b60405180910390f35b61040a60048036038101906104059190612d9f565b610f20565b005b61042660048036038101906104219190612e52565b6110dd565b005b610442600480360381019061043d9190612e7f565b6110f3565b60405161044f9190612356565b60405180910390f35b610472600480360381019061046d9190612ebf565b611187565b005b61048e60048036038101906104899190612e52565b61122f565b005b6104aa60048036038101906104a591906123c4565b6112b5565b005b600080600083815260200190815260200160002060008473ffffffffffffffffffffffffffffffffffffffff1673ffffffffffffffffffffffffffffffffffffffff16815260200190815260200160002054905092915050565b60007fd9b67a26000000000000000000000000000000000000000000000000000000007bffffffffffffffffffffffffffffffffffffffffffffffffffffffff1916827bffffffffffffffffffffffffffffffffffffffffffffffffffffffff191614806105d157507f0e89341c000000000000000000000000000000000000000000000000000000007bffffffffffffffffffffffffffffffffffffffffffffffffffffffff1916827bffffffffffffffffffffffffffffffffffffffffffffffffffffffff1916145b806105e157506105e08261135a565b5b9050919050565b6105f1826112b5565b6004600083815260200190815260200160002060060160019054906101000a900460ff16610654576040517f08c379a000000000000000000000000000000000000000000000000000000000815260040161064b90612fa2565b60405180910390fd5b806106956004600085815260200190815260200160002060020160009054906101000a900473ffffffffffffffffffffffffffffffffffffffff16846104ac565b10156106d6576040517f08c379a00000000000000000000000000000000000000000000000000000000081526004016106cd9061300e565b60405180910390fd5b6107286004600084815260200190815260200160002060020160009054906101000a900473ffffffffffffffffffffffffffffffffffffffff1684848460405180602001604052806000815250611187565b8060056000848152602001908152602001600020600082825461074b919061305d565b9250508190555060066000838152602001908152602001600020839080600181540180825580915050600190039060005260206000200160009091909190916101000a81548173ffffffffffffffffffffffffffffffffffffffff021916908373ffffffffffffffffffffffffffffffffffffffff160217905550505050565b6060600280546107da906130c0565b80601f0160208091040260200160405190810160405280929190818152602001828054610806906130c0565b80156108535780601f1061082857610100808354040283529160200191610853565b820191906000526020600020905b81548152906001019060200180831161083657829003601f168201915b50505050509050919050565b600042905090565b6006602052816000526040600020818154811061088357600080fd5b906000526020600020016000915091509054906101000a900473ffffffffffffffffffffffffffffffffffffffff1681565b60006108bf6113c4565b90508073ffffffffffffffffffffffffffffffffffffffff168673ffffffffffffffffffffffffffffffffffffffff1614158015610904575061090286826110f3565b155b156109485780866040517fe237d92200000000000000000000000000000000000000000000000000000000815260040161093f9291906130f1565b60405180910390fd5b61095586868686866113cc565b505050505050565b6004602052806000526040600020600091509050806000018054610980906130c0565b80601f01602080910402602001604051908101604052809291908181526020018280546109ac906130c0565b80156109f95780601f106109ce576101008083540402835291602001916109f9565b820191906000526020600020905b8154815290600101906020018083116109dc57829003601f168201915b505050505090806001018054610a0e906130c0565b80601f0160208091040260200160405190810160405280929190818152602001828054610a3a906130c0565b8015610a875780601f10610a5c57610100808354040283529160200191610a87565b820191906000526020600020905b815481529060010190602001808311610a6a57829003601f168201915b5050505050908060020160009054906101000a900473ffffffffffffffffffffffffffffffffffffffff16908060030154908060040154908060050154908060060160009054906101000a900460ff16908060060160019054906101000a900460ff16905088565b60056020528060005260406000206000915090505481565b610b0f612145565b6004600083815260200190815260200160002060405180610100016040529081600082018054610b3e906130c0565b80601f0160208091040260200160405190810160405280929190818152602001828054610b6a906130c0565b8015610bb75780601f10610b8c57610100808354040283529160200191610bb7565b820191906000526020600020905b815481529060010190602001808311610b9a57829003601f168201915b50505050508152602001600182018054610bd0906130c0565b80601f0160208091040260200160405190810160405280929190818152602001828054610bfc906130c0565b8015610c495780601f10610c1e57610100808354040283529160200191610c49565b820191906000526020600020905b815481529060010190602001808311610c2c57829003601f168201915b505050505081526020016002820160009054906101000a900473ffffffffffffffffffffffffffffffffffffffff1673ffffffffffffffffffffffffffffffffffffffff1673ffffffffffffffffffffffffffffffffffffffff1681526020016003820154815260200160048201548152602001600582015481526020016006820160009054906101000a900460ff161515151581526020016006820160019054906101000a900460ff1615151515815250509050919050565b60075481565b60608151835114610d5557815183516040517f5b059991000000000000000000000000000000000000000000000000000000008152600401610d4c92919061311a565b60405180910390fd5b6000835167ffffffffffffffff811115610d7257610d71612512565b5b604051908082528060200260200182016040528015610da05781602001602082028036833780820191505090505b50905060005b8451811015610e0d57610ddd610dc582876114c490919063ffffffff16565b610dd883876114d890919063ffffffff16565b6104ac565b828281518110610df057610def613143565b5b60200260200101818152505080610e0690613172565b9050610da6565b508091505092915050565b610e206114ec565b610e2a6000611573565b565b6000600360009054906101000a900473ffffffffffffffffffffffffffffffffffffffff16905090565b6000610e6233836104ac565b9050919050565b610e7b610e746113c4565b8383611639565b5050565b606060066000838152602001908152602001600020805480602002602001604051908101604052809291908181526020018280548015610f1457602002820191906000526020600020905b8160009054906101000a900473ffffffffffffffffffffffffffffffffffffffff1673ffffffffffffffffffffffffffffffffffffffff1681526020019060010190808311610eca575b50505050509050919050565b428311610f62576040517f08c379a0000000000000000000000000000000000000000000000000000000008152600401610f599061322c565b60405180910390fd5b60076000815480929190610f7590613172565b91905055506040518061010001604052808681526020018581526020013373ffffffffffffffffffffffffffffffffffffffff168152602001848152602001838152602001828152602001600015158152602001600115158152506004600060075481526020019081526020016000206000820151816000019081610ffa91906133f8565b50602082015181600101908161101091906133f8565b5060408201518160020160006101000a81548173ffffffffffffffffffffffffffffffffffffffff021916908373ffffffffffffffffffffffffffffffffffffffff160217905550606082015181600301556080820151816004015560a0820151816005015560c08201518160060160006101000a81548160ff02191690831515021790555060e08201518160060160016101000a81548160ff0219169083151502179055509050506110d63360075483604051806020016040528060008152506117a9565b5050505050565b6110e56114ec565b6110f0816001610e69565b50565b6000600160008473ffffffffffffffffffffffffffffffffffffffff1673ffffffffffffffffffffffffffffffffffffffff16815260200190815260200160002060008373ffffffffffffffffffffffffffffffffffffffff1673ffffffffffffffffffffffffffffffffffffffff16815260200190815260200160002060009054906101000a900460ff16905092915050565b60006111916113c4565b90508073ffffffffffffffffffffffffffffffffffffffff168673ffffffffffffffffffffffffffffffffffffffff16141580156111d657506111d486826110f3565b155b1561121a5780866040517fe237d9220000000000000000000000000000000000000000000000000000000081526004016112119291906130f1565b60405180910390fd5b6112278686868686611842565b505050505050565b6112376114ec565b600073ffffffffffffffffffffffffffffffffffffffff168173ffffffffffffffffffffffffffffffffffffffff16036112a95760006040517f1e4fbdf70000000000000000000000000000000000000000000000000000000081526004016112a091906124f2565b60405180910390fd5b6112b281611573565b50565b6000600460008381526020019081526020016000209050806003015442101580156112ef57508060060160009054906101000a900460ff16155b156113125760018160060160006101000a81548160ff0219169083151502179055505b80600301544211801561133357508060060160019054906101000a900460ff165b156113565760008160060160016101000a81548160ff0219169083151502179055505b5050565b60007f01ffc9a7000000000000000000000000000000000000000000000000000000007bffffffffffffffffffffffffffffffffffffffffffffffffffffffff1916827bffffffffffffffffffffffffffffffffffffffffffffffffffffffff1916149050919050565b600033905090565b600073ffffffffffffffffffffffffffffffffffffffff168473ffffffffffffffffffffffffffffffffffffffff160361143e5760006040517f57f447ce00000000000000000000000000000000000000000000000000000000815260040161143591906124f2565b60405180910390fd5b600073ffffffffffffffffffffffffffffffffffffffff168573ffffffffffffffffffffffffffffffffffffffff16036114b05760006040517f01a835140000000000000000000000000000000000000000000000000000000081526004016114a791906124f2565b60405180910390fd5b6114bd858585858561194d565b5050505050565b600060208202602084010151905092915050565b600060208202602084010151905092915050565b6114f46113c4565b73ffffffffffffffffffffffffffffffffffffffff16611512610e2c565b73ffffffffffffffffffffffffffffffffffffffff1614611571576115356113c4565b6040517f118cdaa700000000000000000000000000000000000000000000000000000000815260040161156891906124f2565b60405180910390fd5b565b6000600360009054906101000a900473ffffffffffffffffffffffffffffffffffffffff16905081600360006101000a81548173ffffffffffffffffffffffffffffffffffffffff021916908373ffffffffffffffffffffffffffffffffffffffff1602179055508173ffffffffffffffffffffffffffffffffffffffff168173ffffffffffffffffffffffffffffffffffffffff167f8be0079c531659141344cd1fd0a4f28419497f9722a3daafe3b4186f6b6457e060405160405180910390a35050565b600073ffffffffffffffffffffffffffffffffffffffff168273ffffffffffffffffffffffffffffffffffffffff16036116ab5760006040517fced3e1000000000000000000000000000000000000000000000000000000000081526004016116a291906124f2565b60405180910390fd5b80600160008573ffffffffffffffffffffffffffffffffffffffff1673ffffffffffffffffffffffffffffffffffffffff16815260200190815260200160002060008473ffffffffffffffffffffffffffffffffffffffff1673ffffffffffffffffffffffffffffffffffffffff16815260200190815260200160002060006101000a81548160ff0219169083151502179055508173ffffffffffffffffffffffffffffffffffffffff168373ffffffffffffffffffffffffffffffffffffffff167f17307eab39ab6107e8899845ad3d59bd9653f200f220920489ca2b5937696c318360405161179c9190612356565b60405180910390a3505050565b600073ffffffffffffffffffffffffffffffffffffffff168473ffffffffffffffffffffffffffffffffffffffff160361181b5760006040517f57f447ce00000000000000000000000000000000000000000000000000000000815260040161181291906124f2565b60405180910390fd5b60008061182885856119ff565b9150915061183a60008784848761194d565b505050505050565b600073ffffffffffffffffffffffffffffffffffffffff168473ffffffffffffffffffffffffffffffffffffffff16036118b45760006040517f57f447ce0000000000000000000000000000000000000000000000000000000081526004016118ab91906124f2565b60405180910390fd5b600073ffffffffffffffffffffffffffffffffffffffff168573ffffffffffffffffffffffffffffffffffffffff16036119265760006040517f01a8351400000000000000000000000000000000000000000000000000000000815260040161191d91906124f2565b60405180910390fd5b60008061193385856119ff565b91509150611944878784848761194d565b50505050505050565b61195985858585611a2f565b600073ffffffffffffffffffffffffffffffffffffffff168473ffffffffffffffffffffffffffffffffffffffff16146119f85760006119976113c4565b905060018451036119e75760006119b86000866114d890919063ffffffff16565b905060006119d06000866114d890919063ffffffff16565b90506119e0838989858589611ddd565b50506119f6565b6119f5818787878787611f91565b5b505b5050505050565b60608060405191506001825283602083015260408201905060018152826020820152604081016040529250929050565b8051825114611a7957815181516040517f5b059991000000000000000000000000000000000000000000000000000000008152600401611a7092919061311a565b60405180910390fd5b6000611a836113c4565b905060005b8351811015611c98576000611aa682866114d890919063ffffffff16565b90506000611abd83866114d890919063ffffffff16565b9050600073ffffffffffffffffffffffffffffffffffffffff168873ffffffffffffffffffffffffffffffffffffffff1614611bea57600080600084815260200190815260200160002060008a73ffffffffffffffffffffffffffffffffffffffff1673ffffffffffffffffffffffffffffffffffffffff16815260200190815260200160002054905081811015611b9257888183856040517f03dee4c5000000000000000000000000000000000000000000000000000000008152600401611b8994939291906134ca565b60405180910390fd5b81810360008085815260200190815260200160002060008b73ffffffffffffffffffffffffffffffffffffffff1673ffffffffffffffffffffffffffffffffffffffff16815260200190815260200160002081905550505b600073ffffffffffffffffffffffffffffffffffffffff168773ffffffffffffffffffffffffffffffffffffffff1614611c85578060008084815260200190815260200160002060008973ffffffffffffffffffffffffffffffffffffffff1673ffffffffffffffffffffffffffffffffffffffff1681526020019081526020016000206000828254611c7d919061305d565b925050819055505b505080611c9190613172565b9050611a88565b506001835103611d57576000611cb86000856114d890919063ffffffff16565b90506000611cd06000856114d890919063ffffffff16565b90508573ffffffffffffffffffffffffffffffffffffffff168773ffffffffffffffffffffffffffffffffffffffff168473ffffffffffffffffffffffffffffffffffffffff167fc3d58168c5ae7397731d063d5bbf3d657854427343f4c083240f7aacaa2d0f628585604051611d4892919061311a565b60405180910390a45050611dd6565b8373ffffffffffffffffffffffffffffffffffffffff168573ffffffffffffffffffffffffffffffffffffffff168273ffffffffffffffffffffffffffffffffffffffff167f4a39dc06d4c0dbc64b70af90fd698a233a518aa5d07e595d983b8c0526c8f7fb8686604051611dcd92919061350f565b60405180910390a45b5050505050565b60008473ffffffffffffffffffffffffffffffffffffffff163b1115611f89578373ffffffffffffffffffffffffffffffffffffffff1663f23a6e6187878686866040518663ffffffff1660e01b8152600401611e3e95949392919061359b565b6020604051808303816000875af1925050508015611e7a57506040513d601f19601f82011682018060405250810190611e77919061360a565b60015b611efe573d8060008114611eaa576040519150601f19603f3d011682016040523d82523d6000602084013e611eaf565b606091505b506000815103611ef657846040517f57f447ce000000000000000000000000000000000000000000000000000000008152600401611eed91906124f2565b60405180910390fd5b805181602001fd5b63f23a6e6160e01b7bffffffffffffffffffffffffffffffffffffffffffffffffffffffff1916817bffffffffffffffffffffffffffffffffffffffffffffffffffffffff191614611f8757846040517f57f447ce000000000000000000000000000000000000000000000000000000008152600401611f7e91906124f2565b60405180910390fd5b505b505050505050565b60008473ffffffffffffffffffffffffffffffffffffffff163b111561213d578373ffffffffffffffffffffffffffffffffffffffff1663bc197c8187878686866040518663ffffffff1660e01b8152600401611ff2959493929190613637565b6020604051808303816000875af192505050801561202e57506040513d601f19601f8201168201806040525081019061202b919061360a565b60015b6120b2573d806000811461205e576040519150601f19603f3d011682016040523d82523d6000602084013e612063565b606091505b5060008151036120aa57846040517f57f447ce0000000000000000000000000000000000000000000000000000000081526004016120a191906124f2565b60405180910390fd5b805181602001fd5b63bc197c8160e01b7bffffffffffffffffffffffffffffffffffffffffffffffffffffffff1916817bffffffffffffffffffffffffffffffffffffffffffffffffffffffff19161461213b57846040517f57f447ce00000000000000000000000000000000000000000000000000000000815260040161213291906124f2565b60405180910390fd5b505b505050505050565b6040518061010001604052806060815260200160608152602001600073ffffffffffffffffffffffffffffffffffffffff1681526020016000815260200160008152602001600081526020016000151581526020016000151581525090565b6000604051905090565b600080fd5b600080fd5b600073ffffffffffffffffffffffffffffffffffffffff82169050919050565b60006121e3826121b8565b9050919050565b6121f3816121d8565b81146121fe57600080fd5b50565b600081359050612210816121ea565b92915050565b6000819050919050565b61222981612216565b811461223457600080fd5b50565b60008135905061224681612220565b92915050565b60008060408385031215612263576122626121ae565b5b600061227185828601612201565b925050602061228285828601612237565b9150509250929050565b61229581612216565b82525050565b60006020820190506122b0600083018461228c565b92915050565b60007fffffffff0000000000000000000000000000000000000000000000000000000082169050919050565b6122eb816122b6565b81146122f657600080fd5b50565b600081359050612308816122e2565b92915050565b600060208284031215612324576123236121ae565b5b6000612332848285016122f9565b91505092915050565b60008115159050919050565b6123508161233b565b82525050565b600060208201905061236b6000830184612347565b92915050565b60008060006060848603121561238a576123896121ae565b5b600061239886828701612201565b93505060206123a986828701612237565b92505060406123ba86828701612237565b9150509250925092565b6000602082840312156123da576123d96121ae565b5b60006123e884828501612237565b91505092915050565b600081519050919050565b600082825260208201905092915050565b60005b8381101561242b578082015181840152602081019050612410565b60008484015250505050565b6000601f19601f8301169050919050565b6000612453826123f1565b61245d81856123fc565b935061246d81856020860161240d565b61247681612437565b840191505092915050565b6000602082019050818103600083015261249b8184612448565b905092915050565b600080604083850312156124ba576124b96121ae565b5b60006124c885828601612237565b92505060206124d985828601612237565b9150509250929050565b6124ec816121d8565b82525050565b600060208201905061250760008301846124e3565b92915050565b600080fd5b7f4e487b7100000000000000000000000000000000000000000000000000000000600052604160045260246000fd5b61254a82612437565b810181811067ffffffffffffffff8211171561256957612568612512565b5b80604052505050565b600061257c6121a4565b90506125888282612541565b919050565b600067ffffffffffffffff8211156125a8576125a7612512565b5b602082029050602081019050919050565b600080fd5b60006125d16125cc8461258d565b612572565b905080838252602082019050602084028301858111156125f4576125f36125b9565b5b835b8181101561261d57806126098882612237565b8452602084019350506020810190506125f6565b5050509392505050565b600082601f83011261263c5761263b61250d565b5b813561264c8482602086016125be565b91505092915050565b600080fd5b600067ffffffffffffffff82111561267557612674612512565b5b61267e82612437565b9050602081019050919050565b82818337600083830152505050565b60006126ad6126a88461265a565b612572565b9050828152602081018484840111156126c9576126c8612655565b5b6126d484828561268b565b509392505050565b600082601f8301126126f1576126f061250d565b5b813561270184826020860161269a565b91505092915050565b600080600080600060a08688031215612726576127256121ae565b5b600061273488828901612201565b955050602061274588828901612201565b945050604086013567ffffffffffffffff811115612766576127656121b3565b5b61277288828901612627565b935050606086013567ffffffffffffffff811115612793576127926121b3565b5b61279f88828901612627565b925050608086013567ffffffffffffffff8111156127c0576127bf6121b3565b5b6127cc888289016126dc565b9150509295509295909350565b60006101008201905081810360008301526127f4818b612448565b90508181036020830152612808818a612448565b905061281760408301896124e3565b612824606083018861228c565b612831608083018761228c565b61283e60a083018661228c565b61284b60c0830185612347565b61285860e0830184612347565b9998505050505050505050565b600082825260208201905092915050565b6000612881826123f1565b61288b8185612865565b935061289b81856020860161240d565b6128a481612437565b840191505092915050565b6128b8816121d8565b82525050565b6128c781612216565b82525050565b6128d68161233b565b82525050565b60006101008301600083015184820360008601526128fa8282612876565b915050602083015184820360208601526129148282612876565b915050604083015161292960408601826128af565b50606083015161293c60608601826128be565b50608083015161294f60808601826128be565b5060a083015161296260a08601826128be565b5060c083015161297560c08601826128cd565b5060e083015161298860e08601826128cd565b508091505092915050565b600060208201905081810360008301526129ad81846128dc565b905092915050565b600067ffffffffffffffff8211156129d0576129cf612512565b5b602082029050602081019050919050565b60006129f46129ef846129b5565b612572565b90508083825260208201905060208402830185811115612a1757612a166125b9565b5b835b81811015612a405780612a2c8882612201565b845260208401935050602081019050612a19565b5050509392505050565b600082601f830112612a5f57612a5e61250d565b5b8135612a6f8482602086016129e1565b91505092915050565b60008060408385031215612a8f57612a8e6121ae565b5b600083013567ffffffffffffffff811115612aad57612aac6121b3565b5b612ab985828601612a4a565b925050602083013567ffffffffffffffff811115612ada57612ad96121b3565b5b612ae685828601612627565b9150509250929050565b600081519050919050565b600082825260208201905092915050565b6000819050602082019050919050565b6000612b2883836128be565b60208301905092915050565b6000602082019050919050565b6000612b4c82612af0565b612b568185612afb565b9350612b6183612b0c565b8060005b83811015612b92578151612b798882612b1c565b9750612b8483612b34565b925050600181019050612b65565b5085935050505092915050565b60006020820190508181036000830152612bb98184612b41565b905092915050565b612bca8161233b565b8114612bd557600080fd5b50565b600081359050612be781612bc1565b92915050565b60008060408385031215612c0457612c036121ae565b5b6000612c1285828601612201565b9250506020612c2385828601612bd8565b9150509250929050565b600081519050919050565b600082825260208201905092915050565b6000819050602082019050919050565b6000612c6583836128af565b60208301905092915050565b6000602082019050919050565b6000612c8982612c2d565b612c938185612c38565b9350612c9e83612c49565b8060005b83811015612ccf578151612cb68882612c59565b9750612cc183612c71565b925050600181019050612ca2565b5085935050505092915050565b60006020820190508181036000830152612cf68184612c7e565b905092915050565b600067ffffffffffffffff821115612d1957612d18612512565b5b612d2282612437565b9050602081019050919050565b6000612d42612d3d84612cfe565b612572565b905082815260208101848484011115612d5e57612d5d612655565b5b612d6984828561268b565b509392505050565b600082601f830112612d8657612d8561250d565b5b8135612d96848260208601612d2f565b91505092915050565b600080600080600060a08688031215612dbb57612dba6121ae565b5b600086013567ffffffffffffffff811115612dd957612dd86121b3565b5b612de588828901612d71565b955050602086013567ffffffffffffffff811115612e0657612e056121b3565b5b612e1288828901612d71565b9450506040612e2388828901612237565b9350506060612e3488828901612237565b9250506080612e4588828901612237565b9150509295509295909350565b600060208284031215612e6857612e676121ae565b5b6000612e7684828501612201565b91505092915050565b60008060408385031215612e9657612e956121ae565b5b6000612ea485828601612201565b9250506020612eb585828601612201565b9150509250929050565b600080600080600060a08688031215612edb57612eda6121ae565b5b6000612ee988828901612201565b9550506020612efa88828901612201565b9450506040612f0b88828901612237565b9350506060612f1c88828901612237565b925050608086013567ffffffffffffffff811115612f3d57612f3c6121b3565b5b612f49888289016126dc565b9150509295509295909350565b7f536f6e67206973206e6f74206c69737465640000000000000000000000000000600082015250565b6000612f8c6012836123fc565b9150612f9782612f56565b602082019050919050565b60006020820190508181036000830152612fbb81612f7f565b9050919050565b7f496e73756666696369656e74206672616374696f6e7300000000000000000000600082015250565b6000612ff86016836123fc565b915061300382612fc2565b602082019050919050565b6000602082019050818103600083015261302781612feb565b9050919050565b7f4e487b7100000000000000000000000000000000000000000000000000000000600052601160045260246000fd5b600061306882612216565b915061307383612216565b925082820190508082111561308b5761308a61302e565b5b92915050565b7f4e487b7100000000000000000000000000000000000000000000000000000000600052602260045260246000fd5b600060028204905060018216806130d857607f821691505b6020821081036130eb576130ea613091565b5b50919050565b600060408201905061310660008301856124e3565b61311360208301846124e3565b9392505050565b600060408201905061312f600083018561228c565b61313c602083018461228c565b9392505050565b7f4e487b7100000000000000000000000000000000000000000000000000000000600052603260045260246000fd5b600061317d82612216565b91507fffffffffffffffffffffffffffffffffffffffffffffffffffffffffffffffff82036131af576131ae61302e565b5b600182019050919050565b7f52656c656173652074696d65206d75737420626520696e20746865206675747560008201527f7265000000000000000000000000000000000000000000000000000000000000602082015250565b60006132166022836123fc565b9150613221826131ba565b604082019050919050565b6000602082019050818103600083015261324581613209565b9050919050565b60008190508160005260206000209050919050565b60006020601f8301049050919050565b600082821b905092915050565b6000600883026132ae7fffffffffffffffffffffffffffffffffffffffffffffffffffffffffffffffff82613271565b6132b88683613271565b95508019841693508086168417925050509392505050565b6000819050919050565b60006132f56132f06132eb84612216565b6132d0565b612216565b9050919050565b6000819050919050565b61330f836132da565b61332361331b826132fc565b84845461327e565b825550505050565b600090565b61333861332b565b613343818484613306565b505050565b5b818110156133675761335c600082613330565b600181019050613349565b5050565b601f8211156133ac5761337d8161324c565b61338684613261565b81016020851015613395578190505b6133a96133a185613261565b830182613348565b50505b505050565b600082821c905092915050565b60006133cf600019846008026133b1565b1980831691505092915050565b60006133e883836133be565b9150826002028217905092915050565b613401826123f1565b67ffffffffffffffff81111561341a57613419612512565b5b61342482546130c0565b61342f82828561336b565b600060209050601f8311600181146134625760008415613450578287015190505b61345a85826133dc565b8655506134c2565b601f1984166134708661324c565b60005b8281101561349857848901518255600182019150602085019450602081019050613473565b868310156134b557848901516134b1601f8916826133be565b8355505b6001600288020188555050505b505050505050565b60006080820190506134df60008301876124e3565b6134ec602083018661228c565b6134f9604083018561228c565b613506606083018461228c565b95945050505050565b600060408201905081810360008301526135298185612b41565b9050818103602083015261353d8184612b41565b90509392505050565b600081519050919050565b600082825260208201905092915050565b600061356d82613546565b6135778185613551565b935061358781856020860161240d565b61359081612437565b840191505092915050565b600060a0820190506135b060008301886124e3565b6135bd60208301876124e3565b6135ca604083018661228c565b6135d7606083018561228c565b81810360808301526135e98184613562565b90509695505050505050565b600081519050613604816122e2565b92915050565b6000602082840312156136205761361f6121ae565b5b600061362e848285016135f5565b91505092915050565b600060a08201905061364c60008301886124e3565b61365960208301876124e3565b818103604083015261366b8186612b41565b9050818103606083015261367f8185612b41565b905081810360808301526136938184613562565b9050969550505050505056fea2646970667358221220521fd3513c87a7a25537da6f7a814bdd6f8e07634785195424133f44004e898964736f6c6343000814003368747470733a2f2f6170692e6578616d706c652e636f6d2f6d657461646174612f7b69647d2e6a736f6e",
  "linkReferences": {},
  "deployedLinkReferences": {}
}