{
  "_format": "hh-sol-artifact-1",
  "contractName": "SongEscrow",
  "sourceName": "contracts/SongEscrow.sol",
  "abi": [
    {
      "inputs": [
        {
          "internalType": "address payable",
          "name": "_songFractionalized",
          "type": "address"
        }
      ],
      "stateMutability": "nonpayable",
      "type": "constructor"
    },
    {
      "inputs": [
        {
          "internalType": "uint256",
          "name": "songId",
          "type": "uint256"
        }
      ],
      "name": "releaseFunds",
      "outputs": [],
      "stateMutability": "nonpayable",
      "type": "function"
    },
    {
      "inputs": [],
      "name": "songFractionalized",
      "outputs": [
        {
          "internalType": "contract SongFractionalized",
          "name": "",
          "type": "address"
        }
      ],
      "stateMutability": "view",
      "type": "function"
    },
    {
      "stateMutability": "payable",
      "type": "receive"
    }
  ],
  "bytecode": "0x608060405234801561001057600080fd5b50604051610b8a380380610b8a833981810160405281019061003291906100db565b806000806101000a81548173ffffffffffffffffffffffffffffffffffffffff021916908373ffffffffffffffffffffffffffffffffffffffff16021790555050610108565b600080fd5b600073ffffffffffffffffffffffffffffffffffffffff82169050919050565b60006100a88261007d565b9050919050565b6100b88161009d565b81146100c357600080fd5b50565b6000815190506100d5816100af565b92915050565b6000602082840312156100f1576100f0610078565b5b60006100ff848285016100c6565b91505092915050565b610a73806101176000396000f3fe60806040526004361061002d5760003560e01c80631ce65fcd146100395780634d68282f1461006457610034565b3661003457005b600080fd5b34801561004557600080fd5b5061004e61008d565b60405161005b9190610413565b60405180910390f35b34801561007057600080fd5b5061008b60048036038101906100869190610478565b6100b1565b005b60008054906101000a900473ffffffffffffffffffffffffffffffffffffffff1681565b60008060009054906101000a900473ffffffffffffffffffffffffffffffffffffffff1673ffffffffffffffffffffffffffffffffffffffff166342acaa66836040518263ffffffff1660e01b815260040161010d91906104b4565b600060405180830381865afa15801561012a573d6000803e3d6000fd5b505050506040513d6000823e3d601f19601f8201168201806040525081019061015391906107c7565b905060008054906101000a900473ffffffffffffffffffffffffffffffffffffffff1673ffffffffffffffffffffffffffffffffffffffff1663f7cf520b836040518263ffffffff1660e01b81526004016101ae91906104b4565b600060405180830381600087803b1580156101c857600080fd5b505af11580156101dc573d6000803e3d6000fd5b505050508060c00151610224576040517f08c379a000000000000000000000000000000000000000000000000000000000815260040161021b9061086d565b60405180910390fd5b3373ffffffffffffffffffffffffffffffffffffffff16816040015173ffffffffffffffffffffffffffffffffffffffff1614610296576040517f08c379a000000000000000000000000000000000000000000000000000000000815260040161028d906108ff565b60405180910390fd5b6000479050600081116102de576040517f08c379a00000000000000000000000000000000000000000000000000000000081526004016102d59061096b565b60405180910390fd5b6000826040015173ffffffffffffffffffffffffffffffffffffffff1682604051610308906109bc565b60006040518083038185875af1925050503d8060008114610345576040519150601f19603f3d011682016040523d82523d6000602084013e61034a565b606091505b505090508061038e576040517f08c379a000000000000000000000000000000000000000000000000000000000815260040161038590610a1d565b60405180910390fd5b50505050565b600073ffffffffffffffffffffffffffffffffffffffff82169050919050565b6000819050919050565b60006103d96103d46103cf84610394565b6103b4565b610394565b9050919050565b60006103eb826103be565b9050919050565b60006103fd826103e0565b9050919050565b61040d816103f2565b82525050565b60006020820190506104286000830184610404565b92915050565b6000604051905090565b600080fd5b600080fd5b6000819050919050565b61045581610442565b811461046057600080fd5b50565b6000813590506104728161044c565b92915050565b60006020828403121561048e5761048d610438565b5b600061049c84828501610463565b91505092915050565b6104ae81610442565b82525050565b60006020820190506104c960008301846104a5565b92915050565b600080fd5b6000601f19601f8301169050919050565b7f4e487b7100000000000000000000000000000000000000000000000000000000600052604160045260246000fd5b61051d826104d4565b810181811067ffffffffffffffff8211171561053c5761053b6104e5565b5b80604052505050565b600061054f61042e565b905061055b8282610514565b919050565b600080fd5b600080fd5b600080fd5b600067ffffffffffffffff82111561058a576105896104e5565b5b610593826104d4565b9050602081019050919050565b60005b838110156105be5780820151818401526020810190506105a3565b60008484015250505050565b60006105dd6105d88461056f565b610545565b9050828152602081018484840111156105f9576105f861056a565b5b6106048482856105a0565b509392505050565b600082601f83011261062157610620610565565b5b81516106318482602086016105ca565b91505092915050565b600061064582610394565b9050919050565b6106558161063a565b811461066057600080fd5b50565b6000815190506106728161064c565b92915050565b6000815190506106878161044c565b92915050565b60008115159050919050565b6106a28161068d565b81146106ad57600080fd5b50565b6000815190506106bf81610699565b92915050565b600061010082840312156106dc576106db6104cf565b5b6106e7610100610545565b9050600082015167ffffffffffffffff81111561070757610706610560565b5b6107138482850161060c565b600083015250602082015167ffffffffffffffff81111561073757610736610560565b5b6107438482850161060c565b602083015250604061075784828501610663565b604083015250606061076b84828501610678565b606083015250608061077f84828501610678565b60808301525060a061079384828501610678565b60a08301525060c06107a7848285016106b0565b60c08301525060e06107bb848285016106b0565b60e08301525092915050565b6000602082840312156107dd576107dc610438565b5b600082015167ffffffffffffffff8111156107fb576107fa61043d565b5b610807848285016106c5565b91505092915050565b600082825260208201905092915050565b7f536f6e6720686173206e6f74206265656e2072656c6561736564207965740000600082015250565b6000610857601e83610810565b915061086282610821565b602082019050919050565b600060208201905081810360008301526108868161084a565b9050919050565b7f4f6e6c7920746865206172746973742063616e2072656c656173652066756e6460008201527f7300000000000000000000000000000000000000000000000000000000000000602082015250565b60006108e9602183610810565b91506108f48261088d565b604082019050919050565b60006020820190508181036000830152610918816108dc565b9050919050565b7f4e6f2066756e647320617661696c61626c650000000000000000000000000000600082015250565b6000610955601283610810565b91506109608261091f565b602082019050919050565b6000602082019050818103600083015261098481610948565b9050919050565b600081905092915050565b50565b60006109a660008361098b565b91506109b182610996565b600082019050919050565b60006109c782610999565b9150819050919050565b7f5472616e73666572206661696c65640000000000000000000000000000000000600082015250565b6000610a07600f83610810565b9150610a12826109d1565b602082019050919050565b60006020820190508181036000830152610a36816109fa565b905091905056fea26469706673582212205555dbf472375530408d066881fdc09287bafaa33844fcc65e1fb38816e25e8f64736f6c63430008140033",
  "linkReferences": {},
  "deployedLinkReferences": {}
}