{
  "_format": "hh-sol-artifact-1",
  "contractName": "SongRevenue",
  "sourceName": "contracts/SongRevenue.sol",
  "abi": [
    {
      "inputs": [
        {
          "internalType": "address payable",
          "name": "_songFractionalized",
          "type": "address"
        }
      ],
      "stateMutability": "nonpayable",
      "type": "constructor"
    },
    {
      "inputs": [
        {
          "internalType": "address",
          "name": "owner",
          "type": "address"
        }
      ],
      "name": "OwnableInvalidOwner",
      "type": "error"
    },
    {
      "inputs": [
        {
          "internalType": "address",
          "name": "account",
          "type": "address"
        }
      ],
      "name": "OwnableUnauthorizedAccount",
      "type": "error"
    },
    {
      "anonymous": false,
      "inputs": [
        {
          "indexed": true,
          "internalType": "address",
          "name": "previousOwner",
          "type": "address"
        },
        {
          "indexed": true,
          "internalType": "address",
          "name": "newOwner",
          "type": "address"
        }
      ],
      "name": "OwnershipTransferred",
      "type": "event"
    },
    {
      "inputs": [],
      "name": "addFunds",
      "outputs": [],
      "stateMutability": "payable",
      "type": "function"
    },
    {
      "inputs": [
        {
          "internalType": "uint256",
          "name": "songId",
          "type": "uint256"
        }
      ],
      "name": "addRevenue",
      "outputs": [],
      "stateMutability": "payable",
      "type": "function"
    },
    {
      "inputs": [
        {
          "internalType": "uint256",
          "name": "songId",
          "type": "uint256"
        }
      ],
      "name": "distributeRevenue",
      "outputs": [],
      "stateMutability": "nonpayable",
      "type": "function"
    },
    {
      "inputs": [],
      "name": "fractionalizedContract",
      "outputs": [
        {
          "internalType": "contract SongFractionalized",
          "name": "",
          "type": "address"
        }
      ],
      "stateMutability": "view",
      "type": "function"
    },
    {
      "inputs": [
        {
          "internalType": "uint256",
          "name": "songId",
          "type": "uint256"
        }
      ],
      "name": "getTotalRevenue",
      "outputs": [
        {
          "internalType": "uint256",
          "name": "",
          "type": "uint256"
        }
      ],
      "stateMutability": "view",
      "type": "function"
    },
    {
      "inputs": [],
      "name": "owner",
      "outputs": [
        {
          "internalType": "address",
          "name": "",
          "type": "address"
        }
      ],
      "stateMutability": "view",
      "type": "function"
    },
    {
      "inputs": [],
      "name": "renounceOwnership",
      "outputs": [],
      "stateMutability": "nonpayable",
      "type": "function"
    },
    {
      "inputs": [
        {
          "internalType": "uint256",
          "name": "",
          "type": "uint256"
        }
      ],
      "name": "totalRevenue",
      "outputs": [
        {
          "internalType": "uint256",
          "name": "",
          "type": "uint256"
        }
      ],
      "stateMutability": "view",
      "type": "function"
    },
    {
      "inputs": [
        {
          "internalType": "address",
          "name": "newOwner",
          "type": "address"
        }
      ],
      "name": "transferOwnership",
      "outputs": [],
      "stateMutability": "nonpayable",
      "type": "function"
    }
  ],
  "bytecode": "0x60806040523480156200001157600080fd5b506040516200166038038062001660833981810160405281019062000037919062000235565b33600073ffffffffffffffffffffffffffffffffffffffff168173ffffffffffffffffffffffffffffffffffffffff1603620000ad5760006040517f1e4fbdf7000000000000000000000000000000000000000000000000000000008152600401620000a491906200028c565b60405180910390fd5b620000be816200010760201b60201c565b5080600160006101000a81548173ffffffffffffffffffffffffffffffffffffffff021916908373ffffffffffffffffffffffffffffffffffffffff16021790555050620002a9565b60008060009054906101000a900473ffffffffffffffffffffffffffffffffffffffff169050816000806101000a81548173ffffffffffffffffffffffffffffffffffffffff021916908373ffffffffffffffffffffffffffffffffffffffff1602179055508173ffffffffffffffffffffffffffffffffffffffff168173ffffffffffffffffffffffffffffffffffffffff167f8be0079c531659141344cd1fd0a4f28419497f9722a3daafe3b4186f6b6457e060405160405180910390a35050565b600080fd5b600073ffffffffffffffffffffffffffffffffffffffff82169050919050565b6000620001fd82620001d0565b9050919050565b6200020f81620001f0565b81146200021b57600080fd5b50565b6000815190506200022f8162000204565b92915050565b6000602082840312156200024e576200024d620001cb565b5b60006200025e848285016200021e565b91505092915050565b60006200027482620001d0565b9050919050565b620002868162000267565b82525050565b6000602082019050620002a360008301846200027b565b92915050565b6113a780620002b96000396000f3fe6080604052600436106100865760003560e01c80638da5cb5b116100595780638da5cb5b14610124578063a26759cb1461014f578063a4b3d24714610159578063d25fa7f214610184578063f2fde38b146101c157610086565b80632ebe5a261461008b57806359fde1e0146100c857806363ec512d146100f1578063715018a61461010d575b600080fd5b34801561009757600080fd5b506100b260048036038101906100ad9190610a1c565b6101ea565b6040516100bf9190610a58565b60405180910390f35b3480156100d457600080fd5b506100ef60048036038101906100ea9190610a1c565b610202565b005b61010b60048036038101906101069190610a1c565b610707565b005b34801561011957600080fd5b50610122610777565b005b34801561013057600080fd5b5061013961078b565b6040516101469190610ab4565b60405180910390f35b6101576107b4565b005b34801561016557600080fd5b5061016e6107b6565b60405161017b9190610b2e565b60405180910390f35b34801561019057600080fd5b506101ab60048036038101906101a69190610a1c565b6107dc565b6040516101b89190610a58565b60405180910390f35b3480156101cd57600080fd5b506101e860048036038101906101e39190610b75565b6107f9565b005b60026020528060005260406000206000915090505481565b6000600260008381526020019081526020016000205490506000811161025d576040517f08c379a000000000000000000000000000000000000000000000000000000000815260040161025490610bff565b60405180910390fd5b600060028261026c9190610c7d565b90506000818361027c9190610cae565b90506000600160009054906101000a900473ffffffffffffffffffffffffffffffffffffffff1673ffffffffffffffffffffffffffffffffffffffff1663304cff30866040518263ffffffff1660e01b81526004016102db9190610a58565b600060405180830381865afa1580156102f8573d6000803e3d6000fd5b505050506040513d6000823e3d601f19601f820116820180604052508101906103219190610ea5565b5050505050925050506000600260008781526020019081526020016000208190555060008173ffffffffffffffffffffffffffffffffffffffff168460405161036990610fc4565b60006040518083038185875af1925050503d80600081146103a6576040519150601f19603f3d011682016040523d82523d6000602084013e6103ab565b606091505b50509050806103ef576040517f08c379a00000000000000000000000000000000000000000000000000000000081526004016103e690611025565b60405180910390fd5b6000600160009054906101000a900473ffffffffffffffffffffffffffffffffffffffff1673ffffffffffffffffffffffffffffffffffffffff1663c6ef551e886040518263ffffffff1660e01b815260040161044c9190610a58565b600060405180830381865afa158015610469573d6000803e3d6000fd5b505050506040513d6000823e3d601f19601f82011682018060405250810190610492919061110d565b90506000600160009054906101000a900473ffffffffffffffffffffffffffffffffffffffff1673ffffffffffffffffffffffffffffffffffffffff166337094179896040518263ffffffff1660e01b81526004016104f19190610a58565b602060405180830381865afa15801561050e573d6000803e3d6000fd5b505050506040513d601f19601f820116820180604052508101906105329190611156565b905060005b82518110156106fc576000600160009054906101000a900473ffffffffffffffffffffffffffffffffffffffff1673ffffffffffffffffffffffffffffffffffffffff1662fdd58e85848151811061059257610591611183565b5b60200260200101518c6040518363ffffffff1660e01b81526004016105b89291906111b2565b602060405180830381865afa1580156105d5573d6000803e3d6000fd5b505050506040513d601f19601f820116820180604052508101906105f99190611156565b905060008111156106e857600083828961061391906111db565b61061d9190610c7d565b9050600085848151811061063457610633611183565b5b602002602001015173ffffffffffffffffffffffffffffffffffffffff168260405161065f90610fc4565b60006040518083038185875af1925050503d806000811461069c576040519150601f19603f3d011682016040523d82523d6000602084013e6106a1565b606091505b50509050806106e5576040517f08c379a00000000000000000000000000000000000000000000000000000000081526004016106dc90611269565b60405180910390fd5b50505b5080806106f490611289565b915050610537565b505050505050505050565b6000341161074a576040517f08c379a00000000000000000000000000000000000000000000000000000000081526004016107419061131d565b60405180910390fd5b3460026000838152602001908152602001600020600082825461076d919061133d565b9250508190555050565b61077f61087f565b6107896000610906565b565b60008060009054906101000a900473ffffffffffffffffffffffffffffffffffffffff16905090565b565b600160009054906101000a900473ffffffffffffffffffffffffffffffffffffffff1681565b600060026000838152602001908152602001600020549050919050565b61080161087f565b600073ffffffffffffffffffffffffffffffffffffffff168173ffffffffffffffffffffffffffffffffffffffff16036108735760006040517f1e4fbdf700000000000000000000000000000000000000000000000000000000815260040161086a9190610ab4565b60405180910390fd5b61087c81610906565b50565b6108876109ca565b73ffffffffffffffffffffffffffffffffffffffff166108a561078b565b73ffffffffffffffffffffffffffffffffffffffff1614610904576108c86109ca565b6040517f118cdaa70000000000000000000000000000000000000000000000000000000081526004016108fb9190610ab4565b60405180910390fd5b565b60008060009054906101000a900473ffffffffffffffffffffffffffffffffffffffff169050816000806101000a81548173ffffffffffffffffffffffffffffffffffffffff021916908373ffffffffffffffffffffffffffffffffffffffff1602179055508173ffffffffffffffffffffffffffffffffffffffff168173ffffffffffffffffffffffffffffffffffffffff167f8be0079c531659141344cd1fd0a4f28419497f9722a3daafe3b4186f6b6457e060405160405180910390a35050565b600033905090565b6000604051905090565b600080fd5b600080fd5b6000819050919050565b6109f9816109e6565b8114610a0457600080fd5b50565b600081359050610a16816109f0565b92915050565b600060208284031215610a3257610a316109dc565b5b6000610a4084828501610a07565b91505092915050565b610a52816109e6565b82525050565b6000602082019050610a6d6000830184610a49565b92915050565b600073ffffffffffffffffffffffffffffffffffffffff82169050919050565b6000610a9e82610a73565b9050919050565b610aae81610a93565b82525050565b6000602082019050610ac96000830184610aa5565b92915050565b6000819050919050565b6000610af4610aef610aea84610a73565b610acf565b610a73565b9050919050565b6000610b0682610ad9565b9050919050565b6000610b1882610afb565b9050919050565b610b2881610b0d565b82525050565b6000602082019050610b436000830184610b1f565b92915050565b610b5281610a93565b8114610b5d57600080fd5b50565b600081359050610b6f81610b49565b92915050565b600060208284031215610b8b57610b8a6109dc565b5b6000610b9984828501610b60565b91505092915050565b600082825260208201905092915050565b7f4e6f20726576656e756520746f20646973747269627574650000000000000000600082015250565b6000610be9601883610ba2565b9150610bf482610bb3565b602082019050919050565b60006020820190508181036000830152610c1881610bdc565b9050919050565b7f4e487b7100000000000000000000000000000000000000000000000000000000600052601260045260246000fd5b7f4e487b7100000000000000000000000000000000000000000000000000000000600052601160045260246000fd5b6000610c88826109e6565b9150610c93836109e6565b925082610ca357610ca2610c1f565b5b828204905092915050565b6000610cb9826109e6565b9150610cc4836109e6565b9250828203905081811115610cdc57610cdb610c4e565b5b92915050565b600080fd5b600080fd5b6000601f19601f8301169050919050565b7f4e487b7100000000000000000000000000000000000000000000000000000000600052604160045260246000fd5b610d3582610cec565b810181811067ffffffffffffffff82111715610d5457610d53610cfd565b5b80604052505050565b6000610d676109d2565b9050610d738282610d2c565b919050565b600067ffffffffffffffff821115610d9357610d92610cfd565b5b610d9c82610cec565b9050602081019050919050565b60005b83811015610dc7578082015181840152602081019050610dac565b60008484015250505050565b6000610de6610de184610d78565b610d5d565b905082815260208101848484011115610e0257610e01610ce7565b5b610e0d848285610da9565b509392505050565b600082601f830112610e2a57610e29610ce2565b5b8151610e3a848260208601610dd3565b91505092915050565b600081519050610e5281610b49565b92915050565b600081519050610e67816109f0565b92915050565b60008115159050919050565b610e8281610e6d565b8114610e8d57600080fd5b50565b600081519050610e9f81610e79565b92915050565b600080600080600080600080610100898b031215610ec657610ec56109dc565b5b600089015167ffffffffffffffff811115610ee457610ee36109e1565b5b610ef08b828c01610e15565b985050602089015167ffffffffffffffff811115610f1157610f106109e1565b5b610f1d8b828c01610e15565b9750506040610f2e8b828c01610e43565b9650506060610f3f8b828c01610e58565b9550506080610f508b828c01610e58565b94505060a0610f618b828c01610e58565b93505060c0610f728b828c01610e90565b92505060e0610f838b828c01610e90565b9150509295985092959890939650565b600081905092915050565b50565b6000610fae600083610f93565b9150610fb982610f9e565b600082019050919050565b6000610fcf82610fa1565b9150819050919050565b7f5061796d656e7420746f20617274697374206661696c65640000000000000000600082015250565b600061100f601883610ba2565b915061101a82610fd9565b602082019050919050565b6000602082019050818103600083015261103e81611002565b9050919050565b600067ffffffffffffffff8211156110605761105f610cfd565b5b602082029050602081019050919050565b600080fd5b600061108961108484611045565b610d5d565b905080838252602082019050602084028301858111156110ac576110ab611071565b5b835b818110156110d557806110c18882610e43565b8452602084019350506020810190506110ae565b5050509392505050565b600082601f8301126110f4576110f3610ce2565b5b8151611104848260208601611076565b91505092915050565b600060208284031215611123576111226109dc565b5b600082015167ffffffffffffffff811115611141576111406109e1565b5b61114d848285016110df565b91505092915050565b60006020828403121561116c5761116b6109dc565b5b600061117a84828501610e58565b91505092915050565b7f4e487b7100000000000000000000000000000000000000000000000000000000600052603260045260246000fd5b60006040820190506111c76000830185610aa5565b6111d46020830184610a49565b9392505050565b60006111e6826109e6565b91506111f1836109e6565b92508282026111ff816109e6565b9150828204841483151761121657611215610c4e565b5b5092915050565b7f5061796d656e7420746f20686f6c646572206661696c65640000000000000000600082015250565b6000611253601883610ba2565b915061125e8261121d565b602082019050919050565b6000602082019050818103600083015261128281611246565b9050919050565b6000611294826109e6565b91507fffffffffffffffffffffffffffffffffffffffffffffffffffffffffffffffff82036112c6576112c5610c4e565b5b600182019050919050565b7f4d7573742073656e6420657468657220746f2061646420726576656e75650000600082015250565b6000611307601e83610ba2565b9150611312826112d1565b602082019050919050565b60006020820190508181036000830152611336816112fa565b9050919050565b6000611348826109e6565b9150611353836109e6565b925082820190508082111561136b5761136a610c4e565b5b9291505056fea26469706673582212205e51f94dcb0c6c7dcadfed95684e3a672c239ff581b167c22ef5fa3e0b16a54764736f6c63430008140033",
  "linkReferences": {},
  "deployedLinkReferences": {}
}