{
  "_format": "hh-sol-artifact-1",
  "contractName": "Fein",
  "sourceName": "contracts/Fein.sol",
  "abi": [
    {
      "inputs": [],
      "stateMutability": "nonpayable",
      "type": "constructor"
    },
    {
      "inputs": [
        {
          "internalType": "address",
          "name": "sender",
          "type": "address"
        },
        {
          "internalType": "uint256",
          "name": "balance",
          "type": "uint256"
        },
        {
          "internalType": "uint256",
          "name": "needed",
          "type": "uint256"
        },
        {
          "internalType": "uint256",
          "name": "tokenId",
          "type": "uint256"
        }
      ],
      "name": "ERC1155InsufficientBalance",
      "type": "error"
    },
    {
      "inputs": [
        {
          "internalType": "address",
          "name": "approver",
          "type": "address"
        }
      ],
      "name": "ERC1155InvalidApprover",
      "type": "error"
    },
    {
      "inputs": [
        {
          "internalType": "uint256",
          "name": "idsLength",
          "type": "uint256"
        },
        {
          "internalType": "uint256",
          "name": "valuesLength",
          "type": "uint256"
        }
      ],
      "name": "ERC1155InvalidArrayLength",
      "type": "error"
    },
    {
      "inputs": [
        {
          "internalType": "address",
          "name": "operator",
          "type": "address"
        }
      ],
      "name": "ERC1155InvalidOperator",
      "type": "error"
    },
    {
      "inputs": [
        {
          "internalType": "address",
          "name": "receiver",
          "type": "address"
        }
      ],
      "name": "ERC1155InvalidReceiver",
      "type": "error"
    },
    {
      "inputs": [
        {
          "internalType": "address",
          "name": "sender",
          "type": "address"
        }
      ],
      "name": "ERC1155InvalidSender",
      "type": "error"
    },
    {
      "inputs": [
        {
          "internalType": "address",
          "name": "operator",
          "type": "address"
        },
        {
          "internalType": "address",
          "name": "owner",
          "type": "address"
        }
      ],
      "name": "ERC1155MissingApprovalForAll",
      "type": "error"
    },
    {
      "anonymous": false,
      "inputs": [
        {
          "indexed": true,
          "internalType": "address",
          "name": "account",
          "type": "address"
        },
        {
          "indexed": true,
          "internalType": "address",
          "name": "operator",
          "type": "address"
        },
        {
          "indexed": false,
          "internalType": "bool",
          "name": "approved",
          "type": "bool"
        }
      ],
      "name": "ApprovalForAll",
      "type": "event"
    },
    {
      "anonymous": false,
      "inputs": [
        {
          "indexed": true,
          "internalType": "uint256",
          "name": "tokenId",
          "type": "uint256"
        },
        {
          "indexed": false,
          "internalType": "uint256",
          "name": "amount",
          "type": "uint256"
        }
      ],
      "name": "FundsAdded",
      "type": "event"
    },
    {
      "anonymous": false,
      "inputs": [
        {
          "indexed": true,
          "internalType": "uint256",
          "name": "tokenId",
          "type": "uint256"
        },
        {
          "indexed": true,
          "internalType": "address",
          "name": "creator",
          "type": "address"
        },
        {
          "indexed": false,
          "internalType": "uint256",
          "name": "totalSupply",
          "type": "uint256"
        },
        {
          "indexed": false,
          "internalType": "uint256",
          "name": "totalFractionalAmount",
          "type": "uint256"
        }
      ],
      "name": "NFTMinted",
      "type": "event"
    },
    {
      "anonymous": false,
      "inputs": [
        {
          "indexed": true,
          "internalType": "uint256",
          "name": "tokenId",
          "type": "uint256"
        },
        {
          "indexed": false,
          "internalType": "uint256",
          "name": "amount",
          "type": "uint256"
        }
      ],
      "name": "RevenueDistributed",
      "type": "event"
    },
    {
      "anonymous": false,
      "inputs": [
        {
          "indexed": true,
          "internalType": "uint256",
          "name": "tokenId",
          "type": "uint256"
        },
        {
          "indexed": true,
          "internalType": "address",
          "name": "buyer",
          "type": "address"
        },
        {
          "indexed": false,
          "internalType": "uint256",
          "name": "tokensPurchased",
          "type": "uint256"
        },
        {
          "indexed": false,
          "internalType": "uint256",
          "name": "amountPaid",
          "type": "uint256"
        }
      ],
      "name": "StakePurchased",
      "type": "event"
    },
    {
      "anonymous": false,
      "inputs": [
        {
          "indexed": true,
          "internalType": "address",
          "name": "operator",
          "type": "address"
        },
        {
          "indexed": true,
          "internalType": "address",
          "name": "from",
          "type": "address"
        },
        {
          "indexed": true,
          "internalType": "address",
          "name": "to",
          "type": "address"
        },
        {
          "indexed": false,
          "internalType": "uint256[]",
          "name": "ids",
          "type": "uint256[]"
        },
        {
          "indexed": false,
          "internalType": "uint256[]",
          "name": "values",
          "type": "uint256[]"
        }
      ],
      "name": "TransferBatch",
      "type": "event"
    },
    {
      "anonymous": false,
      "inputs": [
        {
          "indexed": true,
          "internalType": "address",
          "name": "operator",
          "type": "address"
        },
        {
          "indexed": true,
          "internalType": "address",
          "name": "from",
          "type": "address"
        },
        {
          "indexed": true,
          "internalType": "address",
          "name": "to",
          "type": "address"
        },
        {
          "indexed": false,
          "internalType": "uint256",
          "name": "id",
          "type": "uint256"
        },
        {
          "indexed": false,
          "internalType": "uint256",
          "name": "value",
          "type": "uint256"
        }
      ],
      "name": "TransferSingle",
      "type": "event"
    },
    {
      "anonymous": false,
      "inputs": [
        {
          "indexed": false,
          "internalType": "string",
          "name": "value",
          "type": "string"
        },
        {
          "indexed": true,
          "internalType": "uint256",
          "name": "id",
          "type": "uint256"
        }
      ],
      "name": "URI",
      "type": "event"
    },
    {
      "stateMutability": "payable",
      "type": "fallback"
    },
    {
      "inputs": [
        {
          "internalType": "uint256",
          "name": "tokenId",
          "type": "uint256"
        }
      ],
      "name": "addRevenueGen",
      "outputs": [],
      "stateMutability": "payable",
      "type": "function"
    },
    {
      "inputs": [
        {
          "internalType": "uint256",
          "name": "tokenId",
          "type": "uint256"
        }
      ],
      "name": "artistTokenSales",
      "outputs": [],
      "stateMutability": "payable",
      "type": "function"
    },
    {
      "inputs": [
        {
          "internalType": "address",
          "name": "account",
          "type": "address"
        },
        {
          "internalType": "uint256",
          "name": "id",
          "type": "uint256"
        }
      ],
      "name": "balanceOf",
      "outputs": [
        {
          "internalType": "uint256",
          "name": "",
          "type": "uint256"
        }
      ],
      "stateMutability": "view",
      "type": "function"
    },
    {
      "inputs": [
        {
          "internalType": "address[]",
          "name": "accounts",
          "type": "address[]"
        },
        {
          "internalType": "uint256[]",
          "name": "ids",
          "type": "uint256[]"
        }
      ],
      "name": "balanceOfBatch",
      "outputs": [
        {
          "internalType": "uint256[]",
          "name": "",
          "type": "uint256[]"
        }
      ],
      "stateMutability": "view",
      "type": "function"
    },
    {
      "inputs": [
        {
          "internalType": "uint256",
          "name": "tokenId",
          "type": "uint256"
        },
        {
          "internalType": "uint256",
          "name": "number",
          "type": "uint256"
        }
      ],
      "name": "buyStake",
      "outputs": [],
      "stateMutability": "payable",
      "type": "function"
    },
    {
      "inputs": [],
      "name": "contractOwner",
      "outputs": [
        {
          "internalType": "address",
          "name": "",
          "type": "address"
        }
      ],
      "stateMutability": "view",
      "type": "function"
    },
    {
      "inputs": [],
      "name": "currentTokenID",
      "outputs": [
        {
          "internalType": "uint256",
          "name": "",
          "type": "uint256"
        }
      ],
      "stateMutability": "view",
      "type": "function"
    },
    {
      "inputs": [
        {
          "internalType": "uint256",
          "name": "tokenId",
          "type": "uint256"
        }
      ],
      "name": "distributeRevenue",
      "outputs": [],
      "stateMutability": "payable",
      "type": "function"
    },
    {
      "inputs": [
        {
          "internalType": "uint256",
          "name": "",
          "type": "uint256"
        },
        {
          "internalType": "address",
          "name": "",
          "type": "address"
        }
      ],
      "name": "fractionalOwnership",
      "outputs": [
        {
          "internalType": "uint256",
          "name": "",
          "type": "uint256"
        }
      ],
      "stateMutability": "view",
      "type": "function"
    },
    {
      "inputs": [],
      "name": "getContractOwner",
      "outputs": [
        {
          "internalType": "address",
          "name": "",
          "type": "address"
        }
      ],
      "stateMutability": "view",
      "type": "function"
    },
    {
      "inputs": [
        {
          "internalType": "uint256",
          "name": "_tokenId",
          "type": "uint256"
        }
      ],
      "name": "getparticipants",
      "outputs": [
        {
          "internalType": "address[]",
          "name": "",
          "type": "address[]"
        }
      ],
      "stateMutability": "view",
      "type": "function"
    },
    {
      "inputs": [
        {
          "internalType": "uint256",
          "name": "_tokenid",
          "type": "uint256"
        }
      ],
      "name": "geturi",
      "outputs": [
        {
          "internalType": "string",
          "name": "",
          "type": "string"
        }
      ],
      "stateMutability": "view",
      "type": "function"
    },
    {
      "inputs": [
        {
          "internalType": "address",
          "name": "account",
          "type": "address"
        },
        {
          "internalType": "address",
          "name": "operator",
          "type": "address"
        }
      ],
      "name": "isApprovedForAll",
      "outputs": [
        {
          "internalType": "bool",
          "name": "",
          "type": "bool"
        }
      ],
      "stateMutability": "view",
      "type": "function"
    },
    {
      "inputs": [
        {
          "internalType": "uint256",
          "name": "_totalSupply",
          "type": "uint256"
        },
        {
          "internalType": "uint256",
          "name": "_totalFractionalAmount",
          "type": "uint256"
        },
        {
          "internalType": "uint256",
          "name": "_percentageShare",
          "type": "uint256"
        }
      ],
      "name": "mintNFT",
      "outputs": [
        {
          "internalType": "uint256",
          "name": "",
          "type": "uint256"
        }
      ],
      "stateMutability": "nonpayable",
      "type": "function"
    },
    {
      "inputs": [
        {
          "internalType": "uint256",
          "name": "",
          "type": "uint256"
        },
        {
          "internalType": "uint256",
          "name": "",
          "type": "uint256"
        }
      ],
      "name": "participants",
      "outputs": [
        {
          "internalType": "address",
          "name": "",
          "type": "address"
        }
      ],
      "stateMutability": "view",
      "type": "function"
    },
    {
      "inputs": [
        {
          "internalType": "uint256",
          "name": "tokenId",
          "type": "uint256"
        }
      ],
      "name": "releaseSong",
      "outputs": [],
      "stateMutability": "nonpayable",
      "type": "function"
    },
    {
      "inputs": [
        {
          "internalType": "address",
          "name": "from",
          "type": "address"
        },
        {
          "internalType": "address",
          "name": "to",
          "type": "address"
        },
        {
          "internalType": "uint256[]",
          "name": "ids",
          "type": "uint256[]"
        },
        {
          "internalType": "uint256[]",
          "name": "values",
          "type": "uint256[]"
        },
        {
          "internalType": "bytes",
          "name": "data",
          "type": "bytes"
        }
      ],
      "name": "safeBatchTransferFrom",
      "outputs": [],
      "stateMutability": "nonpayable",
      "type": "function"
    },
    {
      "inputs": [
        {
          "internalType": "address",
          "name": "from",
          "type": "address"
        },
        {
          "internalType": "address",
          "name": "to",
          "type": "address"
        },
        {
          "internalType": "uint256",
          "name": "id",
          "type": "uint256"
        },
        {
          "internalType": "uint256",
          "name": "value",
          "type": "uint256"
        },
        {
          "internalType": "bytes",
          "name": "data",
          "type": "bytes"
        }
      ],
      "name": "safeTransferFrom",
      "outputs": [],
      "stateMutability": "nonpayable",
      "type": "function"
    },
    {
      "inputs": [
        {
          "internalType": "address",
          "name": "operator",
          "type": "address"
        },
        {
          "internalType": "bool",
          "name": "approved",
          "type": "bool"
        }
      ],
      "name": "setApprovalForAll",
      "outputs": [],
      "stateMutability": "nonpayable",
      "type": "function"
    },
    {
      "inputs": [
        {
          "internalType": "bytes4",
          "name": "interfaceId",
          "type": "bytes4"
        }
      ],
      "name": "supportsInterface",
      "outputs": [
        {
          "internalType": "bool",
          "name": "",
          "type": "bool"
        }
      ],
      "stateMutability": "view",
      "type": "function"
    },
    {
      "inputs": [
        {
          "internalType": "uint256",
          "name": "",
          "type": "uint256"
        }
      ],
      "name": "tokenData",
      "outputs": [
        {
          "internalType": "uint256",
          "name": "tokenSupply",
          "type": "uint256"
        },
        {
          "internalType": "string",
          "name": "uri",
          "type": "string"
        },
        {
          "internalType": "address",
          "name": "creator",
          "type": "address"
        },
        {
          "internalType": "uint256",
          "name": "countoftotalsupply",
          "type": "uint256"
        },
        {
          "internalType": "uint256",
          "name": "fundsCollected",
          "type": "uint256"
        },
        {
          "internalType": "uint256",
          "name": "revenue",
          "type": "uint256"
        },
        {
          "internalType": "uint256",
          "name": "totalFractionalAmount",
          "type": "uint256"
        },
        {
          "internalType": "bool",
          "name": "soldOut",
          "type": "bool"
        },
        {
          "internalType": "bool",
          "name": "isReleased",
          "type": "bool"
        },
        {
          "internalType": "uint256",
          "name": "percentageShare",
          "type": "uint256"
        },
        {
          "internalType": "uint256",
          "name": "pricePerToken",
          "type": "uint256"
        }
      ],
      "stateMutability": "view",
      "type": "function"
    },
    {
      "inputs": [
        {
          "internalType": "uint256",
          "name": "",
          "type": "uint256"
        }
      ],
      "name": "uri",
      "outputs": [
        {
          "internalType": "string",
          "name": "",
          "type": "string"
        }
      ],
      "stateMutability": "view",
      "type": "function"
    },
    {
      "inputs": [
        {
          "internalType": "uint256",
          "name": "tokenId",
          "type": "uint256"
        }
      ],
      "name": "withdrawFunds",
      "outputs": [],
      "stateMutability": "nonpayable",
      "type": "function"
    },
    {
      "inputs": [],
      "name": "withdrawToOwner",
      "outputs": [],
      "stateMutability": "payable",
      "type": "function"
    },
    {
      "stateMutability": "payable",
      "type": "receive"
    }
  ],
  "bytecode": "0x608060405260006003553480156200001657600080fd5b506040518060a001604052806068815260200162004a5e6068913962000042816200008a60201b60201c565b5033600460006101000a81548173ffffffffffffffffffffffffffffffffffffffff021916908373ffffffffffffffffffffffffffffffffffffffff16021790555062000400565b80600290816200009b919062000319565b5050565b600081519050919050565b7f4e487b7100000000000000000000000000000000000000000000000000000000600052604160045260246000fd5b7f4e487b7100000000000000000000000000000000000000000000000000000000600052602260045260246000fd5b600060028204905060018216806200012157607f821691505b602082108103620001375762000136620000d9565b5b50919050565b60008190508160005260206000209050919050565b60006020601f8301049050919050565b600082821b905092915050565b600060088302620001a17fffffffffffffffffffffffffffffffffffffffffffffffffffffffffffffffff8262000162565b620001ad868362000162565b95508019841693508086168417925050509392505050565b6000819050919050565b6000819050919050565b6000620001fa620001f4620001ee84620001c5565b620001cf565b620001c5565b9050919050565b6000819050919050565b6200021683620001d9565b6200022e620002258262000201565b8484546200016f565b825550505050565b600090565b6200024562000236565b620002528184846200020b565b505050565b5b818110156200027a576200026e6000826200023b565b60018101905062000258565b5050565b601f821115620002c95762000293816200013d565b6200029e8462000152565b81016020851015620002ae578190505b620002c6620002bd8562000152565b83018262000257565b50505b505050565b600082821c905092915050565b6000620002ee60001984600802620002ce565b1980831691505092915050565b6000620003098383620002db565b9150826002028217905092915050565b62000324826200009f565b67ffffffffffffffff81111562000340576200033f620000aa565b5b6200034c825462000108565b620003598282856200027e565b600060209050601f8311600181146200039157600084156200037c578287015190505b620003888582620002fb565b865550620003f8565b601f198416620003a1866200013d565b60005b82811015620003cb57848901518255600182019150602085019450602081019050620003a4565b86831015620003eb5784890151620003e7601f891682620002db565b8355505b6001600288020188555050505b505050505050565b61464e80620004106000396000f3fe60806040526004361061014e5760003560e01c80634dc70474116100b6578063bb62115e1161006f578063bb62115e146104b3578063c6938462146104de578063ce606ee01461051b578063d2facde114610546578063e985e9c514610562578063f242432a1461059f57610155565b80634dc70474146103915780634e1273f4146103ad57806359fde1e0146103ea57806381fb1fb414610406578063a22cb46514610443578063b4b5b48f1461046c57610155565b806317c6ab401161010857806317c6ab401461027c5780631d50869d146102b95780632eb2c2d6146102f65780633cb40e161461031f578063442890d514610329578063449094851461035457610155565b8062fdd58e1461015757806301ffc9a71461019457806303c67a45146101d15780630524d050146101fa5780630e89341c14610216578063155dd5ee1461025357610155565b3661015557005b005b34801561016357600080fd5b5061017e60048036038101906101799190612d1f565b6105c8565b60405161018b9190612d6e565b60405180910390f35b3480156101a057600080fd5b506101bb60048036038101906101b69190612de1565b610622565b6040516101c89190612e29565b60405180910390f35b3480156101dd57600080fd5b506101f860048036038101906101f39190612e44565b610704565b005b610214600480360381019061020f9190612e71565b6107a0565b005b34801561022257600080fd5b5061023d60048036038101906102389190612e44565b610b46565b60405161024a9190612f41565b60405180910390f35b34801561025f57600080fd5b5061027a60048036038101906102759190612e44565b610bda565b005b34801561028857600080fd5b506102a3600480360381019061029e9190612f63565b610d35565b6040516102b09190612d6e565b60405180910390f35b3480156102c557600080fd5b506102e060048036038101906102db9190612fa3565b610d5a565b6040516102ed9190612d6e565b60405180910390f35b34801561030257600080fd5b5061031d600480360381019061031891906131f3565b610fc9565b005b610327611071565b005b34801561033557600080fd5b5061033e611103565b60405161034b91906132d1565b60405180910390f35b34801561036057600080fd5b5061037b60048036038101906103769190612e44565b61112d565b60405161038891906133aa565b60405180910390f35b6103ab60048036038101906103a69190612e44565b6111ce565b005b3480156103b957600080fd5b506103d460048036038101906103cf919061348f565b61135e565b6040516103e191906135c5565b60405180910390f35b61040460048036038101906103ff9190612e44565b61146d565b005b34801561041257600080fd5b5061042d60048036038101906104289190612e71565b611894565b60405161043a91906132d1565b60405180910390f35b34801561044f57600080fd5b5061046a60048036038101906104659190613613565b6118e2565b005b34801561047857600080fd5b50610493600480360381019061048e9190612e44565b6118f8565b6040516104aa9b9a99989796959493929190613653565b60405180910390f35b3480156104bf57600080fd5b506104c8611a14565b6040516104d59190612d6e565b60405180910390f35b3480156104ea57600080fd5b5061050560048036038101906105009190612e44565b611a1a565b6040516105129190612f41565b60405180910390f35b34801561052757600080fd5b50610530611ac2565b60405161053d91906132d1565b60405180910390f35b610560600480360381019061055b9190612e44565b611ae8565b005b34801561056e57600080fd5b5061058960048036038101906105849190613705565b611c7c565b6040516105969190612e29565b60405180910390f35b3480156105ab57600080fd5b506105c660048036038101906105c19190613745565b611d10565b005b600080600083815260200190815260200160002060008473ffffffffffffffffffffffffffffffffffffffff1673ffffffffffffffffffffffffffffffffffffffff16815260200190815260200160002054905092915050565b60007fd9b67a26000000000000000000000000000000000000000000000000000000007bffffffffffffffffffffffffffffffffffffffffffffffffffffffff1916827bffffffffffffffffffffffffffffffffffffffffffffffffffffffff191614806106ed57507f0e89341c000000000000000000000000000000000000000000000000000000007bffffffffffffffffffffffffffffffffffffffffffffffffffffffff1916827bffffffffffffffffffffffffffffffffffffffffffffffffffffffff1916145b806106fd57506106fc82611db8565b5b9050919050565b600015156005600083815260200190815260200160002060070160019054906101000a900460ff1615151461076e576040517f08c379a000000000000000000000000000000000000000000000000000000000815260040161076590613828565b60405180910390fd5b60016005600083815260200190815260200160002060070160016101000a81548160ff02191690831515021790555050565b600060056000848152602001908152602001600020600001549050600015156005600085815260200190815260200160002060070160009054906101000a900460ff16151514610825576040517f08c379a000000000000000000000000000000000000000000000000000000000815260040161081c90613894565b60405180910390fd5b60008111610868576040517f08c379a000000000000000000000000000000000000000000000000000000000815260040161085f90613926565b60405180910390fd5b818110156108ab576040517f08c379a00000000000000000000000000000000000000000000000000000000081526004016108a2906139b8565b60405180910390fd5b60008260056000868152602001908152602001600020600901546108cf9190613a07565b905080341015610914576040517f08c379a000000000000000000000000000000000000000000000000000000000815260040161090b90613a95565b60405180910390fd5b60006007600086815260200190815260200160002060003373ffffffffffffffffffffffffffffffffffffffff1673ffffffffffffffffffffffffffffffffffffffff16815260200190815260200160002054036109e15760066000858152602001908152602001600020339080600181540180825580915050600190039060005260206000200160009091909190916101000a81548173ffffffffffffffffffffffffffffffffffffffff021916908373ffffffffffffffffffffffffffffffffffffffff1602179055505b6007600085815260200190815260200160002060003373ffffffffffffffffffffffffffffffffffffffff1673ffffffffffffffffffffffffffffffffffffffff1681526020019081526020016000206000815480929190610a4290613ab5565b919050555034600560008681526020019081526020016000206004016000828254610a6d9190613afd565b9250508190555082600560008681526020019081526020016000206000016000828254610a9a9190613b31565b925050819055503373ffffffffffffffffffffffffffffffffffffffff16847f24b22275ff9f36a2d0d5a5564c044f4618382392dab42d26cdfa0ff9cd9850d88584604051610aea929190613b65565b60405180910390a36000600560008681526020019081526020016000206000015403610b405760016005600086815260200190815260200160002060070160006101000a81548160ff0219169083151502179055505b50505050565b606060028054610b5590613bbd565b80601f0160208091040260200160405190810160405280929190818152602001828054610b8190613bbd565b8015610bce5780601f10610ba357610100808354040283529160200191610bce565b820191906000526020600020905b815481529060010190602001808311610bb157829003601f168201915b50505050509050919050565b600460009054906101000a900473ffffffffffffffffffffffffffffffffffffffff1673ffffffffffffffffffffffffffffffffffffffff163373ffffffffffffffffffffffffffffffffffffffff1614610c6a576040517f08c379a0000000000000000000000000000000000000000000000000000000008152600401610c6190613c3a565b60405180910390fd5b60006005600083815260200190815260200160002060050154905060008111610cc8576040517f08c379a0000000000000000000000000000000000000000000000000000000008152600401610cbf90613ca6565b60405180910390fd5b600460009054906101000a900473ffffffffffffffffffffffffffffffffffffffff1673ffffffffffffffffffffffffffffffffffffffff166108fc829081150290604051600060405180830381858888f19350505050158015610d30573d6000803e3d6000fd5b505050565b6007602052816000526040600020602052806000526040600020600091509150505481565b6000806003549050610d7d33828760405180602001604052806000815250611e22565b610d8681611ebb565b604051602001610d969190613e0c565b604051602081830303815290604052600560008381526020019081526020016000206001019081610dc79190613fe5565b50846005600083815260200190815260200160002060000181905550846005600083815260200190815260200160002060030181905550336005600083815260200190815260200160002060020160006101000a81548173ffffffffffffffffffffffffffffffffffffffff021916908373ffffffffffffffffffffffffffffffffffffffff1602179055508360056000838152602001908152602001600020600601819055506000600560008381526020019081526020016000206004018190555060036000815480929190610e9d90613ab5565b919050555060006005600083815260200190815260200160002060070160006101000a81548160ff02191690831515021790555060006005600083815260200190815260200160002060070160016101000a81548160ff02191690831515021790555082600560008381526020019081526020016000206008018190555060056000828152602001908152602001600020600301546005600083815260200190815260200160002060060154610f5391906140e6565b60056000838152602001908152602001600020600901819055503373ffffffffffffffffffffffffffffffffffffffff16817f0713ae16a171f65c6877fd4bff12d9157605b607ef798a53c771cbadd0892ff48787604051610fb6929190613b65565b60405180910390a3809150509392505050565b6000610fd3611f89565b90508073ffffffffffffffffffffffffffffffffffffffff168673ffffffffffffffffffffffffffffffffffffffff161415801561101857506110168682611c7c565b155b1561105c5780866040517fe237d922000000000000000000000000000000000000000000000000000000008152600401611053929190614117565b60405180910390fd5b6110698686868686611f91565b505050505050565b600460009054906101000a900473ffffffffffffffffffffffffffffffffffffffff1673ffffffffffffffffffffffffffffffffffffffff163373ffffffffffffffffffffffffffffffffffffffff1614611101576040517f08c379a00000000000000000000000000000000000000000000000000000000081526004016110f890613c3a565b60405180910390fd5b565b6000600460009054906101000a900473ffffffffffffffffffffffffffffffffffffffff16905090565b6060600660008381526020019081526020016000208054806020026020016040519081016040528092919081815260200182805480156111c257602002820191906000526020600020905b8160009054906101000a900473ffffffffffffffffffffffffffffffffffffffff1673ffffffffffffffffffffffffffffffffffffffff1681526020019060010190808311611178575b50505050509050919050565b600460009054906101000a900473ffffffffffffffffffffffffffffffffffffffff1673ffffffffffffffffffffffffffffffffffffffff163373ffffffffffffffffffffffffffffffffffffffff161461125e576040517f08c379a000000000000000000000000000000000000000000000000000000000815260040161125590613c3a565b60405180910390fd5b600115156005600083815260200190815260200160002060070160019054906101000a900460ff161515146112c8576040517f08c379a00000000000000000000000000000000000000000000000000000000081526004016112bf9061418c565b60405180910390fd5b6005600082815260200190815260200160002060020160009054906101000a900473ffffffffffffffffffffffffffffffffffffffff1673ffffffffffffffffffffffffffffffffffffffff166108fc60056000848152602001908152602001600020600401549081150290604051600060405180830381858888f1935050505015801561135a573d6000803e3d6000fd5b5050565b606081518351146113aa57815183516040517f5b0599910000000000000000000000000000000000000000000000000000000081526004016113a1929190613b65565b60405180910390fd5b6000835167ffffffffffffffff8111156113c7576113c6612ffb565b5b6040519080825280602002602001820160405280156113f55781602001602082028036833780820191505090505b50905060005b84518110156114625761143261141a828761208990919063ffffffff16565b61142d838761209d90919063ffffffff16565b6105c8565b828281518110611445576114446141ac565b5b6020026020010181815250508061145b90613ab5565b90506113fb565b508091505092915050565b600460009054906101000a900473ffffffffffffffffffffffffffffffffffffffff1673ffffffffffffffffffffffffffffffffffffffff163373ffffffffffffffffffffffffffffffffffffffff16146114fd576040517f08c379a00000000000000000000000000000000000000000000000000000000081526004016114f490613c3a565b60405180910390fd5b60006064600560008481526020019081526020016000206008015460056000858152602001908152602001600020600501546115399190613a07565b61154391906140e6565b9050600115156005600084815260200190815260200160002060070160019054906101000a900460ff161515146115af576040517f08c379a00000000000000000000000000000000000000000000000000000000081526004016115a69061424d565b60405180910390fd5b600081116115f2576040517f08c379a00000000000000000000000000000000000000000000000000000000081526004016115e9906142df565b60405180910390fd5b60006005600084815260200190815260200160002060060154905060008111611650576040517f08c379a00000000000000000000000000000000000000000000000000000000081526004016116479061434b565b60405180910390fd5b60005b60066000858152602001908152602001600020805490508110156117b2576000600660008681526020019081526020016000208281548110611698576116976141ac565b5b9060005260206000200160009054906101000a900473ffffffffffffffffffffffffffffffffffffffff16905060006007600087815260200190815260200160002060008373ffffffffffffffffffffffffffffffffffffffff1673ffffffffffffffffffffffffffffffffffffffff168152602001908152602001600020549050600081111561179d576000600560008881526020019081526020016000206003015482876117489190613a07565b61175291906140e6565b90508273ffffffffffffffffffffffffffffffffffffffff166108fc829081150290604051600060405180830381858888f1935050505015801561179a573d6000803e3d6000fd5b50505b505080806117aa90613ab5565b915050611653565b5060008260056000868152602001908152602001600020600501546117d79190613b31565b90506005600085815260200190815260200160002060020160009054906101000a900473ffffffffffffffffffffffffffffffffffffffff1673ffffffffffffffffffffffffffffffffffffffff166108fc829081150290604051600060405180830381858888f19350505050158015611855573d6000803e3d6000fd5b50837ff2838e4b541f90d41a1076a560d75e948f7d1008e72118a655568626a30b451f846040516118869190612d6e565b60405180910390a250505050565b600660205281600052604060002081815481106118b057600080fd5b906000526020600020016000915091509054906101000a900473ffffffffffffffffffffffffffffffffffffffff1681565b6118f46118ed611f89565b83836120b1565b5050565b600560205280600052604060002060009150905080600001549080600101805461192190613bbd565b80601f016020809104026020016040519081016040528092919081815260200182805461194d90613bbd565b801561199a5780601f1061196f5761010080835404028352916020019161199a565b820191906000526020600020905b81548152906001019060200180831161197d57829003601f168201915b5050505050908060020160009054906101000a900473ffffffffffffffffffffffffffffffffffffffff16908060030154908060040154908060050154908060060154908060070160009054906101000a900460ff16908060070160019054906101000a900460ff1690806008015490806009015490508b565b60035481565b6060600560008381526020019081526020016000206001018054611a3d90613bbd565b80601f0160208091040260200160405190810160405280929190818152602001828054611a6990613bbd565b8015611ab65780601f10611a8b57610100808354040283529160200191611ab6565b820191906000526020600020905b815481529060010190602001808311611a9957829003601f168201915b50505050509050919050565b600460009054906101000a900473ffffffffffffffffffffffffffffffffffffffff1681565b600460009054906101000a900473ffffffffffffffffffffffffffffffffffffffff1673ffffffffffffffffffffffffffffffffffffffff163373ffffffffffffffffffffffffffffffffffffffff1614611b78576040517f08c379a0000000000000000000000000000000000000000000000000000000008152600401611b6f90613c3a565b60405180910390fd5b6000600560008381526020019081526020016000206006015411611bd1576040517f08c379a0000000000000000000000000000000000000000000000000000000008152600401611bc8906143b7565b60405180910390fd5b60003411611c14576040517f08c379a0000000000000000000000000000000000000000000000000000000008152600401611c0b90614423565b60405180910390fd5b34600560008381526020019081526020016000206005016000828254611c3a9190613afd565b92505081905550807ff5e4934928a1e45d88c7a5aa2661fe0a801ca5017922e15122d74f1880155e1a34604051611c719190612d6e565b60405180910390a250565b6000600160008473ffffffffffffffffffffffffffffffffffffffff1673ffffffffffffffffffffffffffffffffffffffff16815260200190815260200160002060008373ffffffffffffffffffffffffffffffffffffffff1673ffffffffffffffffffffffffffffffffffffffff16815260200190815260200160002060009054906101000a900460ff16905092915050565b6000611d1a611f89565b90508073ffffffffffffffffffffffffffffffffffffffff168673ffffffffffffffffffffffffffffffffffffffff1614158015611d5f5750611d5d8682611c7c565b155b15611da35780866040517fe237d922000000000000000000000000000000000000000000000000000000008152600401611d9a929190614117565b60405180910390fd5b611db08686868686612221565b505050505050565b60007f01ffc9a7000000000000000000000000000000000000000000000000000000007bffffffffffffffffffffffffffffffffffffffffffffffffffffffff1916827bffffffffffffffffffffffffffffffffffffffffffffffffffffffff1916149050919050565b600073ffffffffffffffffffffffffffffffffffffffff168473ffffffffffffffffffffffffffffffffffffffff1603611e945760006040517f57f447ce000000000000000000000000000000000000000000000000000000008152600401611e8b91906132d1565b60405180910390fd5b600080611ea1858561232c565b91509150611eb360008784848761235c565b505050505050565b606060006001611eca8461240e565b01905060008167ffffffffffffffff811115611ee957611ee8612ffb565b5b6040519080825280601f01601f191660200182016040528015611f1b5781602001600182028036833780820191505090505b509050600082602001820190505b600115611f7e578080600190039150507f3031323334353637383961626364656600000000000000000000000000000000600a86061a8153600a8581611f7257611f716140b7565b5b04945060008503611f29575b819350505050919050565b600033905090565b600073ffffffffffffffffffffffffffffffffffffffff168473ffffffffffffffffffffffffffffffffffffffff16036120035760006040517f57f447ce000000000000000000000000000000000000000000000000000000008152600401611ffa91906132d1565b60405180910390fd5b600073ffffffffffffffffffffffffffffffffffffffff168573ffffffffffffffffffffffffffffffffffffffff16036120755760006040517f01a8351400000000000000000000000000000000000000000000000000000000815260040161206c91906132d1565b60405180910390fd5b612082858585858561235c565b5050505050565b600060208202602084010151905092915050565b600060208202602084010151905092915050565b600073ffffffffffffffffffffffffffffffffffffffff168273ffffffffffffffffffffffffffffffffffffffff16036121235760006040517fced3e10000000000000000000000000000000000000000000000000000000000815260040161211a91906132d1565b60405180910390fd5b80600160008573ffffffffffffffffffffffffffffffffffffffff1673ffffffffffffffffffffffffffffffffffffffff16815260200190815260200160002060008473ffffffffffffffffffffffffffffffffffffffff1673ffffffffffffffffffffffffffffffffffffffff16815260200190815260200160002060006101000a81548160ff0219169083151502179055508173ffffffffffffffffffffffffffffffffffffffff168373ffffffffffffffffffffffffffffffffffffffff167f17307eab39ab6107e8899845ad3d59bd9653f200f220920489ca2b5937696c31836040516122149190612e29565b60405180910390a3505050565b600073ffffffffffffffffffffffffffffffffffffffff168473ffffffffffffffffffffffffffffffffffffffff16036122935760006040517f57f447ce00000000000000000000000000000000000000000000000000000000815260040161228a91906132d1565b60405180910390fd5b600073ffffffffffffffffffffffffffffffffffffffff168573ffffffffffffffffffffffffffffffffffffffff16036123055760006040517f01a835140000000000000000000000000000000000000000000000000000000081526004016122fc91906132d1565b60405180910390fd5b600080612312858561232c565b91509150612323878784848761235c565b50505050505050565b60608060405191506001825283602083015260408201905060018152826020820152604081016040529250929050565b61236885858585612561565b600073ffffffffffffffffffffffffffffffffffffffff168473ffffffffffffffffffffffffffffffffffffffff16146124075760006123a6611f89565b905060018451036123f65760006123c760008661209d90919063ffffffff16565b905060006123df60008661209d90919063ffffffff16565b90506123ef83898985858961290f565b5050612405565b612404818787878787612ac3565b5b505b5050505050565b600080600090507a184f03e93ff9f4daa797ed6e38ed64bf6a1f010000000000000000831061246c577a184f03e93ff9f4daa797ed6e38ed64bf6a1f0100000000000000008381612462576124616140b7565b5b0492506040810190505b6d04ee2d6d415b85acef810000000083106124a9576d04ee2d6d415b85acef8100000000838161249f5761249e6140b7565b5b0492506020810190505b662386f26fc1000083106124d857662386f26fc1000083816124ce576124cd6140b7565b5b0492506010810190505b6305f5e1008310612501576305f5e10083816124f7576124f66140b7565b5b0492506008810190505b612710831061252657612710838161251c5761251b6140b7565b5b0492506004810190505b60648310612549576064838161253f5761253e6140b7565b5b0492506002810190505b600a8310612558576001810190505b80915050919050565b80518251146125ab57815181516040517f5b0599910000000000000000000000000000000000000000000000000000000081526004016125a2929190613b65565b60405180910390fd5b60006125b5611f89565b905060005b83518110156127ca5760006125d8828661209d90919063ffffffff16565b905060006125ef838661209d90919063ffffffff16565b9050600073ffffffffffffffffffffffffffffffffffffffff168873ffffffffffffffffffffffffffffffffffffffff161461271c57600080600084815260200190815260200160002060008a73ffffffffffffffffffffffffffffffffffffffff1673ffffffffffffffffffffffffffffffffffffffff168152602001908152602001600020549050818110156126c457888183856040517f03dee4c50000000000000000000000000000000000000000000000000000000081526004016126bb9493929190614443565b60405180910390fd5b81810360008085815260200190815260200160002060008b73ffffffffffffffffffffffffffffffffffffffff1673ffffffffffffffffffffffffffffffffffffffff16815260200190815260200160002081905550505b600073ffffffffffffffffffffffffffffffffffffffff168773ffffffffffffffffffffffffffffffffffffffff16146127b7578060008084815260200190815260200160002060008973ffffffffffffffffffffffffffffffffffffffff1673ffffffffffffffffffffffffffffffffffffffff16815260200190815260200160002060008282546127af9190613afd565b925050819055505b5050806127c390613ab5565b90506125ba565b5060018351036128895760006127ea60008561209d90919063ffffffff16565b9050600061280260008561209d90919063ffffffff16565b90508573ffffffffffffffffffffffffffffffffffffffff168773ffffffffffffffffffffffffffffffffffffffff168473ffffffffffffffffffffffffffffffffffffffff167fc3d58168c5ae7397731d063d5bbf3d657854427343f4c083240f7aacaa2d0f62858560405161287a929190613b65565b60405180910390a45050612908565b8373ffffffffffffffffffffffffffffffffffffffff168573ffffffffffffffffffffffffffffffffffffffff168273ffffffffffffffffffffffffffffffffffffffff167f4a39dc06d4c0dbc64b70af90fd698a233a518aa5d07e595d983b8c0526c8f7fb86866040516128ff929190614488565b60405180910390a45b5050505050565b60008473ffffffffffffffffffffffffffffffffffffffff163b1115612abb578373ffffffffffffffffffffffffffffffffffffffff1663f23a6e6187878686866040518663ffffffff1660e01b8152600401612970959493929190614514565b6020604051808303816000875af19250505080156129ac57506040513d601f19601f820116820180604052508101906129a99190614583565b60015b612a30573d80600081146129dc576040519150601f19603f3d011682016040523d82523d6000602084013e6129e1565b606091505b506000815103612a2857846040517f57f447ce000000000000000000000000000000000000000000000000000000008152600401612a1f91906132d1565b60405180910390fd5b805181602001fd5b63f23a6e6160e01b7bffffffffffffffffffffffffffffffffffffffffffffffffffffffff1916817bffffffffffffffffffffffffffffffffffffffffffffffffffffffff191614612ab957846040517f57f447ce000000000000000000000000000000000000000000000000000000008152600401612ab091906132d1565b60405180910390fd5b505b505050505050565b60008473ffffffffffffffffffffffffffffffffffffffff163b1115612c6f578373ffffffffffffffffffffffffffffffffffffffff1663bc197c8187878686866040518663ffffffff1660e01b8152600401612b249594939291906145b0565b6020604051808303816000875af1925050508015612b6057506040513d601f19601f82011682018060405250810190612b5d9190614583565b60015b612be4573d8060008114612b90576040519150601f19603f3d011682016040523d82523d6000602084013e612b95565b606091505b506000815103612bdc57846040517f57f447ce000000000000000000000000000000000000000000000000000000008152600401612bd391906132d1565b60405180910390fd5b805181602001fd5b63bc197c8160e01b7bffffffffffffffffffffffffffffffffffffffffffffffffffffffff1916817bffffffffffffffffffffffffffffffffffffffffffffffffffffffff191614612c6d57846040517f57f447ce000000000000000000000000000000000000000000000000000000008152600401612c6491906132d1565b60405180910390fd5b505b505050505050565b6000604051905090565b600080fd5b600080fd5b600073ffffffffffffffffffffffffffffffffffffffff82169050919050565b6000612cb682612c8b565b9050919050565b612cc681612cab565b8114612cd157600080fd5b50565b600081359050612ce381612cbd565b92915050565b6000819050919050565b612cfc81612ce9565b8114612d0757600080fd5b50565b600081359050612d1981612cf3565b92915050565b60008060408385031215612d3657612d35612c81565b5b6000612d4485828601612cd4565b9250506020612d5585828601612d0a565b9150509250929050565b612d6881612ce9565b82525050565b6000602082019050612d836000830184612d5f565b92915050565b60007fffffffff0000000000000000000000000000000000000000000000000000000082169050919050565b612dbe81612d89565b8114612dc957600080fd5b50565b600081359050612ddb81612db5565b92915050565b600060208284031215612df757612df6612c81565b5b6000612e0584828501612dcc565b91505092915050565b60008115159050919050565b612e2381612e0e565b82525050565b6000602082019050612e3e6000830184612e1a565b92915050565b600060208284031215612e5a57612e59612c81565b5b6000612e6884828501612d0a565b91505092915050565b60008060408385031215612e8857612e87612c81565b5b6000612e9685828601612d0a565b9250506020612ea785828601612d0a565b9150509250929050565b600081519050919050565b600082825260208201905092915050565b60005b83811015612eeb578082015181840152602081019050612ed0565b60008484015250505050565b6000601f19601f8301169050919050565b6000612f1382612eb1565b612f1d8185612ebc565b9350612f2d818560208601612ecd565b612f3681612ef7565b840191505092915050565b60006020820190508181036000830152612f5b8184612f08565b905092915050565b60008060408385031215612f7a57612f79612c81565b5b6000612f8885828601612d0a565b9250506020612f9985828601612cd4565b9150509250929050565b600080600060608486031215612fbc57612fbb612c81565b5b6000612fca86828701612d0a565b9350506020612fdb86828701612d0a565b9250506040612fec86828701612d0a565b9150509250925092565b600080fd5b7f4e487b7100000000000000000000000000000000000000000000000000000000600052604160045260246000fd5b61303382612ef7565b810181811067ffffffffffffffff8211171561305257613051612ffb565b5b80604052505050565b6000613065612c77565b9050613071828261302a565b919050565b600067ffffffffffffffff82111561309157613090612ffb565b5b602082029050602081019050919050565b600080fd5b60006130ba6130b584613076565b61305b565b905080838252602082019050602084028301858111156130dd576130dc6130a2565b5b835b8181101561310657806130f28882612d0a565b8452602084019350506020810190506130df565b5050509392505050565b600082601f83011261312557613124612ff6565b5b81356131358482602086016130a7565b91505092915050565b600080fd5b600067ffffffffffffffff82111561315e5761315d612ffb565b5b61316782612ef7565b9050602081019050919050565b82818337600083830152505050565b600061319661319184613143565b61305b565b9050828152602081018484840111156131b2576131b161313e565b5b6131bd848285613174565b509392505050565b600082601f8301126131da576131d9612ff6565b5b81356131ea848260208601613183565b91505092915050565b600080600080600060a0868803121561320f5761320e612c81565b5b600061321d88828901612cd4565b955050602061322e88828901612cd4565b945050604086013567ffffffffffffffff81111561324f5761324e612c86565b5b61325b88828901613110565b935050606086013567ffffffffffffffff81111561327c5761327b612c86565b5b61328888828901613110565b925050608086013567ffffffffffffffff8111156132a9576132a8612c86565b5b6132b5888289016131c5565b9150509295509295909350565b6132cb81612cab565b82525050565b60006020820190506132e660008301846132c2565b92915050565b600081519050919050565b600082825260208201905092915050565b6000819050602082019050919050565b61332181612cab565b82525050565b60006133338383613318565b60208301905092915050565b6000602082019050919050565b6000613357826132ec565b61336181856132f7565b935061336c83613308565b8060005b8381101561339d5781516133848882613327565b975061338f8361333f565b925050600181019050613370565b5085935050505092915050565b600060208201905081810360008301526133c4818461334c565b905092915050565b600067ffffffffffffffff8211156133e7576133e6612ffb565b5b602082029050602081019050919050565b600061340b613406846133cc565b61305b565b9050808382526020820190506020840283018581111561342e5761342d6130a2565b5b835b8181101561345757806134438882612cd4565b845260208401935050602081019050613430565b5050509392505050565b600082601f83011261347657613475612ff6565b5b81356134868482602086016133f8565b91505092915050565b600080604083850312156134a6576134a5612c81565b5b600083013567ffffffffffffffff8111156134c4576134c3612c86565b5b6134d085828601613461565b925050602083013567ffffffffffffffff8111156134f1576134f0612c86565b5b6134fd85828601613110565b9150509250929050565b600081519050919050565b600082825260208201905092915050565b6000819050602082019050919050565b61353c81612ce9565b82525050565b600061354e8383613533565b60208301905092915050565b6000602082019050919050565b600061357282613507565b61357c8185613512565b935061358783613523565b8060005b838110156135b857815161359f8882613542565b97506135aa8361355a565b92505060018101905061358b565b5085935050505092915050565b600060208201905081810360008301526135df8184613567565b905092915050565b6135f081612e0e565b81146135fb57600080fd5b50565b60008135905061360d816135e7565b92915050565b6000806040838503121561362a57613629612c81565b5b600061363885828601612cd4565b9250506020613649858286016135fe565b9150509250929050565b600061016082019050613669600083018e612d5f565b818103602083015261367b818d612f08565b905061368a604083018c6132c2565b613697606083018b612d5f565b6136a4608083018a612d5f565b6136b160a0830189612d5f565b6136be60c0830188612d5f565b6136cb60e0830187612e1a565b6136d9610100830186612e1a565b6136e7610120830185612d5f565b6136f5610140830184612d5f565b9c9b505050505050505050505050565b6000806040838503121561371c5761371b612c81565b5b600061372a85828601612cd4565b925050602061373b85828601612cd4565b9150509250929050565b600080600080600060a0868803121561376157613760612c81565b5b600061376f88828901612cd4565b955050602061378088828901612cd4565b945050604061379188828901612d0a565b93505060606137a288828901612d0a565b925050608086013567ffffffffffffffff8111156137c3576137c2612c86565b5b6137cf888289016131c5565b9150509295509295909350565b7f536f6e6720697320616c72656164792072656c65617365640000000000000000600082015250565b6000613812601883612ebc565b915061381d826137dc565b602082019050919050565b6000602082019050818103600083015261384181613805565b9050919050565b7f546f6b656e20697320736f6c64206f7574000000000000000000000000000000600082015250565b600061387e601183612ebc565b915061388982613848565b602082019050919050565b600060208201905081810360008301526138ad81613871565b9050919050565b7f4e6f206672616374696f6e616c206f776e65727368697020617661696c61626c60008201527f6500000000000000000000000000000000000000000000000000000000000000602082015250565b6000613910602183612ebc565b915061391b826138b4565b604082019050919050565b6000602082019050818103600083015261393f81613903565b9050919050565b7f4e6f7420656e6f756768206672616374696f6e616c206f776e6572736869702060008201527f617661696c61626c650000000000000000000000000000000000000000000000602082015250565b60006139a2602983612ebc565b91506139ad82613946565b604082019050919050565b600060208201905081810360008301526139d181613995565b9050919050565b7f4e487b7100000000000000000000000000000000000000000000000000000000600052601160045260246000fd5b6000613a1282612ce9565b9150613a1d83612ce9565b9250828202613a2b81612ce9565b91508282048414831517613a4257613a416139d8565b5b5092915050565b7f496e636f727265637420616d6f756e74206f66204554482073656e7400000000600082015250565b6000613a7f601c83612ebc565b9150613a8a82613a49565b602082019050919050565b60006020820190508181036000830152613aae81613a72565b9050919050565b6000613ac082612ce9565b91507fffffffffffffffffffffffffffffffffffffffffffffffffffffffffffffffff8203613af257613af16139d8565b5b600182019050919050565b6000613b0882612ce9565b9150613b1383612ce9565b9250828201905080821115613b2b57613b2a6139d8565b5b92915050565b6000613b3c82612ce9565b9150613b4783612ce9565b9250828203905081811115613b5f57613b5e6139d8565b5b92915050565b6000604082019050613b7a6000830185612d5f565b613b876020830184612d5f565b9392505050565b7f4e487b7100000000000000000000000000000000000000000000000000000000600052602260045260246000fd5b60006002820490506001821680613bd557607f821691505b602082108103613be857613be7613b8e565b5b50919050565b7f4e6f7420746865206f776e657200000000000000000000000000000000000000600082015250565b6000613c24600d83612ebc565b9150613c2f82613bee565b602082019050919050565b60006020820190508181036000830152613c5381613c17565b9050919050565b7f4e6f2066756e647320746f207769746864726177000000000000000000000000600082015250565b6000613c90601483612ebc565b9150613c9b82613c5a565b602082019050919050565b60006020820190508181036000830152613cbf81613c83565b9050919050565b600081905092915050565b7f68747470733a2f2f61707269636f742d61646f7261626c652d62757a7a61726460008201527f2d3638352e6d7970696e6174612e636c6f75642f697066732f516d616659565260208201527f4d613961576a32515a414359655566624458747472795335537964617a64696a60408201527f58634e56666d732f000000000000000000000000000000000000000000000000606082015250565b6000613d79606883613cc6565b9150613d8482613cd1565b606882019050919050565b6000613d9a82612eb1565b613da48185613cc6565b9350613db4818560208601612ecd565b80840191505092915050565b7f2e6a736f6e000000000000000000000000000000000000000000000000000000600082015250565b6000613df6600583613cc6565b9150613e0182613dc0565b600582019050919050565b6000613e1782613d6c565b9150613e238284613d8f565b9150613e2e82613de9565b915081905092915050565b60008190508160005260206000209050919050565b60006020601f8301049050919050565b600082821b905092915050565b600060088302613e9b7fffffffffffffffffffffffffffffffffffffffffffffffffffffffffffffffff82613e5e565b613ea58683613e5e565b95508019841693508086168417925050509392505050565b6000819050919050565b6000613ee2613edd613ed884612ce9565b613ebd565b612ce9565b9050919050565b6000819050919050565b613efc83613ec7565b613f10613f0882613ee9565b848454613e6b565b825550505050565b600090565b613f25613f18565b613f30818484613ef3565b505050565b5b81811015613f5457613f49600082613f1d565b600181019050613f36565b5050565b601f821115613f9957613f6a81613e39565b613f7384613e4e565b81016020851015613f82578190505b613f96613f8e85613e4e565b830182613f35565b50505b505050565b600082821c905092915050565b6000613fbc60001984600802613f9e565b1980831691505092915050565b6000613fd58383613fab565b9150826002028217905092915050565b613fee82612eb1565b67ffffffffffffffff81111561400757614006612ffb565b5b6140118254613bbd565b61401c828285613f58565b600060209050601f83116001811461404f576000841561403d578287015190505b6140478582613fc9565b8655506140af565b601f19841661405d86613e39565b60005b8281101561408557848901518255600182019150602085019450602081019050614060565b868310156140a2578489015161409e601f891682613fab565b8355505b6001600288020188555050505b505050505050565b7f4e487b7100000000000000000000000000000000000000000000000000000000600052601260045260246000fd5b60006140f182612ce9565b91506140fc83612ce9565b92508261410c5761410b6140b7565b5b828204905092915050565b600060408201905061412c60008301856132c2565b61413960208301846132c2565b9392505050565b7f536f6e67206e6f742072656c6561736564207965740000000000000000000000600082015250565b6000614176601583612ebc565b915061418182614140565b602082019050919050565b600060208201905081810360008301526141a581614169565b9050919050565b7f4e487b7100000000000000000000000000000000000000000000000000000000600052603260045260246000fd5b7f536f6e67206d7573742062652072656c656173656420746f206469737472696260008201527f75746520726576656e7565000000000000000000000000000000000000000000602082015250565b6000614237602b83612ebc565b9150614242826141db565b604082019050919050565b600060208201905081810360008301526142668161422a565b9050919050565b7f4e6f2066756e647320617661696c61626c6520666f722064697374726962757460008201527f696f6e0000000000000000000000000000000000000000000000000000000000602082015250565b60006142c9602383612ebc565b91506142d48261426d565b604082019050919050565b600060208201905081810360008301526142f8816142bc565b9050919050565b7f4e6f206672616374696f6e7320736f6c64000000000000000000000000000000600082015250565b6000614335601183612ebc565b9150614340826142ff565b602082019050919050565b6000602082019050818103600083015261436481614328565b9050919050565b7f4e465420646f6573206e6f742065786973740000000000000000000000000000600082015250565b60006143a1601283612ebc565b91506143ac8261436b565b602082019050919050565b600060208201905081810360008301526143d081614394565b9050919050565b7f4e6f2066756e64732070726f7669646564000000000000000000000000000000600082015250565b600061440d601183612ebc565b9150614418826143d7565b602082019050919050565b6000602082019050818103600083015261443c81614400565b9050919050565b600060808201905061445860008301876132c2565b6144656020830186612d5f565b6144726040830185612d5f565b61447f6060830184612d5f565b95945050505050565b600060408201905081810360008301526144a28185613567565b905081810360208301526144b68184613567565b90509392505050565b600081519050919050565b600082825260208201905092915050565b60006144e6826144bf565b6144f081856144ca565b9350614500818560208601612ecd565b61450981612ef7565b840191505092915050565b600060a08201905061452960008301886132c2565b61453660208301876132c2565b6145436040830186612d5f565b6145506060830185612d5f565b818103608083015261456281846144db565b90509695505050505050565b60008151905061457d81612db5565b92915050565b60006020828403121561459957614598612c81565b5b60006145a78482850161456e565b91505092915050565b600060a0820190506145c560008301886132c2565b6145d260208301876132c2565b81810360408301526145e48186613567565b905081810360608301526145f88185613567565b9050818103608083015261460c81846144db565b9050969550505050505056fea2646970667358221220046bcfde5515b0cda22b2dfa16bf4d6cb0296a73be9e81e9d7fd07b8d064165864736f6c6343000814003368747470733a2f2f61707269636f742d61646f7261626c652d62757a7a6172642d3638352e6d7970696e6174612e636c6f75642f697066732f516d61665956524d613961576a32515a414359655566624458747472795335537964617a64696a58634e56666d732f",
  "linkReferences": {},
  "deployedLinkReferences": {}
}