{
  "_format": "hh-sol-artifact-1",
  "contractName": "Fein",
  "sourceName": "contracts/Fein.sol",
  "abi": [
    {
      "inputs": [],
      "stateMutability": "nonpayable",
      "type": "constructor"
    },
    {
      "inputs": [
        {
          "internalType": "address",
          "name": "sender",
          "type": "address"
        },
        {
          "internalType": "uint256",
          "name": "balance",
          "type": "uint256"
        },
        {
          "internalType": "uint256",
          "name": "needed",
          "type": "uint256"
        },
        {
          "internalType": "uint256",
          "name": "tokenId",
          "type": "uint256"
        }
      ],
      "name": "ERC1155InsufficientBalance",
      "type": "error"
    },
    {
      "inputs": [
        {
          "internalType": "address",
          "name": "approver",
          "type": "address"
        }
      ],
      "name": "ERC1155InvalidApprover",
      "type": "error"
    },
    {
      "inputs": [
        {
          "internalType": "uint256",
          "name": "idsLength",
          "type": "uint256"
        },
        {
          "internalType": "uint256",
          "name": "valuesLength",
          "type": "uint256"
        }
      ],
      "name": "ERC1155InvalidArrayLength",
      "type": "error"
    },
    {
      "inputs": [
        {
          "internalType": "address",
          "name": "operator",
          "type": "address"
        }
      ],
      "name": "ERC1155InvalidOperator",
      "type": "error"
    },
    {
      "inputs": [
        {
          "internalType": "address",
          "name": "receiver",
          "type": "address"
        }
      ],
      "name": "ERC1155InvalidReceiver",
      "type": "error"
    },
    {
      "inputs": [
        {
          "internalType": "address",
          "name": "sender",
          "type": "address"
        }
      ],
      "name": "ERC1155InvalidSender",
      "type": "error"
    },
    {
      "inputs": [
        {
          "internalType": "address",
          "name": "operator",
          "type": "address"
        },
        {
          "internalType": "address",
          "name": "owner",
          "type": "address"
        }
      ],
      "name": "ERC1155MissingApprovalForAll",
      "type": "error"
    },
    {
      "anonymous": false,
      "inputs": [
        {
          "indexed": true,
          "internalType": "address",
          "name": "account",
          "type": "address"
        },
        {
          "indexed": true,
          "internalType": "address",
          "name": "operator",
          "type": "address"
        },
        {
          "indexed": false,
          "internalType": "bool",
          "name": "approved",
          "type": "bool"
        }
      ],
      "name": "ApprovalForAll",
      "type": "event"
    },
    {
      "anonymous": false,
      "inputs": [
        {
          "indexed": true,
          "internalType": "uint256",
          "name": "tokenId",
          "type": "uint256"
        },
        {
          "indexed": false,
          "internalType": "uint256",
          "name": "amount",
          "type": "uint256"
        }
      ],
      "name": "FundsAdded",
      "type": "event"
    },
    {
      "anonymous": false,
      "inputs": [
        {
          "indexed": true,
          "internalType": "uint256",
          "name": "tokenId",
          "type": "uint256"
        },
        {
          "indexed": true,
          "internalType": "address",
          "name": "creator",
          "type": "address"
        },
        {
          "indexed": false,
          "internalType": "uint256",
          "name": "totalSupply",
          "type": "uint256"
        },
        {
          "indexed": false,
          "internalType": "uint256",
          "name": "totalFractionalAmount",
          "type": "uint256"
        }
      ],
      "name": "NFTMinted",
      "type": "event"
    },
    {
      "anonymous": false,
      "inputs": [
        {
          "indexed": true,
          "internalType": "uint256",
          "name": "tokenId",
          "type": "uint256"
        },
        {
          "indexed": false,
          "internalType": "uint256",
          "name": "amount",
          "type": "uint256"
        }
      ],
      "name": "RevenueDistributed",
      "type": "event"
    },
    {
      "anonymous": false,
      "inputs": [
        {
          "indexed": true,
          "internalType": "uint256",
          "name": "tokenId",
          "type": "uint256"
        },
        {
          "indexed": true,
          "internalType": "address",
          "name": "buyer",
          "type": "address"
        },
        {
          "indexed": false,
          "internalType": "uint256",
          "name": "tokensPurchased",
          "type": "uint256"
        },
        {
          "indexed": false,
          "internalType": "uint256",
          "name": "amountPaid",
          "type": "uint256"
        }
      ],
      "name": "StakePurchased",
      "type": "event"
    },
    {
      "anonymous": false,
      "inputs": [
        {
          "indexed": true,
          "internalType": "address",
          "name": "operator",
          "type": "address"
        },
        {
          "indexed": true,
          "internalType": "address",
          "name": "from",
          "type": "address"
        },
        {
          "indexed": true,
          "internalType": "address",
          "name": "to",
          "type": "address"
        },
        {
          "indexed": false,
          "internalType": "uint256[]",
          "name": "ids",
          "type": "uint256[]"
        },
        {
          "indexed": false,
          "internalType": "uint256[]",
          "name": "values",
          "type": "uint256[]"
        }
      ],
      "name": "TransferBatch",
      "type": "event"
    },
    {
      "anonymous": false,
      "inputs": [
        {
          "indexed": true,
          "internalType": "address",
          "name": "operator",
          "type": "address"
        },
        {
          "indexed": true,
          "internalType": "address",
          "name": "from",
          "type": "address"
        },
        {
          "indexed": true,
          "internalType": "address",
          "name": "to",
          "type": "address"
        },
        {
          "indexed": false,
          "internalType": "uint256",
          "name": "id",
          "type": "uint256"
        },
        {
          "indexed": false,
          "internalType": "uint256",
          "name": "value",
          "type": "uint256"
        }
      ],
      "name": "TransferSingle",
      "type": "event"
    },
    {
      "anonymous": false,
      "inputs": [
        {
          "indexed": false,
          "internalType": "string",
          "name": "value",
          "type": "string"
        },
        {
          "indexed": true,
          "internalType": "uint256",
          "name": "id",
          "type": "uint256"
        }
      ],
      "name": "URI",
      "type": "event"
    },
    {
      "stateMutability": "payable",
      "type": "fallback"
    },
    {
      "inputs": [
        {
          "internalType": "uint256",
          "name": "tokenId",
          "type": "uint256"
        }
      ],
      "name": "addRevenueGen",
      "outputs": [],
      "stateMutability": "payable",
      "type": "function"
    },
    {
      "inputs": [
        {
          "internalType": "uint256",
          "name": "tokenId",
          "type": "uint256"
        }
      ],
      "name": "artistTokenSales",
      "outputs": [],
      "stateMutability": "payable",
      "type": "function"
    },
    {
      "inputs": [
        {
          "internalType": "address",
          "name": "account",
          "type": "address"
        },
        {
          "internalType": "uint256",
          "name": "id",
          "type": "uint256"
        }
      ],
      "name": "balanceOf",
      "outputs": [
        {
          "internalType": "uint256",
          "name": "",
          "type": "uint256"
        }
      ],
      "stateMutability": "view",
      "type": "function"
    },
    {
      "inputs": [
        {
          "internalType": "address[]",
          "name": "accounts",
          "type": "address[]"
        },
        {
          "internalType": "uint256[]",
          "name": "ids",
          "type": "uint256[]"
        }
      ],
      "name": "balanceOfBatch",
      "outputs": [
        {
          "internalType": "uint256[]",
          "name": "",
          "type": "uint256[]"
        }
      ],
      "stateMutability": "view",
      "type": "function"
    },
    {
      "inputs": [
        {
          "internalType": "uint256",
          "name": "tokenId",
          "type": "uint256"
        }
      ],
      "name": "buyStake",
      "outputs": [],
      "stateMutability": "payable",
      "type": "function"
    },
    {
      "inputs": [],
      "name": "contractOwner",
      "outputs": [
        {
          "internalType": "address",
          "name": "",
          "type": "address"
        }
      ],
      "stateMutability": "view",
      "type": "function"
    },
    {
      "inputs": [],
      "name": "currentTokenID",
      "outputs": [
        {
          "internalType": "uint256",
          "name": "",
          "type": "uint256"
        }
      ],
      "stateMutability": "view",
      "type": "function"
    },
    {
      "inputs": [
        {
          "internalType": "uint256",
          "name": "tokenId",
          "type": "uint256"
        }
      ],
      "name": "distributeRevenue",
      "outputs": [],
      "stateMutability": "payable",
      "type": "function"
    },
    {
      "inputs": [
        {
          "internalType": "uint256",
          "name": "",
          "type": "uint256"
        },
        {
          "internalType": "address",
          "name": "",
          "type": "address"
        }
      ],
      "name": "fractionalOwnership",
      "outputs": [
        {
          "internalType": "uint256",
          "name": "",
          "type": "uint256"
        }
      ],
      "stateMutability": "view",
      "type": "function"
    },
    {
      "inputs": [
        {
          "internalType": "uint256",
          "name": "_tokenId",
          "type": "uint256"
        }
      ],
      "name": "getparticipants",
      "outputs": [
        {
          "internalType": "address[]",
          "name": "",
          "type": "address[]"
        }
      ],
      "stateMutability": "view",
      "type": "function"
    },
    {
      "inputs": [
        {
          "internalType": "uint256",
          "name": "_tokenid",
          "type": "uint256"
        }
      ],
      "name": "geturi",
      "outputs": [
        {
          "internalType": "string",
          "name": "",
          "type": "string"
        }
      ],
      "stateMutability": "view",
      "type": "function"
    },
    {
      "inputs": [
        {
          "internalType": "address",
          "name": "account",
          "type": "address"
        },
        {
          "internalType": "address",
          "name": "operator",
          "type": "address"
        }
      ],
      "name": "isApprovedForAll",
      "outputs": [
        {
          "internalType": "bool",
          "name": "",
          "type": "bool"
        }
      ],
      "stateMutability": "view",
      "type": "function"
    },
    {
      "inputs": [
        {
          "internalType": "uint256",
          "name": "_totalSupply",
          "type": "uint256"
        },
        {
          "internalType": "uint256",
          "name": "_totalFractionalAmount",
          "type": "uint256"
        },
        {
          "internalType": "uint256",
          "name": "_percentageShare",
          "type": "uint256"
        }
      ],
      "name": "mintNFT",
      "outputs": [],
      "stateMutability": "nonpayable",
      "type": "function"
    },
    {
      "inputs": [
        {
          "internalType": "uint256",
          "name": "",
          "type": "uint256"
        },
        {
          "internalType": "uint256",
          "name": "",
          "type": "uint256"
        }
      ],
      "name": "participants",
      "outputs": [
        {
          "internalType": "address",
          "name": "",
          "type": "address"
        }
      ],
      "stateMutability": "view",
      "type": "function"
    },
    {
      "inputs": [
        {
          "internalType": "uint256",
          "name": "tokenId",
          "type": "uint256"
        }
      ],
      "name": "releaseSong",
      "outputs": [],
      "stateMutability": "nonpayable",
      "type": "function"
    },
    {
      "inputs": [
        {
          "internalType": "address",
          "name": "from",
          "type": "address"
        },
        {
          "internalType": "address",
          "name": "to",
          "type": "address"
        },
        {
          "internalType": "uint256[]",
          "name": "ids",
          "type": "uint256[]"
        },
        {
          "internalType": "uint256[]",
          "name": "values",
          "type": "uint256[]"
        },
        {
          "internalType": "bytes",
          "name": "data",
          "type": "bytes"
        }
      ],
      "name": "safeBatchTransferFrom",
      "outputs": [],
      "stateMutability": "nonpayable",
      "type": "function"
    },
    {
      "inputs": [
        {
          "internalType": "address",
          "name": "from",
          "type": "address"
        },
        {
          "internalType": "address",
          "name": "to",
          "type": "address"
        },
        {
          "internalType": "uint256",
          "name": "id",
          "type": "uint256"
        },
        {
          "internalType": "uint256",
          "name": "value",
          "type": "uint256"
        },
        {
          "internalType": "bytes",
          "name": "data",
          "type": "bytes"
        }
      ],
      "name": "safeTransferFrom",
      "outputs": [],
      "stateMutability": "nonpayable",
      "type": "function"
    },
    {
      "inputs": [
        {
          "internalType": "address",
          "name": "operator",
          "type": "address"
        },
        {
          "internalType": "bool",
          "name": "approved",
          "type": "bool"
        }
      ],
      "name": "setApprovalForAll",
      "outputs": [],
      "stateMutability": "nonpayable",
      "type": "function"
    },
    {
      "inputs": [
        {
          "internalType": "bytes4",
          "name": "interfaceId",
          "type": "bytes4"
        }
      ],
      "name": "supportsInterface",
      "outputs": [
        {
          "internalType": "bool",
          "name": "",
          "type": "bool"
        }
      ],
      "stateMutability": "view",
      "type": "function"
    },
    {
      "inputs": [
        {
          "internalType": "uint256",
          "name": "",
          "type": "uint256"
        }
      ],
      "name": "tokenData",
      "outputs": [
        {
          "internalType": "uint256",
          "name": "tokenSupply",
          "type": "uint256"
        },
        {
          "internalType": "string",
          "name": "uri",
          "type": "string"
        },
        {
          "internalType": "address",
          "name": "creator",
          "type": "address"
        },
        {
          "internalType": "uint256",
          "name": "countoftotalsupply",
          "type": "uint256"
        },
        {
          "internalType": "uint256",
          "name": "fundsCollected",
          "type": "uint256"
        },
        {
          "internalType": "uint256",
          "name": "revenue",
          "type": "uint256"
        },
        {
          "internalType": "uint256",
          "name": "totalFractionalAmount",
          "type": "uint256"
        },
        {
          "internalType": "bool",
          "name": "soldOut",
          "type": "bool"
        },
        {
          "internalType": "bool",
          "name": "isReleased",
          "type": "bool"
        },
        {
          "internalType": "uint256",
          "name": "percentageShare",
          "type": "uint256"
        },
        {
          "internalType": "uint256",
          "name": "pricePerToken",
          "type": "uint256"
        }
      ],
      "stateMutability": "view",
      "type": "function"
    },
    {
      "inputs": [
        {
          "internalType": "uint256",
          "name": "",
          "type": "uint256"
        }
      ],
      "name": "uri",
      "outputs": [
        {
          "internalType": "string",
          "name": "",
          "type": "string"
        }
      ],
      "stateMutability": "view",
      "type": "function"
    },
    {
      "inputs": [
        {
          "internalType": "uint256",
          "name": "tokenId",
          "type": "uint256"
        }
      ],
      "name": "withdrawFunds",
      "outputs": [],
      "stateMutability": "nonpayable",
      "type": "function"
    },
    {
      "inputs": [],
      "name": "withdrawToOwner",
      "outputs": [],
      "stateMutability": "payable",
      "type": "function"
    },
    {
      "stateMutability": "payable",
      "type": "receive"
    }
  ],
  "bytecode": "0x608060405260006003553480156200001657600080fd5b506040518060a001604052806068815260200162004af66068913962000042816200008a60201b60201c565b5033600460006101000a81548173ffffffffffffffffffffffffffffffffffffffff021916908373ffffffffffffffffffffffffffffffffffffffff16021790555062000400565b80600290816200009b919062000319565b5050565b600081519050919050565b7f4e487b7100000000000000000000000000000000000000000000000000000000600052604160045260246000fd5b7f4e487b7100000000000000000000000000000000000000000000000000000000600052602260045260246000fd5b600060028204905060018216806200012157607f821691505b602082108103620001375762000136620000d9565b5b50919050565b60008190508160005260206000209050919050565b60006020601f8301049050919050565b600082821b905092915050565b600060088302620001a17fffffffffffffffffffffffffffffffffffffffffffffffffffffffffffffffff8262000162565b620001ad868362000162565b95508019841693508086168417925050509392505050565b6000819050919050565b6000819050919050565b6000620001fa620001f4620001ee84620001c5565b620001cf565b620001c5565b9050919050565b6000819050919050565b6200021683620001d9565b6200022e620002258262000201565b8484546200016f565b825550505050565b600090565b6200024562000236565b620002528184846200020b565b505050565b5b818110156200027a576200026e6000826200023b565b60018101905062000258565b5050565b601f821115620002c95762000293816200013d565b6200029e8462000152565b81016020851015620002ae578190505b620002c6620002bd8562000152565b83018262000257565b50505b505050565b600082821c905092915050565b6000620002ee60001984600802620002ce565b1980831691505092915050565b6000620003098383620002db565b9150826002028217905092915050565b62000324826200009f565b67ffffffffffffffff81111562000340576200033f620000aa565b5b6200034c825462000108565b620003598282856200027e565b600060209050601f8311600181146200039157600084156200037c578287015190505b620003888582620002fb565b865550620003f8565b601f198416620003a1866200013d565b60005b82811015620003cb57848901518255600182019150602085019450602081019050620003a4565b86831015620003eb5784890151620003e7601f891682620002db565b8355505b6001600288020188555050505b505050505050565b6146e680620004106000396000f3fe6080604052600436106101435760003560e01c80634e1273f4116100b6578063bb62115e1161006f578063bb62115e14610469578063c693846214610494578063ce606ee0146104d1578063d2facde1146104fc578063e985e9c514610518578063f242432a146105555761014a565b80634e1273f41461034757806359fde1e01461038457806381fb1fb4146103a0578063a22cb465146103dd578063b4b5b48f14610406578063b9d2b8031461044d5761014a565b806317c6ab401161010857806317c6ab40146102555780631d50869d146102925780632eb2c2d6146102bb5780633cb40e16146102e457806344909485146102ee5780634dc704741461032b5761014a565b8062fdd58e1461014c57806301ffc9a71461018957806303c67a45146101c65780630e89341c146101ef578063155dd5ee1461022c5761014a565b3661014a57005b005b34801561015857600080fd5b50610173600480360381019061016e9190612d2a565b61057e565b6040516101809190612d79565b60405180910390f35b34801561019557600080fd5b506101b060048036038101906101ab9190612dec565b6105d8565b6040516101bd9190612e34565b60405180910390f35b3480156101d257600080fd5b506101ed60048036038101906101e89190612e4f565b6106ba565b005b3480156101fb57600080fd5b5061021660048036038101906102119190612e4f565b6107e6565b6040516102239190612f0c565b60405180910390f35b34801561023857600080fd5b50610253600480360381019061024e9190612e4f565b61087a565b005b34801561026157600080fd5b5061027c60048036038101906102779190612f2e565b6109d5565b6040516102899190612d79565b60405180910390f35b34801561029e57600080fd5b506102b960048036038101906102b49190612f6e565b6109fa565b005b3480156102c757600080fd5b506102e260048036038101906102dd91906131be565b610c63565b005b6102ec610d0b565b005b3480156102fa57600080fd5b5061031560048036038101906103109190612e4f565b610d9d565b604051610322919061334b565b60405180910390f35b61034560048036038101906103409190612e4f565b610e3e565b005b34801561035357600080fd5b5061036e60048036038101906103699190613430565b610fce565b60405161037b9190613566565b60405180910390f35b61039e60048036038101906103999190612e4f565b6110dd565b005b3480156103ac57600080fd5b506103c760048036038101906103c29190613588565b611504565b6040516103d491906135d7565b60405180910390f35b3480156103e957600080fd5b5061040460048036038101906103ff919061361e565b611552565b005b34801561041257600080fd5b5061042d60048036038101906104289190612e4f565b611568565b6040516104449b9a9998979695949392919061365e565b60405180910390f35b61046760048036038101906104629190612e4f565b611684565b005b34801561047557600080fd5b5061047e611a1f565b60405161048b9190612d79565b60405180910390f35b3480156104a057600080fd5b506104bb60048036038101906104b69190612e4f565b611a25565b6040516104c89190612f0c565b60405180910390f35b3480156104dd57600080fd5b506104e6611acd565b6040516104f391906135d7565b60405180910390f35b61051660048036038101906105119190612e4f565b611af3565b005b34801561052457600080fd5b5061053f600480360381019061053a9190613710565b611c87565b60405161054c9190612e34565b60405180910390f35b34801561056157600080fd5b5061057c60048036038101906105779190613750565b611d1b565b005b600080600083815260200190815260200160002060008473ffffffffffffffffffffffffffffffffffffffff1673ffffffffffffffffffffffffffffffffffffffff16815260200190815260200160002054905092915050565b60007fd9b67a26000000000000000000000000000000000000000000000000000000007bffffffffffffffffffffffffffffffffffffffffffffffffffffffff1916827bffffffffffffffffffffffffffffffffffffffffffffffffffffffff191614806106a357507f0e89341c000000000000000000000000000000000000000000000000000000007bffffffffffffffffffffffffffffffffffffffffffffffffffffffff1916827bffffffffffffffffffffffffffffffffffffffffffffffffffffffff1916145b806106b357506106b282611dc3565b5b9050919050565b600460009054906101000a900473ffffffffffffffffffffffffffffffffffffffff1673ffffffffffffffffffffffffffffffffffffffff163373ffffffffffffffffffffffffffffffffffffffff161461074a576040517f08c379a000000000000000000000000000000000000000000000000000000000815260040161074190613833565b60405180910390fd5b600015156005600083815260200190815260200160002060070160019054906101000a900460ff161515146107b4576040517f08c379a00000000000000000000000000000000000000000000000000000000081526004016107ab9061389f565b60405180910390fd5b60016005600083815260200190815260200160002060070160016101000a81548160ff02191690831515021790555050565b6060600280546107f5906138ee565b80601f0160208091040260200160405190810160405280929190818152602001828054610821906138ee565b801561086e5780601f106108435761010080835404028352916020019161086e565b820191906000526020600020905b81548152906001019060200180831161085157829003601f168201915b50505050509050919050565b600460009054906101000a900473ffffffffffffffffffffffffffffffffffffffff1673ffffffffffffffffffffffffffffffffffffffff163373ffffffffffffffffffffffffffffffffffffffff161461090a576040517f08c379a000000000000000000000000000000000000000000000000000000000815260040161090190613833565b60405180910390fd5b60006005600083815260200190815260200160002060050154905060008111610968576040517f08c379a000000000000000000000000000000000000000000000000000000000815260040161095f9061396b565b60405180910390fd5b600460009054906101000a900473ffffffffffffffffffffffffffffffffffffffff1673ffffffffffffffffffffffffffffffffffffffff166108fc829081150290604051600060405180830381858888f193505050501580156109d0573d6000803e3d6000fd5b505050565b6007602052816000526040600020602052806000526040600020600091509150505481565b60006003549050610a1c33828660405180602001604052806000815250611e2d565b610a2581611ec6565b604051602001610a359190613ad1565b604051602081830303815290604052600560008381526020019081526020016000206001019081610a669190613caa565b50836005600083815260200190815260200160002060000181905550836005600083815260200190815260200160002060030181905550336005600083815260200190815260200160002060020160006101000a81548173ffffffffffffffffffffffffffffffffffffffff021916908373ffffffffffffffffffffffffffffffffffffffff1602179055508260056000838152602001908152602001600020600601819055506000600560008381526020019081526020016000206004018190555060036000815480929190610b3c90613dab565b919050555060006005600083815260200190815260200160002060070160006101000a81548160ff02191690831515021790555060006005600083815260200190815260200160002060070160016101000a81548160ff02191690831515021790555081600560008381526020019081526020016000206008018190555060056000828152602001908152602001600020600301546005600083815260200190815260200160002060060154610bf29190613e22565b60056000838152602001908152602001600020600901819055503373ffffffffffffffffffffffffffffffffffffffff16817f0713ae16a171f65c6877fd4bff12d9157605b607ef798a53c771cbadd0892ff48686604051610c55929190613e53565b60405180910390a350505050565b6000610c6d611f94565b90508073ffffffffffffffffffffffffffffffffffffffff168673ffffffffffffffffffffffffffffffffffffffff1614158015610cb25750610cb08682611c87565b155b15610cf65780866040517fe237d922000000000000000000000000000000000000000000000000000000008152600401610ced929190613e7c565b60405180910390fd5b610d038686868686611f9c565b505050505050565b600460009054906101000a900473ffffffffffffffffffffffffffffffffffffffff1673ffffffffffffffffffffffffffffffffffffffff163373ffffffffffffffffffffffffffffffffffffffff1614610d9b576040517f08c379a0000000000000000000000000000000000000000000000000000000008152600401610d9290613833565b60405180910390fd5b565b606060066000838152602001908152602001600020805480602002602001604051908101604052809291908181526020018280548015610e3257602002820191906000526020600020905b8160009054906101000a900473ffffffffffffffffffffffffffffffffffffffff1673ffffffffffffffffffffffffffffffffffffffff1681526020019060010190808311610de8575b50505050509050919050565b600460009054906101000a900473ffffffffffffffffffffffffffffffffffffffff1673ffffffffffffffffffffffffffffffffffffffff163373ffffffffffffffffffffffffffffffffffffffff1614610ece576040517f08c379a0000000000000000000000000000000000000000000000000000000008152600401610ec590613833565b60405180910390fd5b600115156005600083815260200190815260200160002060070160019054906101000a900460ff16151514610f38576040517f08c379a0000000000000000000000000000000000000000000000000000000008152600401610f2f90613ef1565b60405180910390fd5b6005600082815260200190815260200160002060020160009054906101000a900473ffffffffffffffffffffffffffffffffffffffff1673ffffffffffffffffffffffffffffffffffffffff166108fc60056000848152602001908152602001600020600401549081150290604051600060405180830381858888f19350505050158015610fca573d6000803e3d6000fd5b5050565b6060815183511461101a57815183516040517f5b059991000000000000000000000000000000000000000000000000000000008152600401611011929190613e53565b60405180910390fd5b6000835167ffffffffffffffff81111561103757611036612fc6565b5b6040519080825280602002602001820160405280156110655781602001602082028036833780820191505090505b50905060005b84518110156110d2576110a261108a828761209490919063ffffffff16565b61109d83876120a890919063ffffffff16565b61057e565b8282815181106110b5576110b4613f11565b5b602002602001018181525050806110cb90613dab565b905061106b565b508091505092915050565b600460009054906101000a900473ffffffffffffffffffffffffffffffffffffffff1673ffffffffffffffffffffffffffffffffffffffff163373ffffffffffffffffffffffffffffffffffffffff161461116d576040517f08c379a000000000000000000000000000000000000000000000000000000000815260040161116490613833565b60405180910390fd5b60006064600560008481526020019081526020016000206008015460056000858152602001908152602001600020600501546111a99190613f40565b6111b39190613e22565b9050600115156005600084815260200190815260200160002060070160019054906101000a900460ff1615151461121f576040517f08c379a000000000000000000000000000000000000000000000000000000000815260040161121690613ff4565b60405180910390fd5b60008111611262576040517f08c379a000000000000000000000000000000000000000000000000000000000815260040161125990614086565b60405180910390fd5b600060056000848152602001908152602001600020600601549050600081116112c0576040517f08c379a00000000000000000000000000000000000000000000000000000000081526004016112b7906140f2565b60405180910390fd5b60005b600660008581526020019081526020016000208054905081101561142257600060066000868152602001908152602001600020828154811061130857611307613f11565b5b9060005260206000200160009054906101000a900473ffffffffffffffffffffffffffffffffffffffff16905060006007600087815260200190815260200160002060008373ffffffffffffffffffffffffffffffffffffffff1673ffffffffffffffffffffffffffffffffffffffff168152602001908152602001600020549050600081111561140d576000600560008881526020019081526020016000206003015482876113b89190613f40565b6113c29190613e22565b90508273ffffffffffffffffffffffffffffffffffffffff166108fc829081150290604051600060405180830381858888f1935050505015801561140a573d6000803e3d6000fd5b50505b5050808061141a90613dab565b9150506112c3565b5060008260056000868152602001908152602001600020600501546114479190614112565b90506005600085815260200190815260200160002060020160009054906101000a900473ffffffffffffffffffffffffffffffffffffffff1673ffffffffffffffffffffffffffffffffffffffff166108fc829081150290604051600060405180830381858888f193505050501580156114c5573d6000803e3d6000fd5b50837ff2838e4b541f90d41a1076a560d75e948f7d1008e72118a655568626a30b451f846040516114f69190612d79565b60405180910390a250505050565b6006602052816000526040600020818154811061152057600080fd5b906000526020600020016000915091509054906101000a900473ffffffffffffffffffffffffffffffffffffffff1681565b61156461155d611f94565b83836120bc565b5050565b6005602052806000526040600020600091509050806000015490806001018054611591906138ee565b80601f01602080910402602001604051908101604052809291908181526020018280546115bd906138ee565b801561160a5780601f106115df5761010080835404028352916020019161160a565b820191906000526020600020905b8154815290600101906020018083116115ed57829003601f168201915b5050505050908060020160009054906101000a900473ffffffffffffffffffffffffffffffffffffffff16908060030154908060040154908060050154908060060154908060070160009054906101000a900460ff16908060070160019054906101000a900460ff1690806008015490806009015490508b565b600060056000838152602001908152602001600020600001549050600015156005600084815260200190815260200160002060070160009054906101000a900460ff16151514611709576040517f08c379a000000000000000000000000000000000000000000000000000000000815260040161170090614192565b60405180910390fd5b6000811161174c576040517f08c379a000000000000000000000000000000000000000000000000000000000815260040161174390614224565b60405180910390fd5b6001811015611790576040517f08c379a0000000000000000000000000000000000000000000000000000000008152600401611787906142b6565b60405180910390fd5b600060056000848152602001908152602001600020600901549050803410156117ee576040517f08c379a00000000000000000000000000000000000000000000000000000000081526004016117e590614322565b60405180910390fd5b60006007600085815260200190815260200160002060003373ffffffffffffffffffffffffffffffffffffffff1673ffffffffffffffffffffffffffffffffffffffff16815260200190815260200160002054036118bb5760066000848152602001908152602001600020339080600181540180825580915050600190039060005260206000200160009091909190916101000a81548173ffffffffffffffffffffffffffffffffffffffff021916908373ffffffffffffffffffffffffffffffffffffffff1602179055505b6007600084815260200190815260200160002060003373ffffffffffffffffffffffffffffffffffffffff1673ffffffffffffffffffffffffffffffffffffffff168152602001908152602001600020600081548092919061191c90613dab565b9190505550346005600085815260200190815260200160002060040160008282546119479190614342565b9250508190555060056000848152602001908152602001600020600001600081548092919061197590614376565b91905055503373ffffffffffffffffffffffffffffffffffffffff16837f24b22275ff9f36a2d0d5a5564c044f4618382392dab42d26cdfa0ff9cd9850d86001846040516119c49291906143da565b60405180910390a36000600560008581526020019081526020016000206000015403611a1a5760016005600085815260200190815260200160002060070160006101000a81548160ff0219169083151502179055505b505050565b60035481565b6060600560008381526020019081526020016000206001018054611a48906138ee565b80601f0160208091040260200160405190810160405280929190818152602001828054611a74906138ee565b8015611ac15780601f10611a9657610100808354040283529160200191611ac1565b820191906000526020600020905b815481529060010190602001808311611aa457829003601f168201915b50505050509050919050565b600460009054906101000a900473ffffffffffffffffffffffffffffffffffffffff1681565b600460009054906101000a900473ffffffffffffffffffffffffffffffffffffffff1673ffffffffffffffffffffffffffffffffffffffff163373ffffffffffffffffffffffffffffffffffffffff1614611b83576040517f08c379a0000000000000000000000000000000000000000000000000000000008152600401611b7a90613833565b60405180910390fd5b6000600560008381526020019081526020016000206006015411611bdc576040517f08c379a0000000000000000000000000000000000000000000000000000000008152600401611bd39061444f565b60405180910390fd5b60003411611c1f576040517f08c379a0000000000000000000000000000000000000000000000000000000008152600401611c16906144bb565b60405180910390fd5b34600560008381526020019081526020016000206005016000828254611c459190614342565b92505081905550807ff5e4934928a1e45d88c7a5aa2661fe0a801ca5017922e15122d74f1880155e1a34604051611c7c9190612d79565b60405180910390a250565b6000600160008473ffffffffffffffffffffffffffffffffffffffff1673ffffffffffffffffffffffffffffffffffffffff16815260200190815260200160002060008373ffffffffffffffffffffffffffffffffffffffff1673ffffffffffffffffffffffffffffffffffffffff16815260200190815260200160002060009054906101000a900460ff16905092915050565b6000611d25611f94565b90508073ffffffffffffffffffffffffffffffffffffffff168673ffffffffffffffffffffffffffffffffffffffff1614158015611d6a5750611d688682611c87565b155b15611dae5780866040517fe237d922000000000000000000000000000000000000000000000000000000008152600401611da5929190613e7c565b60405180910390fd5b611dbb868686868661222c565b505050505050565b60007f01ffc9a7000000000000000000000000000000000000000000000000000000007bffffffffffffffffffffffffffffffffffffffffffffffffffffffff1916827bffffffffffffffffffffffffffffffffffffffffffffffffffffffff1916149050919050565b600073ffffffffffffffffffffffffffffffffffffffff168473ffffffffffffffffffffffffffffffffffffffff1603611e9f5760006040517f57f447ce000000000000000000000000000000000000000000000000000000008152600401611e9691906135d7565b60405180910390fd5b600080611eac8585612337565b91509150611ebe600087848487612367565b505050505050565b606060006001611ed584612419565b01905060008167ffffffffffffffff811115611ef457611ef3612fc6565b5b6040519080825280601f01601f191660200182016040528015611f265781602001600182028036833780820191505090505b509050600082602001820190505b600115611f89578080600190039150507f3031323334353637383961626364656600000000000000000000000000000000600a86061a8153600a8581611f7d57611f7c613df3565b5b04945060008503611f34575b819350505050919050565b600033905090565b600073ffffffffffffffffffffffffffffffffffffffff168473ffffffffffffffffffffffffffffffffffffffff160361200e5760006040517f57f447ce00000000000000000000000000000000000000000000000000000000815260040161200591906135d7565b60405180910390fd5b600073ffffffffffffffffffffffffffffffffffffffff168573ffffffffffffffffffffffffffffffffffffffff16036120805760006040517f01a8351400000000000000000000000000000000000000000000000000000000815260040161207791906135d7565b60405180910390fd5b61208d8585858585612367565b5050505050565b600060208202602084010151905092915050565b600060208202602084010151905092915050565b600073ffffffffffffffffffffffffffffffffffffffff168273ffffffffffffffffffffffffffffffffffffffff160361212e5760006040517fced3e10000000000000000000000000000000000000000000000000000000000815260040161212591906135d7565b60405180910390fd5b80600160008573ffffffffffffffffffffffffffffffffffffffff1673ffffffffffffffffffffffffffffffffffffffff16815260200190815260200160002060008473ffffffffffffffffffffffffffffffffffffffff1673ffffffffffffffffffffffffffffffffffffffff16815260200190815260200160002060006101000a81548160ff0219169083151502179055508173ffffffffffffffffffffffffffffffffffffffff168373ffffffffffffffffffffffffffffffffffffffff167f17307eab39ab6107e8899845ad3d59bd9653f200f220920489ca2b5937696c318360405161221f9190612e34565b60405180910390a3505050565b600073ffffffffffffffffffffffffffffffffffffffff168473ffffffffffffffffffffffffffffffffffffffff160361229e5760006040517f57f447ce00000000000000000000000000000000000000000000000000000000815260040161229591906135d7565b60405180910390fd5b600073ffffffffffffffffffffffffffffffffffffffff168573ffffffffffffffffffffffffffffffffffffffff16036123105760006040517f01a8351400000000000000000000000000000000000000000000000000000000815260040161230791906135d7565b60405180910390fd5b60008061231d8585612337565b9150915061232e8787848487612367565b50505050505050565b60608060405191506001825283602083015260408201905060018152826020820152604081016040529250929050565b6123738585858561256c565b600073ffffffffffffffffffffffffffffffffffffffff168473ffffffffffffffffffffffffffffffffffffffff16146124125760006123b1611f94565b905060018451036124015760006123d26000866120a890919063ffffffff16565b905060006123ea6000866120a890919063ffffffff16565b90506123fa83898985858961291a565b5050612410565b61240f818787878787612ace565b5b505b5050505050565b600080600090507a184f03e93ff9f4daa797ed6e38ed64bf6a1f0100000000000000008310612477577a184f03e93ff9f4daa797ed6e38ed64bf6a1f010000000000000000838161246d5761246c613df3565b5b0492506040810190505b6d04ee2d6d415b85acef810000000083106124b4576d04ee2d6d415b85acef810000000083816124aa576124a9613df3565b5b0492506020810190505b662386f26fc1000083106124e357662386f26fc1000083816124d9576124d8613df3565b5b0492506010810190505b6305f5e100831061250c576305f5e100838161250257612501613df3565b5b0492506008810190505b612710831061253157612710838161252757612526613df3565b5b0492506004810190505b60648310612554576064838161254a57612549613df3565b5b0492506002810190505b600a8310612563576001810190505b80915050919050565b80518251146125b657815181516040517f5b0599910000000000000000000000000000000000000000000000000000000081526004016125ad929190613e53565b60405180910390fd5b60006125c0611f94565b905060005b83518110156127d55760006125e382866120a890919063ffffffff16565b905060006125fa83866120a890919063ffffffff16565b9050600073ffffffffffffffffffffffffffffffffffffffff168873ffffffffffffffffffffffffffffffffffffffff161461272757600080600084815260200190815260200160002060008a73ffffffffffffffffffffffffffffffffffffffff1673ffffffffffffffffffffffffffffffffffffffff168152602001908152602001600020549050818110156126cf57888183856040517f03dee4c50000000000000000000000000000000000000000000000000000000081526004016126c694939291906144db565b60405180910390fd5b81810360008085815260200190815260200160002060008b73ffffffffffffffffffffffffffffffffffffffff1673ffffffffffffffffffffffffffffffffffffffff16815260200190815260200160002081905550505b600073ffffffffffffffffffffffffffffffffffffffff168773ffffffffffffffffffffffffffffffffffffffff16146127c2578060008084815260200190815260200160002060008973ffffffffffffffffffffffffffffffffffffffff1673ffffffffffffffffffffffffffffffffffffffff16815260200190815260200160002060008282546127ba9190614342565b925050819055505b5050806127ce90613dab565b90506125c5565b5060018351036128945760006127f56000856120a890919063ffffffff16565b9050600061280d6000856120a890919063ffffffff16565b90508573ffffffffffffffffffffffffffffffffffffffff168773ffffffffffffffffffffffffffffffffffffffff168473ffffffffffffffffffffffffffffffffffffffff167fc3d58168c5ae7397731d063d5bbf3d657854427343f4c083240f7aacaa2d0f628585604051612885929190613e53565b60405180910390a45050612913565b8373ffffffffffffffffffffffffffffffffffffffff168573ffffffffffffffffffffffffffffffffffffffff168273ffffffffffffffffffffffffffffffffffffffff167f4a39dc06d4c0dbc64b70af90fd698a233a518aa5d07e595d983b8c0526c8f7fb868660405161290a929190614520565b60405180910390a45b5050505050565b60008473ffffffffffffffffffffffffffffffffffffffff163b1115612ac6578373ffffffffffffffffffffffffffffffffffffffff1663f23a6e6187878686866040518663ffffffff1660e01b815260040161297b9594939291906145ac565b6020604051808303816000875af19250505080156129b757506040513d601f19601f820116820180604052508101906129b4919061461b565b60015b612a3b573d80600081146129e7576040519150601f19603f3d011682016040523d82523d6000602084013e6129ec565b606091505b506000815103612a3357846040517f57f447ce000000000000000000000000000000000000000000000000000000008152600401612a2a91906135d7565b60405180910390fd5b805181602001fd5b63f23a6e6160e01b7bffffffffffffffffffffffffffffffffffffffffffffffffffffffff1916817bffffffffffffffffffffffffffffffffffffffffffffffffffffffff191614612ac457846040517f57f447ce000000000000000000000000000000000000000000000000000000008152600401612abb91906135d7565b60405180910390fd5b505b505050505050565b60008473ffffffffffffffffffffffffffffffffffffffff163b1115612c7a578373ffffffffffffffffffffffffffffffffffffffff1663bc197c8187878686866040518663ffffffff1660e01b8152600401612b2f959493929190614648565b6020604051808303816000875af1925050508015612b6b57506040513d601f19601f82011682018060405250810190612b68919061461b565b60015b612bef573d8060008114612b9b576040519150601f19603f3d011682016040523d82523d6000602084013e612ba0565b606091505b506000815103612be757846040517f57f447ce000000000000000000000000000000000000000000000000000000008152600401612bde91906135d7565b60405180910390fd5b805181602001fd5b63bc197c8160e01b7bffffffffffffffffffffffffffffffffffffffffffffffffffffffff1916817bffffffffffffffffffffffffffffffffffffffffffffffffffffffff191614612c7857846040517f57f447ce000000000000000000000000000000000000000000000000000000008152600401612c6f91906135d7565b60405180910390fd5b505b505050505050565b6000604051905090565b600080fd5b600080fd5b600073ffffffffffffffffffffffffffffffffffffffff82169050919050565b6000612cc182612c96565b9050919050565b612cd181612cb6565b8114612cdc57600080fd5b50565b600081359050612cee81612cc8565b92915050565b6000819050919050565b612d0781612cf4565b8114612d1257600080fd5b50565b600081359050612d2481612cfe565b92915050565b60008060408385031215612d4157612d40612c8c565b5b6000612d4f85828601612cdf565b9250506020612d6085828601612d15565b9150509250929050565b612d7381612cf4565b82525050565b6000602082019050612d8e6000830184612d6a565b92915050565b60007fffffffff0000000000000000000000000000000000000000000000000000000082169050919050565b612dc981612d94565b8114612dd457600080fd5b50565b600081359050612de681612dc0565b92915050565b600060208284031215612e0257612e01612c8c565b5b6000612e1084828501612dd7565b91505092915050565b60008115159050919050565b612e2e81612e19565b82525050565b6000602082019050612e496000830184612e25565b92915050565b600060208284031215612e6557612e64612c8c565b5b6000612e7384828501612d15565b91505092915050565b600081519050919050565b600082825260208201905092915050565b60005b83811015612eb6578082015181840152602081019050612e9b565b60008484015250505050565b6000601f19601f8301169050919050565b6000612ede82612e7c565b612ee88185612e87565b9350612ef8818560208601612e98565b612f0181612ec2565b840191505092915050565b60006020820190508181036000830152612f268184612ed3565b905092915050565b60008060408385031215612f4557612f44612c8c565b5b6000612f5385828601612d15565b9250506020612f6485828601612cdf565b9150509250929050565b600080600060608486031215612f8757612f86612c8c565b5b6000612f9586828701612d15565b9350506020612fa686828701612d15565b9250506040612fb786828701612d15565b9150509250925092565b600080fd5b7f4e487b7100000000000000000000000000000000000000000000000000000000600052604160045260246000fd5b612ffe82612ec2565b810181811067ffffffffffffffff8211171561301d5761301c612fc6565b5b80604052505050565b6000613030612c82565b905061303c8282612ff5565b919050565b600067ffffffffffffffff82111561305c5761305b612fc6565b5b602082029050602081019050919050565b600080fd5b600061308561308084613041565b613026565b905080838252602082019050602084028301858111156130a8576130a761306d565b5b835b818110156130d157806130bd8882612d15565b8452602084019350506020810190506130aa565b5050509392505050565b600082601f8301126130f0576130ef612fc1565b5b8135613100848260208601613072565b91505092915050565b600080fd5b600067ffffffffffffffff82111561312957613128612fc6565b5b61313282612ec2565b9050602081019050919050565b82818337600083830152505050565b600061316161315c8461310e565b613026565b90508281526020810184848401111561317d5761317c613109565b5b61318884828561313f565b509392505050565b600082601f8301126131a5576131a4612fc1565b5b81356131b584826020860161314e565b91505092915050565b600080600080600060a086880312156131da576131d9612c8c565b5b60006131e888828901612cdf565b95505060206131f988828901612cdf565b945050604086013567ffffffffffffffff81111561321a57613219612c91565b5b613226888289016130db565b935050606086013567ffffffffffffffff81111561324757613246612c91565b5b613253888289016130db565b925050608086013567ffffffffffffffff81111561327457613273612c91565b5b61328088828901613190565b9150509295509295909350565b600081519050919050565b600082825260208201905092915050565b6000819050602082019050919050565b6132c281612cb6565b82525050565b60006132d483836132b9565b60208301905092915050565b6000602082019050919050565b60006132f88261328d565b6133028185613298565b935061330d836132a9565b8060005b8381101561333e57815161332588826132c8565b9750613330836132e0565b925050600181019050613311565b5085935050505092915050565b6000602082019050818103600083015261336581846132ed565b905092915050565b600067ffffffffffffffff82111561338857613387612fc6565b5b602082029050602081019050919050565b60006133ac6133a78461336d565b613026565b905080838252602082019050602084028301858111156133cf576133ce61306d565b5b835b818110156133f857806133e48882612cdf565b8452602084019350506020810190506133d1565b5050509392505050565b600082601f83011261341757613416612fc1565b5b8135613427848260208601613399565b91505092915050565b6000806040838503121561344757613446612c8c565b5b600083013567ffffffffffffffff81111561346557613464612c91565b5b61347185828601613402565b925050602083013567ffffffffffffffff81111561349257613491612c91565b5b61349e858286016130db565b9150509250929050565b600081519050919050565b600082825260208201905092915050565b6000819050602082019050919050565b6134dd81612cf4565b82525050565b60006134ef83836134d4565b60208301905092915050565b6000602082019050919050565b6000613513826134a8565b61351d81856134b3565b9350613528836134c4565b8060005b8381101561355957815161354088826134e3565b975061354b836134fb565b92505060018101905061352c565b5085935050505092915050565b600060208201905081810360008301526135808184613508565b905092915050565b6000806040838503121561359f5761359e612c8c565b5b60006135ad85828601612d15565b92505060206135be85828601612d15565b9150509250929050565b6135d181612cb6565b82525050565b60006020820190506135ec60008301846135c8565b92915050565b6135fb81612e19565b811461360657600080fd5b50565b600081359050613618816135f2565b92915050565b6000806040838503121561363557613634612c8c565b5b600061364385828601612cdf565b925050602061365485828601613609565b9150509250929050565b600061016082019050613674600083018e612d6a565b8181036020830152613686818d612ed3565b9050613695604083018c6135c8565b6136a2606083018b612d6a565b6136af608083018a612d6a565b6136bc60a0830189612d6a565b6136c960c0830188612d6a565b6136d660e0830187612e25565b6136e4610100830186612e25565b6136f2610120830185612d6a565b613700610140830184612d6a565b9c9b505050505050505050505050565b6000806040838503121561372757613726612c8c565b5b600061373585828601612cdf565b925050602061374685828601612cdf565b9150509250929050565b600080600080600060a0868803121561376c5761376b612c8c565b5b600061377a88828901612cdf565b955050602061378b88828901612cdf565b945050604061379c88828901612d15565b93505060606137ad88828901612d15565b925050608086013567ffffffffffffffff8111156137ce576137cd612c91565b5b6137da88828901613190565b9150509295509295909350565b7f4e6f7420746865206f776e657200000000000000000000000000000000000000600082015250565b600061381d600d83612e87565b9150613828826137e7565b602082019050919050565b6000602082019050818103600083015261384c81613810565b9050919050565b7f536f6e6720697320616c72656164792072656c65617365640000000000000000600082015250565b6000613889601883612e87565b915061389482613853565b602082019050919050565b600060208201905081810360008301526138b88161387c565b9050919050565b7f4e487b7100000000000000000000000000000000000000000000000000000000600052602260045260246000fd5b6000600282049050600182168061390657607f821691505b602082108103613919576139186138bf565b5b50919050565b7f4e6f2066756e647320746f207769746864726177000000000000000000000000600082015250565b6000613955601483612e87565b91506139608261391f565b602082019050919050565b6000602082019050818103600083015261398481613948565b9050919050565b600081905092915050565b7f68747470733a2f2f61707269636f742d61646f7261626c652d62757a7a61726460008201527f2d3638352e6d7970696e6174612e636c6f75642f697066732f516d616659565260208201527f4d613961576a32515a414359655566624458747472795335537964617a64696a60408201527f58634e56666d732f000000000000000000000000000000000000000000000000606082015250565b6000613a3e60688361398b565b9150613a4982613996565b606882019050919050565b6000613a5f82612e7c565b613a69818561398b565b9350613a79818560208601612e98565b80840191505092915050565b7f2e6a736f6e000000000000000000000000000000000000000000000000000000600082015250565b6000613abb60058361398b565b9150613ac682613a85565b600582019050919050565b6000613adc82613a31565b9150613ae88284613a54565b9150613af382613aae565b915081905092915050565b60008190508160005260206000209050919050565b60006020601f8301049050919050565b600082821b905092915050565b600060088302613b607fffffffffffffffffffffffffffffffffffffffffffffffffffffffffffffffff82613b23565b613b6a8683613b23565b95508019841693508086168417925050509392505050565b6000819050919050565b6000613ba7613ba2613b9d84612cf4565b613b82565b612cf4565b9050919050565b6000819050919050565b613bc183613b8c565b613bd5613bcd82613bae565b848454613b30565b825550505050565b600090565b613bea613bdd565b613bf5818484613bb8565b505050565b5b81811015613c1957613c0e600082613be2565b600181019050613bfb565b5050565b601f821115613c5e57613c2f81613afe565b613c3884613b13565b81016020851015613c47578190505b613c5b613c5385613b13565b830182613bfa565b50505b505050565b600082821c905092915050565b6000613c8160001984600802613c63565b1980831691505092915050565b6000613c9a8383613c70565b9150826002028217905092915050565b613cb382612e7c565b67ffffffffffffffff811115613ccc57613ccb612fc6565b5b613cd682546138ee565b613ce1828285613c1d565b600060209050601f831160018114613d145760008415613d02578287015190505b613d0c8582613c8e565b865550613d74565b601f198416613d2286613afe565b60005b82811015613d4a57848901518255600182019150602085019450602081019050613d25565b86831015613d675784890151613d63601f891682613c70565b8355505b6001600288020188555050505b505050505050565b7f4e487b7100000000000000000000000000000000000000000000000000000000600052601160045260246000fd5b6000613db682612cf4565b91507fffffffffffffffffffffffffffffffffffffffffffffffffffffffffffffffff8203613de857613de7613d7c565b5b600182019050919050565b7f4e487b7100000000000000000000000000000000000000000000000000000000600052601260045260246000fd5b6000613e2d82612cf4565b9150613e3883612cf4565b925082613e4857613e47613df3565b5b828204905092915050565b6000604082019050613e686000830185612d6a565b613e756020830184612d6a565b9392505050565b6000604082019050613e9160008301856135c8565b613e9e60208301846135c8565b9392505050565b7f536f6e67206e6f742072656c6561736564207965740000000000000000000000600082015250565b6000613edb601583612e87565b9150613ee682613ea5565b602082019050919050565b60006020820190508181036000830152613f0a81613ece565b9050919050565b7f4e487b7100000000000000000000000000000000000000000000000000000000600052603260045260246000fd5b6000613f4b82612cf4565b9150613f5683612cf4565b9250828202613f6481612cf4565b91508282048414831517613f7b57613f7a613d7c565b5b5092915050565b7f536f6e67206d7573742062652072656c656173656420746f206469737472696260008201527f75746520726576656e7565000000000000000000000000000000000000000000602082015250565b6000613fde602b83612e87565b9150613fe982613f82565b604082019050919050565b6000602082019050818103600083015261400d81613fd1565b9050919050565b7f4e6f2066756e647320617661696c61626c6520666f722064697374726962757460008201527f696f6e0000000000000000000000000000000000000000000000000000000000602082015250565b6000614070602383612e87565b915061407b82614014565b604082019050919050565b6000602082019050818103600083015261409f81614063565b9050919050565b7f4e6f206672616374696f6e7320736f6c64000000000000000000000000000000600082015250565b60006140dc601183612e87565b91506140e7826140a6565b602082019050919050565b6000602082019050818103600083015261410b816140cf565b9050919050565b600061411d82612cf4565b915061412883612cf4565b92508282039050818111156141405761413f613d7c565b5b92915050565b7f546f6b656e20697320736f6c64206f7574000000000000000000000000000000600082015250565b600061417c601183612e87565b915061418782614146565b602082019050919050565b600060208201905081810360008301526141ab8161416f565b9050919050565b7f4e6f206672616374696f6e616c206f776e65727368697020617661696c61626c60008201527f6500000000000000000000000000000000000000000000000000000000000000602082015250565b600061420e602183612e87565b9150614219826141b2565b604082019050919050565b6000602082019050818103600083015261423d81614201565b9050919050565b7f4e6f7420656e6f756768206672616374696f6e616c206f776e6572736869702060008201527f617661696c61626c650000000000000000000000000000000000000000000000602082015250565b60006142a0602983612e87565b91506142ab82614244565b604082019050919050565b600060208201905081810360008301526142cf81614293565b9050919050565b7f496e636f727265637420616d6f756e74206f66204554482073656e7400000000600082015250565b600061430c601c83612e87565b9150614317826142d6565b602082019050919050565b6000602082019050818103600083015261433b816142ff565b9050919050565b600061434d82612cf4565b915061435883612cf4565b92508282019050808211156143705761436f613d7c565b5b92915050565b600061438182612cf4565b91506000820361439457614393613d7c565b5b600182039050919050565b6000819050919050565b60006143c46143bf6143ba8461439f565b613b82565b612cf4565b9050919050565b6143d4816143a9565b82525050565b60006040820190506143ef60008301856143cb565b6143fc6020830184612d6a565b9392505050565b7f4e465420646f6573206e6f742065786973740000000000000000000000000000600082015250565b6000614439601283612e87565b915061444482614403565b602082019050919050565b600060208201905081810360008301526144688161442c565b9050919050565b7f4e6f2066756e64732070726f7669646564000000000000000000000000000000600082015250565b60006144a5601183612e87565b91506144b08261446f565b602082019050919050565b600060208201905081810360008301526144d481614498565b9050919050565b60006080820190506144f060008301876135c8565b6144fd6020830186612d6a565b61450a6040830185612d6a565b6145176060830184612d6a565b95945050505050565b6000604082019050818103600083015261453a8185613508565b9050818103602083015261454e8184613508565b90509392505050565b600081519050919050565b600082825260208201905092915050565b600061457e82614557565b6145888185614562565b9350614598818560208601612e98565b6145a181612ec2565b840191505092915050565b600060a0820190506145c160008301886135c8565b6145ce60208301876135c8565b6145db6040830186612d6a565b6145e86060830185612d6a565b81810360808301526145fa8184614573565b90509695505050505050565b60008151905061461581612dc0565b92915050565b60006020828403121561463157614630612c8c565b5b600061463f84828501614606565b91505092915050565b600060a08201905061465d60008301886135c8565b61466a60208301876135c8565b818103604083015261467c8186613508565b905081810360608301526146908185613508565b905081810360808301526146a48184614573565b9050969550505050505056fea2646970667358221220d560c5a0b9d218cab54158c66f5fd9691e29d5c8f9d3ad66fa43b8a57904c36d64736f6c6343000814003368747470733a2f2f61707269636f742d61646f7261626c652d62757a7a6172642d3638352e6d7970696e6174612e636c6f75642f697066732f516d61665956524d613961576a32515a414359655566624458747472795335537964617a64696a58634e56666d732f",
  "linkReferences": {},
  "deployedLinkReferences": {}
}